{
  "contractName": "KyberTokenTrader",
  "abi": [
    {
      "constant": true,
      "inputs": [],
      "name": "kyberContract",
      "outputs": [
        {
          "name": "",
          "type": "address"
        }
      ],
      "payable": false,
      "stateMutability": "view",
      "type": "function"
    },
    {
      "inputs": [
        {
          "name": "_kyberContractAddress",
          "type": "address"
        }
      ],
      "payable": false,
      "stateMutability": "nonpayable",
      "type": "constructor"
    },
    {
      "constant": false,
      "inputs": [
        {
          "name": "_token",
          "type": "address"
        },
        {
          "name": "_destinationAddress",
          "type": "address"
        }
      ],
      "name": "tradeTokens",
      "outputs": [
        {
          "name": "noOfTokens",
          "type": "uint256"
        }
      ],
      "payable": true,
      "stateMutability": "payable",
      "type": "function"
    }
  ],
  "bytecode": "0x608060405234801561001057600080fd5b506040516020806103c783398101806040528101908080519060200190929190505050806000806101000a81548173ffffffffffffffffffffffffffffffffffffffff021916908373ffffffffffffffffffffffffffffffffffffffff16021790555050610344806100836000396000f30060806040526004361061004c576000357c0100000000000000000000000000000000000000000000000000000000900463ffffffff1680632aed139014610051578063791c754d146100a8575b600080fd5b34801561005d57600080fd5b50610066610112565b604051808273ffffffffffffffffffffffffffffffffffffffff1673ffffffffffffffffffffffffffffffffffffffff16815260200191505060405180910390f35b6100fc600480360381019080803573ffffffffffffffffffffffffffffffffffffffff169060200190929190803573ffffffffffffffffffffffffffffffffffffffff169060200190929190505050610137565b6040518082815260200191505060405180910390f35b6000809054906101000a900473ffffffffffffffffffffffffffffffffffffffff1681565b60008060007fffffffffffffffffffffffffffffffffffffffffffffffffffffffffffffffff9150600190506000809054906101000a900473ffffffffffffffffffffffffffffffffffffffff1673ffffffffffffffffffffffffffffffffffffffff1663cb3c28c73473eeeeeeeeeeeeeeeeeeeeeeeeeeeeeeeeeeeeeeee348989888860006040518963ffffffff167c0100000000000000000000000000000000000000000000000000000000028152600401808873ffffffffffffffffffffffffffffffffffffffff1673ffffffffffffffffffffffffffffffffffffffff1681526020018781526020018673ffffffffffffffffffffffffffffffffffffffff1673ffffffffffffffffffffffffffffffffffffffff1681526020018573ffffffffffffffffffffffffffffffffffffffff1673ffffffffffffffffffffffffffffffffffffffff1681526020018481526020018381526020018273ffffffffffffffffffffffffffffffffffffffff1681526020019750505050505050506020604051808303818588803b1580156102d257600080fd5b505af11580156102e6573d6000803e3d6000fd5b50505050506040513d60208110156102fd57600080fd5b810190808051906020019092919050505092505050929150505600a165627a7a72305820bf4f68600f592886c1d81d7642ce7685a82b835ee7af6c34bae7b7af8219ec9f0029",
  "source": "\r\npragma solidity ^0.4.18;\r\n\r\nimport \"./vendor/KyberNetwork.sol\";\r\nimport \"./interfaces/TokenTrader.sol\";\r\n\r\n\r\ncontract KyberTokenTrader is TokenTrader{\r\n  \r\n    KyberNetworkProxy public kyberContract ;\r\n    \r\n    constructor(address _kyberContractAddress) public{\r\n        \r\n       kyberContract = KyberNetworkProxy(_kyberContractAddress);\r\n \r\n    }\r\n\r\n    function tradeTokens(ERC20 _token, address _destinationAddress) external payable returns(uint noOfTokens) {\r\n        \r\n        \r\n       uint maxDestAmount = 2**256 - 1;\r\n    \r\n        // Set minConversionRate to 1 \r\n        // A value of 1 will execute the trade according to market price in the time of the transaction confirmation\r\n        uint minConversionRate =   1;\r\n    \r\n    \r\n            // Convert the ETH to ERC20\r\n            noOfTokens = kyberContract.trade.value(msg.value)(\r\n                // Source. From Kyber docs, this value denotes ETH\r\n                ERC20(0x00eeeeeeeeeeeeeeeeeeeeeeeeeeeeeeeeeeeeeeee),\r\n                \r\n                // Source amount\r\n                msg.value,\r\n    \r\n                // Destination. \r\n                _token,\r\n                \r\n                // destAddress: this contract\r\n                _destinationAddress,\r\n                \r\n                // maxDestAmount\r\n                maxDestAmount,\r\n                \r\n                // minConversionRate \r\n                minConversionRate,\r\n                \r\n                // walletId\r\n                0\r\n            );     \r\n \r\n        \r\n    }\r\n\t\r\n}",
  "sourcePath": "C:\\Users\\Emilio\\Documents\\GitHub\\Microstaking\\contracts\\KyberTokenTrader.sol",
  "compiler": {
    "name": "solc",
    "version": "0.4.24+commit.e67f0147.Emscripten.clang"
  },
  "schemaVersion": "2.0.1",
  "updatedAt": "2018-08-24T09:32:54.806Z"
}