{
  "contractName": "KyberTokenTrader",
  "abi": [
    {
      "constant": true,
      "inputs": [],
      "name": "kyberContract",
      "outputs": [
        {
          "name": "",
          "type": "address"
        }
      ],
      "payable": false,
      "stateMutability": "view",
      "type": "function"
    },
    {
      "inputs": [
        {
          "name": "_kyberContractAddress",
          "type": "address"
        }
      ],
      "payable": false,
      "stateMutability": "nonpayable",
      "type": "constructor"
    },
    {
      "constant": false,
      "inputs": [
        {
          "name": "_token",
          "type": "address"
        },
        {
          "name": "_destinationAddress",
          "type": "address"
        }
      ],
      "name": "tradeTokens",
      "outputs": [
        {
          "name": "noOfTokens",
          "type": "uint256"
        }
      ],
      "payable": true,
      "stateMutability": "payable",
      "type": "function"
    }
  ],
  "bytecode": "0x608060405234801561001057600080fd5b506040516020806103c783398101806040528101908080519060200190929190505050806000806101000a81548173ffffffffffffffffffffffffffffffffffffffff021916908373ffffffffffffffffffffffffffffffffffffffff16021790555050610344806100836000396000f30060806040526004361061004c576000357c0100000000000000000000000000000000000000000000000000000000900463ffffffff1680632aed139014610051578063791c754d146100a8575b600080fd5b34801561005d57600080fd5b50610066610112565b604051808273ffffffffffffffffffffffffffffffffffffffff1673ffffffffffffffffffffffffffffffffffffffff16815260200191505060405180910390f35b6100fc600480360381019080803573ffffffffffffffffffffffffffffffffffffffff169060200190929190803573ffffffffffffffffffffffffffffffffffffffff169060200190929190505050610137565b6040518082815260200191505060405180910390f35b6000809054906101000a900473ffffffffffffffffffffffffffffffffffffffff1681565b60008060007fffffffffffffffffffffffffffffffffffffffffffffffffffffffffffffffff9150600190506000809054906101000a900473ffffffffffffffffffffffffffffffffffffffff1673ffffffffffffffffffffffffffffffffffffffff1663cb3c28c73473eeeeeeeeeeeeeeeeeeeeeeeeeeeeeeeeeeeeeeee348989888860006040518963ffffffff167c0100000000000000000000000000000000000000000000000000000000028152600401808873ffffffffffffffffffffffffffffffffffffffff1673ffffffffffffffffffffffffffffffffffffffff1681526020018781526020018673ffffffffffffffffffffffffffffffffffffffff1673ffffffffffffffffffffffffffffffffffffffff1681526020018573ffffffffffffffffffffffffffffffffffffffff1673ffffffffffffffffffffffffffffffffffffffff1681526020018481526020018381526020018273ffffffffffffffffffffffffffffffffffffffff1681526020019750505050505050506020604051808303818588803b1580156102d257600080fd5b505af11580156102e6573d6000803e3d6000fd5b50505050506040513d60208110156102fd57600080fd5b810190808051906020019092919050505092505050929150505600a165627a7a72305820e93b9e6b7d20db1332c7cbf59f99c65c93c512fbf1d49f0da149dc42ff329bcd0029",
  "source": "\npragma solidity ^0.4.18;\n\nimport \"./vendor/KyberNetwork.sol\";\nimport \"./interfaces/ITokenTrader.sol\";\n\n\ncontract KyberTokenTrader is ITokenTrader{\n  \n    KyberNetworkProxy public kyberContract ;\n    \n    constructor(address _kyberContractAddress) public{\n        \n       kyberContract = KyberNetworkProxy(_kyberContractAddress);\n \n    }\n\n    function tradeTokens(ERC20 _token, address _destinationAddress) external payable returns(uint noOfTokens) {\n        \n        \n       uint maxDestAmount = 2**256 - 1;\n    \n        // Set minConversionRate to 1 \n        // A value of 1 will execute the trade according to market price in the time of the transaction confirmation\n        uint minConversionRate =   1;\n    \n    \n            // Convert the ETH to ERC20\n            noOfTokens = kyberContract.trade.value(msg.value)(\n                // Source. From Kyber docs, this value denotes ETH\n                ERC20(0x00eeeeeeeeeeeeeeeeeeeeeeeeeeeeeeeeeeeeeeee),\n                \n                // Source amount\n                msg.value,\n    \n                // Destination. \n                _token,\n                \n                // destAddress: this contract\n                _destinationAddress,\n                \n                // maxDestAmount\n                maxDestAmount,\n                \n                // minConversionRate \n                minConversionRate,\n                \n                // walletId\n                0\n            );     \n \n        \n    }\n\t\n}",
  "sourcePath": "/home/emilio/code/Microstaking/contracts/KyberTokenTrader.sol",
  "compiler": {
    "name": "solc",
    "version": "0.4.24+commit.e67f0147.Emscripten.clang"
  },
  "schemaVersion": "2.0.1",
  "updatedAt": "2019-01-28T12:32:51.393Z"
}