{
  "contractName": "KyberReserve",
  "abi": [
    {
      "constant": true,
      "inputs": [],
      "name": "ETH_TOKEN_ADDRESS",
      "outputs": [
        {
          "name": "",
          "type": "address"
        }
      ],
      "payable": false,
      "stateMutability": "view",
      "type": "function"
    },
    {
      "constant": true,
      "inputs": [],
      "name": "kyberNetwork",
      "outputs": [
        {
          "name": "",
          "type": "address"
        }
      ],
      "payable": false,
      "stateMutability": "view",
      "type": "function"
    },
    {
      "constant": true,
      "inputs": [],
      "name": "tradeEnabled",
      "outputs": [
        {
          "name": "",
          "type": "bool"
        }
      ],
      "payable": false,
      "stateMutability": "view",
      "type": "function"
    },
    {
      "constant": true,
      "inputs": [],
      "name": "reserveOwner",
      "outputs": [
        {
          "name": "",
          "type": "address"
        }
      ],
      "payable": false,
      "stateMutability": "view",
      "type": "function"
    },
    {
      "inputs": [
        {
          "name": "_kyberNetwork",
          "type": "address"
        },
        {
          "name": "_reserveOwner",
          "type": "address"
        }
      ],
      "payable": false,
      "stateMutability": "nonpayable",
      "type": "constructor"
    },
    {
      "payable": true,
      "stateMutability": "payable",
      "type": "fallback"
    },
    {
      "anonymous": false,
      "inputs": [
        {
          "indexed": true,
          "name": "origin",
          "type": "address"
        },
        {
          "indexed": false,
          "name": "error",
          "type": "uint256"
        },
        {
          "indexed": false,
          "name": "errorInfo",
          "type": "uint256"
        }
      ],
      "name": "ErrorReport",
      "type": "event"
    },
    {
      "anonymous": false,
      "inputs": [
        {
          "indexed": true,
          "name": "origin",
          "type": "address"
        },
        {
          "indexed": false,
          "name": "source",
          "type": "address"
        },
        {
          "indexed": false,
          "name": "sourceAmount",
          "type": "uint256"
        },
        {
          "indexed": false,
          "name": "destToken",
          "type": "address"
        },
        {
          "indexed": false,
          "name": "destAmount",
          "type": "uint256"
        },
        {
          "indexed": false,
          "name": "destAddress",
          "type": "address"
        }
      ],
      "name": "DoTrade",
      "type": "event"
    },
    {
      "anonymous": false,
      "inputs": [
        {
          "indexed": false,
          "name": "source",
          "type": "address"
        },
        {
          "indexed": false,
          "name": "dest",
          "type": "address"
        },
        {
          "indexed": false,
          "name": "rate",
          "type": "uint256"
        },
        {
          "indexed": false,
          "name": "expiryBlock",
          "type": "uint256"
        }
      ],
      "name": "SetRate",
      "type": "event"
    },
    {
      "anonymous": false,
      "inputs": [
        {
          "indexed": false,
          "name": "enable",
          "type": "bool"
        }
      ],
      "name": "EnableTrade",
      "type": "event"
    },
    {
      "anonymous": false,
      "inputs": [
        {
          "indexed": false,
          "name": "token",
          "type": "address"
        },
        {
          "indexed": false,
          "name": "amount",
          "type": "uint256"
        }
      ],
      "name": "DepositToken",
      "type": "event"
    },
    {
      "anonymous": false,
      "inputs": [
        {
          "indexed": false,
          "name": "token",
          "type": "address"
        },
        {
          "indexed": false,
          "name": "amount",
          "type": "uint256"
        },
        {
          "indexed": false,
          "name": "destination",
          "type": "address"
        }
      ],
      "name": "Withdraw",
      "type": "event"
    },
    {
      "constant": false,
      "inputs": [
        {
          "name": "sourceToken",
          "type": "address"
        },
        {
          "name": "sourceAmount",
          "type": "uint256"
        },
        {
          "name": "destToken",
          "type": "address"
        },
        {
          "name": "destAddress",
          "type": "address"
        },
        {
          "name": "validate",
          "type": "bool"
        }
      ],
      "name": "trade",
      "outputs": [
        {
          "name": "",
          "type": "bool"
        }
      ],
      "payable": true,
      "stateMutability": "payable",
      "type": "function"
    },
    {
      "constant": false,
      "inputs": [
        {
          "name": "sources",
          "type": "address[]"
        },
        {
          "name": "dests",
          "type": "address[]"
        },
        {
          "name": "conversionRates",
          "type": "uint256[]"
        },
        {
          "name": "expiryBlocks",
          "type": "uint256[]"
        },
        {
          "name": "vaildate",
          "type": "bool"
        }
      ],
      "name": "setRate",
      "outputs": [
        {
          "name": "",
          "type": "bool"
        }
      ],
      "payable": false,
      "stateMutability": "nonpayable",
      "type": "function"
    },
    {
      "constant": false,
      "inputs": [
        {
          "name": "enable",
          "type": "bool"
        }
      ],
      "name": "enableTrade",
      "outputs": [
        {
          "name": "",
          "type": "bool"
        }
      ],
      "payable": false,
      "stateMutability": "nonpayable",
      "type": "function"
    },
    {
      "constant": false,
      "inputs": [],
      "name": "depositEther",
      "outputs": [
        {
          "name": "",
          "type": "bool"
        }
      ],
      "payable": true,
      "stateMutability": "payable",
      "type": "function"
    },
    {
      "constant": false,
      "inputs": [
        {
          "name": "token",
          "type": "address"
        },
        {
          "name": "amount",
          "type": "uint256"
        }
      ],
      "name": "depositToken",
      "outputs": [
        {
          "name": "",
          "type": "bool"
        }
      ],
      "payable": false,
      "stateMutability": "nonpayable",
      "type": "function"
    },
    {
      "constant": false,
      "inputs": [
        {
          "name": "token",
          "type": "address"
        },
        {
          "name": "amount",
          "type": "uint256"
        },
        {
          "name": "destination",
          "type": "address"
        }
      ],
      "name": "withdraw",
      "outputs": [
        {
          "name": "",
          "type": "bool"
        }
      ],
      "payable": false,
      "stateMutability": "nonpayable",
      "type": "function"
    },
    {
      "constant": true,
      "inputs": [
        {
          "name": "source",
          "type": "address"
        },
        {
          "name": "dest",
          "type": "address"
        }
      ],
      "name": "getPairInfo",
      "outputs": [
        {
          "name": "rate",
          "type": "uint256"
        },
        {
          "name": "expBlock",
          "type": "uint256"
        },
        {
          "name": "balance",
          "type": "uint256"
        }
      ],
      "payable": false,
      "stateMutability": "view",
      "type": "function"
    },
    {
      "constant": true,
      "inputs": [
        {
          "name": "token",
          "type": "address"
        }
      ],
      "name": "getBalance",
      "outputs": [
        {
          "name": "",
          "type": "uint256"
        }
      ],
      "payable": false,
      "stateMutability": "view",
      "type": "function"
    }
  ],
  "bytecode": "0x608060405234801561001057600080fd5b50604051604080612bc1833981018060405281019080805190602001909291908051906020019092919050505081600160006101000a81548173ffffffffffffffffffffffffffffffffffffffff021916908373ffffffffffffffffffffffffffffffffffffffff160217905550806000806101000a81548173ffffffffffffffffffffffffffffffffffffffff021916908373ffffffffffffffffffffffffffffffffffffffff16021790555060018060146101000a81548160ff0219169083151502179055505050612ad8806100e96000396000f3006080604052600436106100ba576000357c0100000000000000000000000000000000000000000000000000000000900463ffffffff1680630363b1e11461013b5780631878d1f1146101df578063338b5dea14610236578063400f7a1e1461029b57806369328dec1461032057806398ea5fca146103a5578063b78b842d146103c7578063c00f04d11461041e578063d621e81314610465578063da6dfea714610494578063e61b6557146105e7578063f8b2cb4f1461063e575b7f2d0c0a8842b9944ece1495eb61121621b5e36bd6af3bba0318c695f525aef79f73eeeeeeeeeeeeeeeeeeeeeeeeeeeeeeeeeeeeeeee34604051808373ffffffffffffffffffffffffffffffffffffffff1673ffffffffffffffffffffffffffffffffffffffff1681526020018281526020019250505060405180910390a1005b6101c5600480360381019080803573ffffffffffffffffffffffffffffffffffffffff16906020019092919080359060200190929190803573ffffffffffffffffffffffffffffffffffffffff169060200190929190803573ffffffffffffffffffffffffffffffffffffffff169060200190929190803515159060200190929190505050610695565b604051808215151515815260200191505060405180910390f35b3480156101eb57600080fd5b506101f461099e565b604051808273ffffffffffffffffffffffffffffffffffffffff1673ffffffffffffffffffffffffffffffffffffffff16815260200191505060405180910390f35b34801561024257600080fd5b50610281600480360381019080803573ffffffffffffffffffffffffffffffffffffffff169060200190929190803590602001909291905050506109b6565b604051808215151515815260200191505060405180910390f35b3480156102a757600080fd5b506102fc600480360381019080803573ffffffffffffffffffffffffffffffffffffffff169060200190929190803573ffffffffffffffffffffffffffffffffffffffff169060200190929190505050610e3e565b60405180848152602001838152602001828152602001935050505060405180910390f35b34801561032c57600080fd5b5061038b600480360381019080803573ffffffffffffffffffffffffffffffffffffffff16906020019092919080359060200190929190803573ffffffffffffffffffffffffffffffffffffffff169060200190929190505050611074565b604051808215151515815260200191505060405180910390f35b6103ad611430565b604051808215151515815260200191505060405180910390f35b3480156103d357600080fd5b506103dc61150f565b604051808273ffffffffffffffffffffffffffffffffffffffff1673ffffffffffffffffffffffffffffffffffffffff16815260200191505060405180910390f35b34801561042a57600080fd5b5061044b600480360381019080803515159060200190929190505050611535565b604051808215151515815260200191505060405180910390f35b34801561047157600080fd5b5061047a6116bd565b604051808215151515815260200191505060405180910390f35b3480156104a057600080fd5b506105cd600480360381019080803590602001908201803590602001908080602002602001604051908101604052809392919081815260200183836020028082843782019150505050505091929192908035906020019082018035906020019080806020026020016040519081016040528093929190818152602001838360200280828437820191505050505050919291929080359060200190820180359060200190808060200260200160405190810160405280939291908181526020018383602002808284378201915050505050509192919290803590602001908201803590602001908080602002602001604051908101604052809392919081815260200183836020028082843782019150505050505091929192908035151590602001909291905050506116d0565b604051808215151515815260200191505060405180910390f35b3480156105f357600080fd5b506105fc611aee565b604051808273ffffffffffffffffffffffffffffffffffffffff1673ffffffffffffffffffffffffffffffffffffffff16815260200191505060405180910390f35b34801561064a57600080fd5b5061067f600480360381019080803573ffffffffffffffffffffffffffffffffffffffff169060200190929190505050611b13565b6040518082815260200191505060405180910390f35b6000600160149054906101000a900460ff16151561075c573273ffffffffffffffffffffffffffffffffffffffff167f05d2f3e2f3e0a781082873c332729f77c49ee05d757ef3d1e5058fa0d883f36f6408100000006000604051808381526020018281526020019250505060405180910390a26000341115610753573373ffffffffffffffffffffffffffffffffffffffff166108fc349081150290604051600060405180830381858888f19350505050151561075257600080fd5b5b60009050610995565b600160009054906101000a900473ffffffffffffffffffffffffffffffffffffffff1673ffffffffffffffffffffffffffffffffffffffff163373ffffffffffffffffffffffffffffffffffffffff16141515610877573273ffffffffffffffffffffffffffffffffffffffff167f05d2f3e2f3e0a781082873c332729f77c49ee05d757ef3d1e5058fa0d883f36f6408100000013373ffffffffffffffffffffffffffffffffffffffff16604051808381526020018281526020019250505060405180910390a2600034111561086e573373ffffffffffffffffffffffffffffffffffffffff166108fc349081150290604051600060405180830381858888f19350505050151561086d57600080fd5b5b60009050610995565b6108848686868686611c5a565b1515610939573273ffffffffffffffffffffffffffffffffffffffff167f05d2f3e2f3e0a781082873c332729f77c49ee05d757ef3d1e5058fa0d883f36f6408100000026000604051808381526020018281526020019250505060405180910390a26000341115610930573373ffffffffffffffffffffffffffffffffffffffff166108fc349081150290604051600060405180830381858888f19350505050151561092f57600080fd5b5b60009050610995565b3273ffffffffffffffffffffffffffffffffffffffff167f05d2f3e2f3e0a781082873c332729f77c49ee05d757ef3d1e5058fa0d883f36f600080604051808381526020018281526020019250505060405180910390a2600190505b95945050505050565b73eeeeeeeeeeeeeeeeeeeeeeeeeeeeeeeeeeeeeeee81565b6000818373ffffffffffffffffffffffffffffffffffffffff1663dd62ed3e33306040518363ffffffff167c0100000000000000000000000000000000000000000000000000000000028152600401808373ffffffffffffffffffffffffffffffffffffffff1673ffffffffffffffffffffffffffffffffffffffff1681526020018273ffffffffffffffffffffffffffffffffffffffff1673ffffffffffffffffffffffffffffffffffffffff16815260200192505050602060405180830381600087803b158015610a8857600080fd5b505af1158015610a9c573d6000803e3d6000fd5b505050506040513d6020811015610ab257600080fd5b81019080805190602001909291905050501015610c36573273ffffffffffffffffffffffffffffffffffffffff167f05d2f3e2f3e0a781082873c332729f77c49ee05d757ef3d1e5058fa0d883f36f6408500000018573ffffffffffffffffffffffffffffffffffffffff1663dd62ed3e33306040518363ffffffff167c0100000000000000000000000000000000000000000000000000000000028152600401808373ffffffffffffffffffffffffffffffffffffffff1673ffffffffffffffffffffffffffffffffffffffff1681526020018273ffffffffffffffffffffffffffffffffffffffff1673ffffffffffffffffffffffffffffffffffffffff16815260200192505050602060405180830381600087803b158015610bd657600080fd5b505af1158015610bea573d6000803e3d6000fd5b505050506040513d6020811015610c0057600080fd5b8101908080519060200190929190505050604051808381526020018281526020019250505060405180910390a260009050610e38565b8273ffffffffffffffffffffffffffffffffffffffff166323b872dd3330856040518463ffffffff167c0100000000000000000000000000000000000000000000000000000000028152600401808473ffffffffffffffffffffffffffffffffffffffff1673ffffffffffffffffffffffffffffffffffffffff1681526020018373ffffffffffffffffffffffffffffffffffffffff1673ffffffffffffffffffffffffffffffffffffffff1681526020018281526020019350505050602060405180830381600087803b158015610d0d57600080fd5b505af1158015610d21573d6000803e3d6000fd5b505050506040513d6020811015610d3757600080fd5b81019080805190602001909291905050501515610dc8573273ffffffffffffffffffffffffffffffffffffffff167f05d2f3e2f3e0a781082873c332729f77c49ee05d757ef3d1e5058fa0d883f36f6408500000028573ffffffffffffffffffffffffffffffffffffffff16604051808381526020018281526020019250505060405180910390a260009050610e38565b7f2d0c0a8842b9944ece1495eb61121621b5e36bd6af3bba0318c695f525aef79f8383604051808373ffffffffffffffffffffffffffffffffffffffff1673ffffffffffffffffffffffffffffffffffffffff1681526020018281526020019250505060405180910390a1600190505b92915050565b6000806000610e4b612a92565b600260008787604051808373ffffffffffffffffffffffffffffffffffffffff1673ffffffffffffffffffffffffffffffffffffffff166c010000000000000000000000000281526014018273ffffffffffffffffffffffffffffffffffffffff1673ffffffffffffffffffffffffffffffffffffffff166c01000000000000000000000000028152601401925050506040518091039020600019166000191681526020019081526020016000206040805190810160405290816000820154815260200160018201548152505090506000915073eeeeeeeeeeeeeeeeeeeeeeeeeeeeeeeeeeeeeeee73ffffffffffffffffffffffffffffffffffffffff168573ffffffffffffffffffffffffffffffffffffffff161415610f85573073ffffffffffffffffffffffffffffffffffffffff1631915061105e565b8473ffffffffffffffffffffffffffffffffffffffff166370a08231306040518263ffffffff167c0100000000000000000000000000000000000000000000000000000000028152600401808273ffffffffffffffffffffffffffffffffffffffff1673ffffffffffffffffffffffffffffffffffffffff168152602001915050602060405180830381600087803b15801561102057600080fd5b505af1158015611034573d6000803e3d6000fd5b505050506040513d602081101561104a57600080fd5b810190808051906020019092919050505091505b8060200151925080600001519350509250925092565b60008060009054906101000a900473ffffffffffffffffffffffffffffffffffffffff1673ffffffffffffffffffffffffffffffffffffffff163373ffffffffffffffffffffffffffffffffffffffff16141515611146573273ffffffffffffffffffffffffffffffffffffffff167f05d2f3e2f3e0a781082873c332729f77c49ee05d757ef3d1e5058fa0d883f36f6408600000003373ffffffffffffffffffffffffffffffffffffffff16604051808381526020018281526020019250505060405180910390a260009050611429565b73eeeeeeeeeeeeeeeeeeeeeeeeeeeeeeeeeeeeeeee73ffffffffffffffffffffffffffffffffffffffff168473ffffffffffffffffffffffffffffffffffffffff1614156111d3578173ffffffffffffffffffffffffffffffffffffffff166108fc849081150290604051600060405180830381858888f1935050505015156111ce57600080fd5b611332565b8373ffffffffffffffffffffffffffffffffffffffff1663a9059cbb83856040518363ffffffff167c0100000000000000000000000000000000000000000000000000000000028152600401808373ffffffffffffffffffffffffffffffffffffffff1673ffffffffffffffffffffffffffffffffffffffff16815260200182815260200192505050602060405180830381600087803b15801561127657600080fd5b505af115801561128a573d6000803e3d6000fd5b505050506040513d60208110156112a057600080fd5b81019080805190602001909291905050501515611331573273ffffffffffffffffffffffffffffffffffffffff167f05d2f3e2f3e0a781082873c332729f77c49ee05d757ef3d1e5058fa0d883f36f6408600000018673ffffffffffffffffffffffffffffffffffffffff16604051808381526020018281526020019250505060405180910390a260009050611429565b5b3273ffffffffffffffffffffffffffffffffffffffff167f05d2f3e2f3e0a781082873c332729f77c49ee05d757ef3d1e5058fa0d883f36f600080604051808381526020018281526020019250505060405180910390a27f56c54ba9bd38d8fd62012e42c7ee564519b09763c426d331b3661b537ead19b2848484604051808473ffffffffffffffffffffffffffffffffffffffff1673ffffffffffffffffffffffffffffffffffffffff1681526020018381526020018273ffffffffffffffffffffffffffffffffffffffff1673ffffffffffffffffffffffffffffffffffffffff168152602001935050505060405180910390a15b9392505050565b60003273ffffffffffffffffffffffffffffffffffffffff167f05d2f3e2f3e0a781082873c332729f77c49ee05d757ef3d1e5058fa0d883f36f600080604051808381526020018281526020019250505060405180910390a27f2d0c0a8842b9944ece1495eb61121621b5e36bd6af3bba0318c695f525aef79f73eeeeeeeeeeeeeeeeeeeeeeeeeeeeeeeeeeeeeeee34604051808373ffffffffffffffffffffffffffffffffffffffff1673ffffffffffffffffffffffffffffffffffffffff1681526020018281526020019250505060405180910390a16001905090565b600160009054906101000a900473ffffffffffffffffffffffffffffffffffffffff1681565b60008060009054906101000a900473ffffffffffffffffffffffffffffffffffffffff1673ffffffffffffffffffffffffffffffffffffffff163373ffffffffffffffffffffffffffffffffffffffff16141515611607573273ffffffffffffffffffffffffffffffffffffffff167f05d2f3e2f3e0a781082873c332729f77c49ee05d757ef3d1e5058fa0d883f36f6408300000003373ffffffffffffffffffffffffffffffffffffffff16604051808381526020018281526020019250505060405180910390a2600090506116b8565b81600160146101000a81548160ff0219169083151502179055503273ffffffffffffffffffffffffffffffffffffffff167f05d2f3e2f3e0a781082873c332729f77c49ee05d757ef3d1e5058fa0d883f36f600080604051808381526020018281526020019250505060405180910390a27fcd2a11befb642d27dc40a029a06248cc8f351c694afdf524dbcdd619526fd9f282604051808215151515815260200191505060405180910390a1600190505b919050565b600160149054906101000a900460ff1681565b6000806000809054906101000a900473ffffffffffffffffffffffffffffffffffffffff1673ffffffffffffffffffffffffffffffffffffffff163373ffffffffffffffffffffffffffffffffffffffff161415156117a3573273ffffffffffffffffffffffffffffffffffffffff167f05d2f3e2f3e0a781082873c332729f77c49ee05d757ef3d1e5058fa0d883f36f6408200000003373ffffffffffffffffffffffffffffffffffffffff16604051808381526020018281526020019250505060405180910390a260009150611ae4565b821561183457855187511415806117bc57508451875114155b806117c957508351875114155b15611833573273ffffffffffffffffffffffffffffffffffffffff167f05d2f3e2f3e0a781082873c332729f77c49ee05d757ef3d1e5058fa0d883f36f6408200000016000604051808381526020018281526020019250505060405180910390a260009150611ae4565b5b600090505b8651811015611a88577ffb173712efe345dcd1cbd1d51dd337765fbb3a609e67b2dae515a937adedcc96878281518110151561187157fe5b90602001906020020151878381518110151561188957fe5b9060200190602002015187848151811015156118a157fe5b9060200190602002015187858151811015156118b957fe5b90602001906020020151604051808573ffffffffffffffffffffffffffffffffffffffff1673ffffffffffffffffffffffffffffffffffffffff1681526020018473ffffffffffffffffffffffffffffffffffffffff1673ffffffffffffffffffffffffffffffffffffffff16815260200183815260200182815260200194505050505060405180910390a16040805190810160405280868381518110151561195e57fe5b906020019060200201518152602001858381518110151561197b57fe5b9060200190602002015181525060026000898481518110151561199a57fe5b9060200190602002015189858151811015156119b257fe5b90602001906020020151604051808373ffffffffffffffffffffffffffffffffffffffff1673ffffffffffffffffffffffffffffffffffffffff166c010000000000000000000000000281526014018273ffffffffffffffffffffffffffffffffffffffff1673ffffffffffffffffffffffffffffffffffffffff166c010000000000000000000000000281526014019250505060405180910390206000191660001916815260200190815260200160002060008201518160000155602082015181600101559050508080600101915050611839565b3273ffffffffffffffffffffffffffffffffffffffff167f05d2f3e2f3e0a781082873c332729f77c49ee05d757ef3d1e5058fa0d883f36f600080604051808381526020018281526020019250505060405180910390a2600191505b5095945050505050565b6000809054906101000a900473ffffffffffffffffffffffffffffffffffffffff1681565b600073eeeeeeeeeeeeeeeeeeeeeeeeeeeeeeeeeeeeeeee73ffffffffffffffffffffffffffffffffffffffff168273ffffffffffffffffffffffffffffffffffffffff161415611b7c573073ffffffffffffffffffffffffffffffffffffffff16319050611c55565b8173ffffffffffffffffffffffffffffffffffffffff166370a08231306040518263ffffffff167c0100000000000000000000000000000000000000000000000000000000028152600401808273ffffffffffffffffffffffffffffffffffffffff1673ffffffffffffffffffffffffffffffffffffffff168152602001915050602060405180830381600087803b158015611c1757600080fd5b505af1158015611c2b573d6000803e3d6000fd5b505050506040513d6020811015611c4157600080fd5b810190808051906020019092919050505090505b919050565b6000806000831561208257611c7088874361287c565b1515611cdb573273ffffffffffffffffffffffffffffffffffffffff167f05d2f3e2f3e0a781082873c332729f77c49ee05d757ef3d1e5058fa0d883f36f6408000000016000604051808381526020018281526020019250505060405180910390a260009250612871565b73eeeeeeeeeeeeeeeeeeeeeeeeeeeeeeeeeeeeeeee73ffffffffffffffffffffffffffffffffffffffff168873ffffffffffffffffffffffffffffffffffffffff161415611d95578634141515611d90573273ffffffffffffffffffffffffffffffffffffffff167f05d2f3e2f3e0a781082873c332729f77c49ee05d757ef3d1e5058fa0d883f36f64080000000234604051808381526020018281526020019250505060405180910390a260009250612871565b612081565b6000341115611e02573273ffffffffffffffffffffffffffffffffffffffff167f05d2f3e2f3e0a781082873c332729f77c49ee05d757ef3d1e5058fa0d883f36f64080000000334604051808381526020018281526020019250505060405180910390a260009250612871565b868873ffffffffffffffffffffffffffffffffffffffff1663dd62ed3e33306040518363ffffffff167c0100000000000000000000000000000000000000000000000000000000028152600401808373ffffffffffffffffffffffffffffffffffffffff1673ffffffffffffffffffffffffffffffffffffffff1681526020018273ffffffffffffffffffffffffffffffffffffffff1673ffffffffffffffffffffffffffffffffffffffff16815260200192505050602060405180830381600087803b158015611ed257600080fd5b505af1158015611ee6573d6000803e3d6000fd5b505050506040513d6020811015611efc57600080fd5b81019080805190602001909291905050501015612080573273ffffffffffffffffffffffffffffffffffffffff167f05d2f3e2f3e0a781082873c332729f77c49ee05d757ef3d1e5058fa0d883f36f6408000000048a73ffffffffffffffffffffffffffffffffffffffff1663dd62ed3e33306040518363ffffffff167c0100000000000000000000000000000000000000000000000000000000028152600401808373ffffffffffffffffffffffffffffffffffffffff1673ffffffffffffffffffffffffffffffffffffffff1681526020018273ffffffffffffffffffffffffffffffffffffffff1673ffffffffffffffffffffffffffffffffffffffff16815260200192505050602060405180830381600087803b15801561202057600080fd5b505af1158015612034573d6000803e3d6000fd5b505050506040513d602081101561204a57600080fd5b8101908080519060200190929190505050604051808381526020018281526020019250505060405180910390a260009250612871565b5b5b61208d88874361297e565b9150670de0b6b3a76400008783028115156120a457fe5b0490506000811415612115573273ffffffffffffffffffffffffffffffffffffffff167f05d2f3e2f3e0a781082873c332729f77c49ee05d757ef3d1e5058fa0d883f36f6408000000056000604051808381526020018281526020019250505060405180910390a260009250612871565b73eeeeeeeeeeeeeeeeeeeeeeeeeeeeeeeeeeeeeeee73ffffffffffffffffffffffffffffffffffffffff168673ffffffffffffffffffffffffffffffffffffffff1614156121e557803073ffffffffffffffffffffffffffffffffffffffff163110156121e0573273ffffffffffffffffffffffffffffffffffffffff167f05d2f3e2f3e0a781082873c332729f77c49ee05d757ef3d1e5058fa0d883f36f64080000000683604051808381526020018281526020019250505060405180910390a260009250612871565b61233d565b808673ffffffffffffffffffffffffffffffffffffffff166370a08231306040518263ffffffff167c0100000000000000000000000000000000000000000000000000000000028152600401808273ffffffffffffffffffffffffffffffffffffffff1673ffffffffffffffffffffffffffffffffffffffff168152602001915050602060405180830381600087803b15801561228157600080fd5b505af1158015612295573d6000803e3d6000fd5b505050506040513d60208110156122ab57600080fd5b8101908080519060200190929190505050101561233c573273ffffffffffffffffffffffffffffffffffffffff167f05d2f3e2f3e0a781082873c332729f77c49ee05d757ef3d1e5058fa0d883f36f6408000000078873ffffffffffffffffffffffffffffffffffffffff16604051808381526020018281526020019250505060405180910390a260009250612871565b5b73eeeeeeeeeeeeeeeeeeeeeeeeeeeeeeeeeeeeeeee73ffffffffffffffffffffffffffffffffffffffff168873ffffffffffffffffffffffffffffffffffffffff16141515612519578773ffffffffffffffffffffffffffffffffffffffff166323b872dd33308a6040518463ffffffff167c0100000000000000000000000000000000000000000000000000000000028152600401808473ffffffffffffffffffffffffffffffffffffffff1673ffffffffffffffffffffffffffffffffffffffff1681526020018373ffffffffffffffffffffffffffffffffffffffff1673ffffffffffffffffffffffffffffffffffffffff1681526020018281526020019350505050602060405180830381600087803b15801561245d57600080fd5b505af1158015612471573d6000803e3d6000fd5b505050506040513d602081101561248757600080fd5b81019080805190602001909291905050501515612518573273ffffffffffffffffffffffffffffffffffffffff167f05d2f3e2f3e0a781082873c332729f77c49ee05d757ef3d1e5058fa0d883f36f6408000000088a73ffffffffffffffffffffffffffffffffffffffff16604051808381526020018281526020019250505060405180910390a260009250612871565b5b73eeeeeeeeeeeeeeeeeeeeeeeeeeeeeeeeeeeeeeee73ffffffffffffffffffffffffffffffffffffffff168673ffffffffffffffffffffffffffffffffffffffff16141561261b578473ffffffffffffffffffffffffffffffffffffffff166108fc829081150290604051600060405180830381858888f193505050501515612616573273ffffffffffffffffffffffffffffffffffffffff167f05d2f3e2f3e0a781082873c332729f77c49ee05d757ef3d1e5058fa0d883f36f6408000000098773ffffffffffffffffffffffffffffffffffffffff16604051808381526020018281526020019250505060405180910390a260009250612871565b61277a565b8573ffffffffffffffffffffffffffffffffffffffff1663a9059cbb86836040518363ffffffff167c0100000000000000000000000000000000000000000000000000000000028152600401808373ffffffffffffffffffffffffffffffffffffffff1673ffffffffffffffffffffffffffffffffffffffff16815260200182815260200192505050602060405180830381600087803b1580156126be57600080fd5b505af11580156126d2573d6000803e3d6000fd5b505050506040513d60208110156126e857600080fd5b81019080805190602001909291905050501515612779573273ffffffffffffffffffffffffffffffffffffffff167f05d2f3e2f3e0a781082873c332729f77c49ee05d757ef3d1e5058fa0d883f36f64080000000a8773ffffffffffffffffffffffffffffffffffffffff16604051808381526020018281526020019250505060405180910390a260009250612871565b5b3273ffffffffffffffffffffffffffffffffffffffff167fea83add4cfea01dd7d3aae33782a37a6b98fe4b92ff715371be191def51cad0d898989858a604051808673ffffffffffffffffffffffffffffffffffffffff1673ffffffffffffffffffffffffffffffffffffffff1681526020018581526020018473ffffffffffffffffffffffffffffffffffffffff1673ffffffffffffffffffffffffffffffffffffffff1681526020018381526020018273ffffffffffffffffffffffffffffffffffffffff1673ffffffffffffffffffffffffffffffffffffffff1681526020019550505050505060405180910390a2600192505b505095945050505050565b6000612886612a92565b600260008686604051808373ffffffffffffffffffffffffffffffffffffffff1673ffffffffffffffffffffffffffffffffffffffff166c010000000000000000000000000281526014018273ffffffffffffffffffffffffffffffffffffffff1673ffffffffffffffffffffffffffffffffffffffff166c010000000000000000000000000281526014019250505060405180910390206000191660001916815260200190815260200160002060408051908101604052908160008201548152602001600182015481525050905060008160000151141561296b5760009150612976565b828160200151101591505b509392505050565b6000612988612a92565b600260008686604051808373ffffffffffffffffffffffffffffffffffffffff1673ffffffffffffffffffffffffffffffffffffffff166c010000000000000000000000000281526014018273ffffffffffffffffffffffffffffffffffffffff1673ffffffffffffffffffffffffffffffffffffffff166c0100000000000000000000000002815260140192505050604051809103902060001916600019168152602001908152602001600020604080519081016040529081600082015481526020016001820154815250509050600081600001511415612a6d5760009150612a8a565b8281602001511015612a825760009150612a8a565b806000015191505b509392505050565b6040805190810160405280600081526020016000815250905600a165627a7a723058207f35013602dc279203c882ba906125ff614430201d73ebcc9fcb52b55c46943c0029",
  "source": "pragma solidity ^0.4.8;\r\n\r\n// https://github.com/ethereum/EIPs/issues/20\r\ncontract ERC20 {\r\n    function totalSupply() constant returns (uint totalSupply);\r\n    function balanceOf(address _owner) constant returns (uint balance);\r\n    function transfer(address _to, uint _value) returns (bool success);\r\n    function transferFrom(address _from, address _to, uint _value) returns (bool success);\r\n    function approve(address _spender, uint _value) returns (bool success);\r\n    function allowance(address _owner, address _spender) constant returns (uint remaining);\r\n    event Transfer(address indexed _from, address indexed _to, uint _value);\r\n    event Approval(address indexed _owner, address indexed _spender, uint _value);\r\n}\r\n\r\n\r\n\r\n\r\ncontract KyberReserve {\r\n    address public reserveOwner;\r\n    address public kyberNetwork;\r\n    ERC20 constant public ETH_TOKEN_ADDRESS = ERC20(0x00eeeeeeeeeeeeeeeeeeeeeeeeeeeeeeeeeeeeeeee);\r\n    uint  constant PRECISION = (10**18);\r\n    bool public tradeEnabled;\r\n\r\n    struct ConversionRate {\r\n        uint rate;\r\n        uint expirationBlock;\r\n    }\r\n    \r\n    mapping(bytes32=>ConversionRate) pairConversionRate;\r\n    \r\n\r\n    function KyberReserve( address _kyberNetwork, address _reserveOwner ) {\r\n        kyberNetwork = _kyberNetwork;\r\n        reserveOwner = _reserveOwner;\r\n        tradeEnabled = true;\r\n    }\r\n    \r\n    \r\n    function isPairListed( ERC20 source, ERC20 dest, uint blockNumber ) internal constant returns(bool) {\r\n        ConversionRate memory rateInfo = pairConversionRate[sha3(source,dest)];\r\n        if( rateInfo.rate == 0 ) return false;\r\n        return rateInfo.expirationBlock >= blockNumber;\r\n    }\r\n    \r\n    function getConversionRate( ERC20 source, ERC20 dest, uint blockNumber ) internal constant returns(uint) {\r\n        ConversionRate memory rateInfo = pairConversionRate[sha3(source,dest)];\r\n        if( rateInfo.rate == 0 ) return 0;\r\n        if( rateInfo.expirationBlock < blockNumber ) return 0;\r\n        return rateInfo.rate;\r\n    }\r\n    \r\n    event ErrorReport( address indexed origin, uint error, uint errorInfo );\r\n    event DoTrade( address indexed origin, address source, uint sourceAmount, address destToken, uint destAmount, address destAddress );\r\n    \r\n    function doTrade( ERC20 sourceToken,\r\n                      uint sourceAmount,\r\n                      ERC20 destToken,\r\n                      address destAddress,\r\n                      bool validate ) internal returns(bool) {\r\n\r\n        // can skip validation if done at kyber network level        \r\n        if( validate ) {\r\n            if( ! isPairListed( sourceToken, destToken, block.number ) ) {\r\n                // pair is not listed\r\n                ErrorReport( tx.origin, 0x800000001, 0 );\r\n                return false;\r\n                \r\n            }\r\n            if( sourceToken == ETH_TOKEN_ADDRESS ) {\r\n                if( msg.value != sourceAmount ) {\r\n                    // msg.value != sourceAmmount\r\n                    ErrorReport( tx.origin, 0x800000002, msg.value );\r\n                    return false;\r\n                }\r\n            }\r\n            else if( msg.value > 0 ) {\r\n                // msg.value must be 0\r\n                ErrorReport( tx.origin, 0x800000003, msg.value );\r\n                return false;\r\n            }\r\n            else if( sourceToken.allowance(msg.sender, this ) < sourceAmount ) {\r\n                // allowance is not enough\r\n                ErrorReport( tx.origin, 0x800000004, sourceToken.allowance(msg.sender, this ) );\r\n                return false;\r\n            }\r\n        }\r\n        \r\n        uint conversionRate = getConversionRate( sourceToken, destToken, block.number );\r\n        // TODO - safe multiplication\r\n        uint destAmount = (conversionRate * sourceAmount) / PRECISION;\r\n\r\n        // sanity check            \r\n        if( destAmount == 0 ) {\r\n            // unexpected error: dest amount is 0\r\n            ErrorReport( tx.origin, 0x800000005, 0 );\r\n            return false;\r\n        }\r\n        \r\n        // check for sufficient balance\r\n        if( destToken == ETH_TOKEN_ADDRESS ) {\r\n            if( this.balance < destAmount ) {\r\n                // insufficient ether balance\r\n                ErrorReport( tx.origin, 0x800000006, destAmount );\r\n                return false;\r\n            }\r\n        }\r\n        else {\r\n            if( destToken.balanceOf(this) < destAmount ) {\r\n                // insufficient token balance\r\n                ErrorReport( tx.origin, 0x800000007, uint(destToken) );\r\n                return false;\r\n            }\r\n        }\r\n        \r\n        // collect source tokens\r\n        if( sourceToken != ETH_TOKEN_ADDRESS ) {\r\n            if( ! sourceToken.transferFrom(msg.sender,this,sourceAmount) ) {\r\n                // transfer from source token failed\r\n                ErrorReport( tx.origin, 0x800000008, uint(sourceToken) );\r\n                return false;\r\n            }\r\n        }\r\n        \r\n        // send dest tokens\r\n        if( destToken == ETH_TOKEN_ADDRESS ) {\r\n            if( ! destAddress.send(destAmount) ) {\r\n                // transfer ether to dest failed\r\n                ErrorReport( tx.origin, 0x800000009, uint(destAddress) );\r\n                return false;\r\n            }\r\n        }\r\n        else {\r\n            if( ! destToken.transfer(destAddress, destAmount) ) {\r\n                // transfer token to dest failed\r\n                ErrorReport( tx.origin, 0x80000000a, uint(destAddress) );\r\n                return false;\r\n            }\r\n        }\r\n        \r\n        DoTrade( tx.origin, sourceToken, sourceAmount, destToken, destAmount, destAddress );        \r\n        \r\n        return true;\r\n    }\r\n    \r\n    function trade( ERC20 sourceToken,\r\n                    uint sourceAmount,\r\n                    ERC20 destToken,\r\n                    address destAddress,\r\n                    bool validate ) payable returns(bool) {\r\n\r\n        if( ! tradeEnabled ) {\r\n            // trade is not enabled\r\n            ErrorReport( tx.origin, 0x810000000, 0 );\r\n            if( msg.value > 0 ) {\r\n                if( ! msg.sender.send(msg.value) ) throw;\r\n            }\r\n            return false;\r\n        }\r\n\r\n        if( msg.sender != kyberNetwork ) {\r\n            // sender must be kyber network\r\n            ErrorReport( tx.origin, 0x810000001, uint(msg.sender) );\r\n            if( msg.value > 0 ) {\r\n                if( ! msg.sender.send(msg.value) ) throw;\r\n            }\r\n            \r\n            return false;\r\n        }\r\n        \r\n        if( ! doTrade( sourceToken, sourceAmount, destToken, destAddress, validate ) ) {\r\n            // do trade failed\r\n            ErrorReport( tx.origin, 0x810000002, 0 );\r\n            if( msg.value > 0 ) {\r\n                if( ! msg.sender.send(msg.value) ) throw;\r\n            }\r\n            return false;\r\n        }\r\n        \r\n        ErrorReport( tx.origin, 0, 0 );\r\n        return true;\r\n    }\r\n    \r\n    event SetRate( ERC20 source, ERC20 dest, uint rate, uint expiryBlock );\r\n    function setRate( ERC20[] sources, ERC20[] dests, uint[] conversionRates, uint[] expiryBlocks, bool vaildate ) returns(bool) {\r\n        if( msg.sender != reserveOwner ) {\r\n            // sender must be reserve owner\r\n            ErrorReport( tx.origin, 0x820000000, uint(msg.sender) );\r\n            return false;\r\n        }\r\n        \r\n        if( vaildate ) {\r\n            if( ( sources.length != dests.length ) ||\r\n                ( sources.length != conversionRates.length ) ||\r\n                ( sources.length != expiryBlocks.length ) ) {\r\n                // arrays length are not identical\r\n                ErrorReport( tx.origin, 0x820000001, 0 );\r\n                return false;\r\n            }\r\n        }\r\n        \r\n        for( uint i = 0 ; i < sources.length ; i++ ) {\r\n            SetRate( sources[i], dests[i], conversionRates[i], expiryBlocks[i] );\r\n            pairConversionRate[sha3(sources[i],dests[i])] = ConversionRate( conversionRates[i], expiryBlocks[i] );               \r\n        }\r\n        \r\n        ErrorReport( tx.origin, 0, 0 );\r\n        return true;\r\n    }\r\n\r\n    event EnableTrade( bool enable );\r\n    function enableTrade( bool enable ) returns(bool){\r\n        if( msg.sender != reserveOwner ) {\r\n            // sender must be reserve owner\r\n            ErrorReport( tx.origin, 0x830000000, uint(msg.sender) );\r\n            return false;\r\n        }\r\n        \r\n        tradeEnabled = enable;\r\n        ErrorReport( tx.origin, 0, 0 );\r\n        EnableTrade( enable );\r\n        \r\n        return true;\r\n    }\r\n\r\n    event DepositToken( ERC20 token, uint amount );\r\n    function() payable {\r\n        DepositToken( ETH_TOKEN_ADDRESS, msg.value );        \r\n    }\r\n    function depositEther( ) payable returns(bool) {\r\n        /*\r\n        if( msg.sender != reserveOwner ) {\r\n            // sender must be reserve owner\r\n            ErrorReport( tx.origin, 0x840000000, uint(msg.sender) );\r\n            if( msg.value > 0 ) {\r\n                if( ! msg.sender.send(msg.value) ) throw;\r\n            }\r\n            return false;\r\n        }*/\r\n        \r\n        ErrorReport( tx.origin, 0, 0 );        \r\n        \r\n        DepositToken( ETH_TOKEN_ADDRESS, msg.value );\r\n        return true;\r\n    }\r\n    \r\n    function depositToken( ERC20 token, uint amount ) returns(bool) {\r\n        /*\r\n        if( msg.sender != reserveOwner ) {\r\n            // sender must be reserve owner\r\n            ErrorReport( tx.origin, 0x850000000, uint(msg.sender) );\r\n            return false;\r\n        }*/\r\n\r\n        if( token.allowance( msg.sender, this ) < amount ) {\r\n            // allowence is smaller then amount\r\n            ErrorReport( tx.origin, 0x850000001, token.allowance( msg.sender, this ) );\r\n            return false;\r\n        }\r\n        \r\n        if( ! token.transferFrom(msg.sender, this, amount ) ) {\r\n            // transfer from failed\r\n            ErrorReport( tx.origin, 0x850000002, uint(token) );\r\n            return false;\r\n        }\r\n        \r\n        DepositToken( token, amount );\r\n        return true;\r\n    }\r\n    \r\n    \r\n    event Withdraw( ERC20 token, uint amount, address destination );\r\n    function withdraw( ERC20 token, uint amount, address destination ) returns(bool) {\r\n        if( msg.sender != reserveOwner ) {\r\n            // sender must be reserve owner\r\n            ErrorReport( tx.origin, 0x860000000, uint(msg.sender) );\r\n            return false;\r\n        }\r\n        \r\n        if( token == ETH_TOKEN_ADDRESS ) {\r\n            if( ! destination.send(amount) ) throw;\r\n        }\r\n        else if( ! token.transfer(destination,amount) ) {\r\n            // transfer to reserve owner failed\r\n            ErrorReport( tx.origin, 0x860000001, uint(token) );\r\n            return false;\r\n        }\r\n        \r\n        ErrorReport( tx.origin, 0, 0 );\r\n        Withdraw( token, amount, destination );\r\n    }\r\n    \r\n    \r\n    ////////////////////////////////////////////////////////////////////////////\r\n    /// status functions ///////////////////////////////////////////////////////\r\n    ////////////////////////////////////////////////////////////////////////////\r\n    \r\n    // returns (rate, block expiration, balance of dest)    \r\n    function getPairInfo( ERC20 source, ERC20 dest ) constant returns(uint rate, uint expBlock, uint balance) {\r\n        ConversionRate memory rateInfo = pairConversionRate[sha3(source,dest)];\r\n        balance = 0;\r\n        if( dest == ETH_TOKEN_ADDRESS ) balance = this.balance;\r\n        else balance = dest.balanceOf(this);\r\n        \r\n        expBlock = rateInfo.expirationBlock;\r\n        rate = rateInfo.rate;\r\n    }\r\n    \r\n    function getBalance( ERC20 token ) constant returns(uint){\r\n        if( token == ETH_TOKEN_ADDRESS ) return this.balance;\r\n        else return token.balanceOf(this);\r\n    }\r\n}\r\n\r\n\r\n\r\n\r\n\r\n////////////////////////////////////////////////////////////////////////////////////////////////////////\r\n\r\ncontract KyberNetwork {\r\n    address admin;\r\n    ERC20 constant public ETH_TOKEN_ADDRESS = ERC20(0x00eeeeeeeeeeeeeeeeeeeeeeeeeeeeeeeeeeeeeeee);\r\n    uint  constant PRECISION = (10**18);\r\n    uint  constant EPSILON = (1000);\r\n    KyberReserve[] public reserves;\r\n    \r\n    mapping(address=>mapping(bytes32=>bool)) perReserveListedPairs;\r\n\r\n    event ErrorReport( address indexed origin, uint error, uint errorInfo );\r\n    \r\n    function KyberNetwork( address _admin ) {\r\n        admin = _admin;\r\n    }\r\n    \r\n    \r\n    struct KyberReservePairInfo {\r\n        uint rate;\r\n        uint reserveBalance;\r\n        KyberReserve reserve;    \r\n    }\r\n    \r\n    function getNumReserves() constant returns(uint){\r\n        return reserves.length;    \r\n    }\r\n    \r\n    function getRate( ERC20 source, ERC20 dest, uint reserveIndex ) constant returns(uint rate, uint expBlock, uint balance){\r\n        (rate,expBlock, balance) = reserves[reserveIndex].getPairInfo(source,dest);\r\n    }\r\n    \r\n    function findBestRate( ERC20 source, ERC20 dest ) internal constant returns(KyberReservePairInfo) {\r\n    \r\n        uint bestRate;\r\n        uint bestReserveBalance = 0;\r\n        uint numReserves = reserves.length;\r\n        \r\n        KyberReservePairInfo memory output;\r\n        KyberReserve bestReserve = KyberReserve(0);\r\n        \r\n        for( uint i = 0 ; i < numReserves ; i++ ) {\r\n            var (rate,expBlock,balance) = reserves[i].getPairInfo(source,dest); \r\n            /*uint[3] memory info = \r\n            uint rate = info[0];\r\n            uint expBlock = info[1];\r\n            uint balance = info[2];*/\r\n        \r\n            \r\n            if( (expBlock >= block.number) && (balance > 0) && (rate > bestRate ) ) {\r\n                bestRate = rate;\r\n                bestReserveBalance = balance;\r\n                bestReserve = reserves[i];\r\n            }\r\n        }\r\n        output.rate = bestRate;\r\n        output.reserveBalance = bestReserveBalance;\r\n        output.reserve = bestReserve;\r\n        \r\n        return output;\r\n    }\r\n    \r\n    function doSingleTrade( ERC20 source, uint amount,\r\n                            ERC20 dest, address destAddress,\r\n                            KyberReserve reserve,\r\n                            bool validate ) internal returns(bool) {\r\n                                \r\n        uint callValue = 0;\r\n        if( source == ETH_TOKEN_ADDRESS ) callValue = amount;\r\n        else {\r\n            // take source tokens to this contract\r\n            source.transferFrom(msg.sender, this, amount);\r\n            \r\n            // let reserve use network tokens\r\n            source.approve( reserve, amount);\r\n        }\r\n\r\n        if( ! reserve.trade.value(callValue)(source, amount, dest, destAddress, validate ) ) {\r\n            if( source != ETH_TOKEN_ADDRESS ) {\r\n                // reset tokens for reserve\r\n                if( ! source.approve( reserve, 0) ) throw;\r\n                \r\n                // send tokens back to sender\r\n                if( ! source.transfer(msg.sender, amount) ) throw;\r\n            }\r\n            \r\n            return false;\r\n        }\r\n        \r\n        if( source != ETH_TOKEN_ADDRESS ) {\r\n            source.approve( reserve, 0);\r\n        }\r\n                \r\n        return true;\r\n    }\r\n    \r\n    function validateTradeInput( ERC20 source, uint srcAmount ) constant internal returns(bool) {\r\n        if( source != ETH_TOKEN_ADDRESS && msg.value > 0 ) {\r\n            // shouldn't send ether for token exchange\r\n            ErrorReport( tx.origin, 0x85000000, 0 );\r\n            return false;\r\n        }\r\n        else if( source == ETH_TOKEN_ADDRESS && msg.value != srcAmount ) {\r\n            // amount of sent ether is wrong\r\n            ErrorReport( tx.origin, 0x85000001, msg.value );\r\n            return false;\r\n        }\r\n        else if( source != ETH_TOKEN_ADDRESS ) {\r\n            if( source.allowance(msg.sender,this) < srcAmount ) {\r\n                // insufficient allowane\r\n                ErrorReport( tx.origin, 0x85000002, msg.value );\r\n                return false;\r\n            }\r\n        }\r\n        \r\n        return true;\r\n        \r\n    }\r\n    \r\n    event Trade( address indexed sender, ERC20 source, ERC20 dest, uint actualSrcAmount, uint actualDestAmount );\r\n    \r\n    struct ReserveTokenInfo {\r\n        uint rate;\r\n        KyberReserve reserve;\r\n        uint reserveBalance;\r\n    }\r\n    \r\n    struct TradeInfo {\r\n        uint convertedDestAmount;\r\n        uint remainedSourceAmount;\r\n        \r\n        bool tradeFailed;\r\n    }\r\n    \r\n    function trade( ERC20 source, uint srcAmount,\r\n                    ERC20 dest, address destAddress, uint maxDestAmount,\r\n                    uint minConversionRate,\r\n                    bool throwOnFailure ) payable returns(uint) {\r\n\r\n        if( ! validateTradeInput( source, srcAmount ) ) {\r\n            // invalid input\r\n            ErrorReport( tx.origin, 0x86000000, 0 );\r\n            if( msg.value > 0 ) {\r\n                if( ! msg.sender.send(msg.value) ) throw;\r\n            }\r\n            if( throwOnFailure ) throw;\r\n            return 0;\r\n        }\r\n\r\n        TradeInfo memory tradeInfo = TradeInfo(0,srcAmount,false);\r\n        \r\n        while( (tradeInfo.convertedDestAmount + EPSILON < maxDestAmount) && (tradeInfo.remainedSourceAmount > EPSILON) ) {\r\n            KyberReservePairInfo memory reserveInfo = findBestRate(source,dest);\r\n\r\n            if( reserveInfo.rate == 0 || reserveInfo.rate < minConversionRate ) {\r\n                tradeInfo.tradeFailed = true;\r\n                // no more available funds\r\n                ErrorReport( tx.origin, 0x86000001, tradeInfo.remainedSourceAmount );\r\n                break;\r\n            }\r\n            \r\n            uint actualSrcAmount = tradeInfo.remainedSourceAmount;\r\n            // TODO - overflow check\r\n            uint actualDestAmount = (actualSrcAmount * reserveInfo.rate) / PRECISION;\r\n            if( actualDestAmount > reserveInfo.reserveBalance ) {\r\n                actualDestAmount = reserveInfo.reserveBalance;\r\n            }\r\n            if( actualDestAmount + tradeInfo.convertedDestAmount > maxDestAmount ) {\r\n                actualDestAmount = maxDestAmount - tradeInfo.convertedDestAmount;\r\n            }\r\n            \r\n            // TODO - check overflow\r\n            actualSrcAmount = (actualDestAmount * PRECISION)/reserveInfo.rate;\r\n\r\n            // do actual trade\r\n            if( ! doSingleTrade( source,actualSrcAmount, dest, destAddress, reserveInfo.reserve, true ) ) {\r\n                tradeInfo.tradeFailed = true;\r\n                // trade failed in reserve\r\n                ErrorReport( tx.origin, 0x86000002, tradeInfo.remainedSourceAmount );\r\n                break;\r\n            }\r\n\r\n            // todo - check overflow\r\n            tradeInfo.remainedSourceAmount -= actualSrcAmount;\r\n            tradeInfo.convertedDestAmount += actualDestAmount;\r\n        }\r\n        \r\n        if( tradeInfo.tradeFailed ) {\r\n            if( throwOnFailure ) throw;\r\n            if( msg.value > 0 ) {\r\n                if( ! msg.sender.send(msg.value) ) throw;\r\n            }\r\n            \r\n            return 0;\r\n        }\r\n        else {\r\n            ErrorReport( tx.origin, 0, 0 );\r\n            if( tradeInfo.remainedSourceAmount > 0 && source == ETH_TOKEN_ADDRESS ) {\r\n                if( ! msg.sender.send(tradeInfo.remainedSourceAmount) ) throw;\r\n            }\r\n            \r\n            \r\n            \r\n            ErrorReport( tx.origin, 0, 0 );\r\n            Trade( msg.sender, source, dest, srcAmount-tradeInfo.remainedSourceAmount, tradeInfo.convertedDestAmount );\r\n            return tradeInfo.convertedDestAmount;\r\n        }\r\n    }\r\n    \r\n    event AddReserve( KyberReserve reserve, bool add );\r\n    function addReserve( KyberReserve reserve, bool add ) {\r\n        if( msg.sender != admin ) {\r\n            // only admin can add to reserve\r\n            ErrorReport( msg.sender, 0x87000000, 0 );\r\n            return;\r\n        }\r\n        \r\n        if( add ) {\r\n            reserves.push(reserve);\r\n            AddReserve( reserve, true );\r\n        }\r\n        else {\r\n            // will have truble if more than 50k reserves...\r\n            for( uint i = 0 ; i < reserves.length ; i++ ) {\r\n                if( reserves[i] == reserve ) {\r\n                    if( reserves.length == 0 ) return;\r\n                    reserves[i] = reserves[--reserves.length];\r\n                    AddReserve( reserve, false );\r\n                    break;\r\n                }    \r\n            }\r\n        }\r\n        \r\n        ErrorReport( msg.sender, 0, 0 );\r\n    }\r\n    \r\n    event ListPairsForReserve( address reserve, ERC20 source, ERC20 dest, bool add );\r\n    function listPairForReserve(address reserve, ERC20 source, ERC20 dest, bool add ) {\r\n        if( msg.sender != admin ) {\r\n            // only admin can add to reserve\r\n            ErrorReport( msg.sender, 0x88000000, 0 );\r\n            return;\r\n        }\r\n        \r\n        (perReserveListedPairs[reserve])[sha3(source,dest)] = add;\r\n        ListPairsForReserve( reserve, source, dest, add );\r\n        ErrorReport( tx.origin, 0, 0 );        \r\n    }\r\n    \r\n    function upgrade( address newAddress ) {\r\n        // TODO\r\n        newAddress; // unused warning\r\n        throw;\r\n    }\r\n    \r\n    // should be called off chain with as much gas as needed\r\n    function getReserves( ) constant returns(KyberReserve[]) {\r\n        return reserves;\r\n    }\r\n\r\n    function getBalance( ERC20 token ) constant returns(uint){\r\n        if( token == ETH_TOKEN_ADDRESS ) return this.balance;\r\n        else return token.balanceOf(this);\r\n    }\r\n}",
  "sourcePath": "C:\\Users\\Emilio\\Documents\\GitHub\\Microstaking\\contracts\\vendor\\KyberNetwork_old.sol",
  "compiler": {
    "name": "solc",
    "version": "0.4.24+commit.e67f0147.Emscripten.clang"
  },
  "schemaVersion": "2.0.1",
  "updatedAt": "2018-08-24T09:32:55.114Z"
}