{
  "contractName": "KyberNetwork",
  "abi": [
    {
      "constant": true,
      "inputs": [],
      "name": "ETH_TOKEN_ADDRESS",
      "outputs": [
        {
          "name": "",
          "type": "address"
        }
      ],
      "payable": false,
      "stateMutability": "view",
      "type": "function"
    },
    {
      "constant": true,
      "inputs": [
        {
          "name": "",
          "type": "uint256"
        }
      ],
      "name": "reserves",
      "outputs": [
        {
          "name": "",
          "type": "address"
        }
      ],
      "payable": false,
      "stateMutability": "view",
      "type": "function"
    },
    {
      "inputs": [
        {
          "name": "_admin",
          "type": "address"
        }
      ],
      "payable": false,
      "stateMutability": "nonpayable",
      "type": "constructor"
    },
    {
      "anonymous": false,
      "inputs": [
        {
          "indexed": true,
          "name": "origin",
          "type": "address"
        },
        {
          "indexed": false,
          "name": "error",
          "type": "uint256"
        },
        {
          "indexed": false,
          "name": "errorInfo",
          "type": "uint256"
        }
      ],
      "name": "ErrorReport",
      "type": "event"
    },
    {
      "anonymous": false,
      "inputs": [
        {
          "indexed": true,
          "name": "sender",
          "type": "address"
        },
        {
          "indexed": false,
          "name": "source",
          "type": "address"
        },
        {
          "indexed": false,
          "name": "dest",
          "type": "address"
        },
        {
          "indexed": false,
          "name": "actualSrcAmount",
          "type": "uint256"
        },
        {
          "indexed": false,
          "name": "actualDestAmount",
          "type": "uint256"
        }
      ],
      "name": "Trade",
      "type": "event"
    },
    {
      "anonymous": false,
      "inputs": [
        {
          "indexed": false,
          "name": "reserve",
          "type": "address"
        },
        {
          "indexed": false,
          "name": "add",
          "type": "bool"
        }
      ],
      "name": "AddReserve",
      "type": "event"
    },
    {
      "anonymous": false,
      "inputs": [
        {
          "indexed": false,
          "name": "reserve",
          "type": "address"
        },
        {
          "indexed": false,
          "name": "source",
          "type": "address"
        },
        {
          "indexed": false,
          "name": "dest",
          "type": "address"
        },
        {
          "indexed": false,
          "name": "add",
          "type": "bool"
        }
      ],
      "name": "ListPairsForReserve",
      "type": "event"
    },
    {
      "constant": true,
      "inputs": [],
      "name": "getNumReserves",
      "outputs": [
        {
          "name": "",
          "type": "uint256"
        }
      ],
      "payable": false,
      "stateMutability": "view",
      "type": "function"
    },
    {
      "constant": true,
      "inputs": [
        {
          "name": "source",
          "type": "address"
        },
        {
          "name": "dest",
          "type": "address"
        },
        {
          "name": "reserveIndex",
          "type": "uint256"
        }
      ],
      "name": "getRate",
      "outputs": [
        {
          "name": "rate",
          "type": "uint256"
        },
        {
          "name": "expBlock",
          "type": "uint256"
        },
        {
          "name": "balance",
          "type": "uint256"
        }
      ],
      "payable": false,
      "stateMutability": "view",
      "type": "function"
    },
    {
      "constant": false,
      "inputs": [
        {
          "name": "source",
          "type": "address"
        },
        {
          "name": "srcAmount",
          "type": "uint256"
        },
        {
          "name": "dest",
          "type": "address"
        },
        {
          "name": "destAddress",
          "type": "address"
        },
        {
          "name": "maxDestAmount",
          "type": "uint256"
        },
        {
          "name": "minConversionRate",
          "type": "uint256"
        },
        {
          "name": "throwOnFailure",
          "type": "bool"
        }
      ],
      "name": "trade",
      "outputs": [
        {
          "name": "",
          "type": "uint256"
        }
      ],
      "payable": true,
      "stateMutability": "payable",
      "type": "function"
    },
    {
      "constant": false,
      "inputs": [
        {
          "name": "reserve",
          "type": "address"
        },
        {
          "name": "add",
          "type": "bool"
        }
      ],
      "name": "addReserve",
      "outputs": [],
      "payable": false,
      "stateMutability": "nonpayable",
      "type": "function"
    },
    {
      "constant": false,
      "inputs": [
        {
          "name": "reserve",
          "type": "address"
        },
        {
          "name": "source",
          "type": "address"
        },
        {
          "name": "dest",
          "type": "address"
        },
        {
          "name": "add",
          "type": "bool"
        }
      ],
      "name": "listPairForReserve",
      "outputs": [],
      "payable": false,
      "stateMutability": "nonpayable",
      "type": "function"
    },
    {
      "constant": false,
      "inputs": [
        {
          "name": "newAddress",
          "type": "address"
        }
      ],
      "name": "upgrade",
      "outputs": [],
      "payable": false,
      "stateMutability": "nonpayable",
      "type": "function"
    },
    {
      "constant": true,
      "inputs": [],
      "name": "getReserves",
      "outputs": [
        {
          "name": "",
          "type": "address[]"
        }
      ],
      "payable": false,
      "stateMutability": "view",
      "type": "function"
    },
    {
      "constant": true,
      "inputs": [
        {
          "name": "token",
          "type": "address"
        }
      ],
      "name": "getBalance",
      "outputs": [
        {
          "name": "",
          "type": "uint256"
        }
      ],
      "payable": false,
      "stateMutability": "view",
      "type": "function"
    }
  ],
  "bytecode": "0x608060405234801561001057600080fd5b5060405160208061227383398101806040528101908080519060200190929190505050806000806101000a81548173ffffffffffffffffffffffffffffffffffffffff021916908373ffffffffffffffffffffffffffffffffffffffff160217905550506121f0806100836000396000f3006080604052600436106100a4576000357c0100000000000000000000000000000000000000000000000000000000900463ffffffff16806303141fcd146100a95780630900f010146101385780630902f1ac1461017b5780631878d1f1146101e75780638334278d1461023e57806393766a57146102ab578063a0d7bb1b1461035f578063cfff25bb146103ae578063e56c174b146103d9578063f8b2cb4f14610468575b600080fd5b3480156100b557600080fd5b50610136600480360381019080803573ffffffffffffffffffffffffffffffffffffffff169060200190929190803573ffffffffffffffffffffffffffffffffffffffff169060200190929190803573ffffffffffffffffffffffffffffffffffffffff1690602001909291908035151590602001909291905050506104bf565b005b34801561014457600080fd5b50610179600480360381019080803573ffffffffffffffffffffffffffffffffffffffff1690602001909291905050506107ad565b005b34801561018757600080fd5b506101906107b2565b6040518080602001828103825283818151815260200191508051906020019060200280838360005b838110156101d35780820151818401526020810190506101b8565b505050509050019250505060405180910390f35b3480156101f357600080fd5b506101fc610840565b604051808273ffffffffffffffffffffffffffffffffffffffff1673ffffffffffffffffffffffffffffffffffffffff16815260200191505060405180910390f35b34801561024a57600080fd5b5061026960048036038101908080359060200190929190505050610858565b604051808273ffffffffffffffffffffffffffffffffffffffff1673ffffffffffffffffffffffffffffffffffffffff16815260200191505060405180910390f35b610349600480360381019080803573ffffffffffffffffffffffffffffffffffffffff16906020019092919080359060200190929190803573ffffffffffffffffffffffffffffffffffffffff169060200190929190803573ffffffffffffffffffffffffffffffffffffffff1690602001909291908035906020019092919080359060200190929190803515159060200190929190505050610896565b6040518082815260200191505060405180910390f35b34801561036b57600080fd5b506103ac600480360381019080803573ffffffffffffffffffffffffffffffffffffffff169060200190929190803515159060200190929190505050610e02565b005b3480156103ba57600080fd5b506103c36111b0565b6040518082815260200191505060405180910390f35b3480156103e557600080fd5b50610444600480360381019080803573ffffffffffffffffffffffffffffffffffffffff169060200190929190803573ffffffffffffffffffffffffffffffffffffffff169060200190929190803590602001909291905050506111bd565b60405180848152602001838152602001828152602001935050505060405180910390f35b34801561047457600080fd5b506104a9600480360381019080803573ffffffffffffffffffffffffffffffffffffffff16906020019092919050505061132e565b6040518082815260200191505060405180910390f35b6000809054906101000a900473ffffffffffffffffffffffffffffffffffffffff1673ffffffffffffffffffffffffffffffffffffffff163373ffffffffffffffffffffffffffffffffffffffff16141515610575573373ffffffffffffffffffffffffffffffffffffffff167f05d2f3e2f3e0a781082873c332729f77c49ee05d757ef3d1e5058fa0d883f36f63880000006000604051808381526020018281526020019250505060405180910390a26107a7565b80600260008673ffffffffffffffffffffffffffffffffffffffff1673ffffffffffffffffffffffffffffffffffffffff16815260200190815260200160002060008585604051808373ffffffffffffffffffffffffffffffffffffffff1673ffffffffffffffffffffffffffffffffffffffff166c010000000000000000000000000281526014018273ffffffffffffffffffffffffffffffffffffffff1673ffffffffffffffffffffffffffffffffffffffff166c010000000000000000000000000281526014019250505060405180910390206000191660001916815260200190815260200160002060006101000a81548160ff0219169083151502179055507ffec320f49e655894166933e8c35f01cdb484dc623f4fb53441633fbedb78dba884848484604051808573ffffffffffffffffffffffffffffffffffffffff1673ffffffffffffffffffffffffffffffffffffffff1681526020018473ffffffffffffffffffffffffffffffffffffffff1673ffffffffffffffffffffffffffffffffffffffff1681526020018373ffffffffffffffffffffffffffffffffffffffff1673ffffffffffffffffffffffffffffffffffffffff1681526020018215151515815260200194505050505060405180910390a13273ffffffffffffffffffffffffffffffffffffffff167f05d2f3e2f3e0a781082873c332729f77c49ee05d757ef3d1e5058fa0d883f36f600080604051808381526020018281526020019250505060405180910390a25b50505050565b600080fd5b6060600180548060200260200160405190810160405280929190818152602001828054801561083657602002820191906000526020600020905b8160009054906101000a900473ffffffffffffffffffffffffffffffffffffffff1673ffffffffffffffffffffffffffffffffffffffff16815260200190600101908083116107ec575b5050505050905090565b73eeeeeeeeeeeeeeeeeeeeeeeeeeeeeeeeeeeeeeee81565b60018181548110151561086757fe5b906000526020600020016000915054906101000a900473ffffffffffffffffffffffffffffffffffffffff1681565b60006108a0612117565b6108a861213b565b6000806108b58c8c611475565b1515610974573273ffffffffffffffffffffffffffffffffffffffff167f05d2f3e2f3e0a781082873c332729f77c49ee05d757ef3d1e5058fa0d883f36f63860000006000604051808381526020018281526020019250505060405180910390a26000341115610960573373ffffffffffffffffffffffffffffffffffffffff166108fc349081150290604051600060405180830381858888f19350505050151561095f57600080fd5b5b851561096b57600080fd5b60009450610df3565b606060405190810160405280600081526020018c81526020016000151581525093505b876103e88560000151011080156109b357506103e88460200151115b15610b70576109c28c8b6117b0565b92506000836000015114806109da5750868360000151105b15610a535760018460400190151590811515815250503273ffffffffffffffffffffffffffffffffffffffff167f05d2f3e2f3e0a781082873c332729f77c49ee05d757ef3d1e5058fa0d883f36f63860000018660200151604051808381526020018281526020019250505060405180910390a2610b70565b83602001519150670de0b6b3a764000083600001518302811515610a7357fe5b0490508260200151811115610a8a57826020015190505b87846000015182011115610aa2578360000151880390505b8260000151670de0b6b3a76400008202811515610abb57fe5b049150610ad18c838c8c87604001516001611a14565b1515610b4b5760018460400190151590811515815250503273ffffffffffffffffffffffffffffffffffffffff167f05d2f3e2f3e0a781082873c332729f77c49ee05d757ef3d1e5058fa0d883f36f63860000028660200151604051808381526020018281526020019250505060405180910390a2610b70565b8184602001818151039150818152505080846000018181510191508181525050610997565b836040015115610bd8578515610b8557600080fd5b6000341115610bcf573373ffffffffffffffffffffffffffffffffffffffff166108fc349081150290604051600060405180830381858888f193505050501515610bce57600080fd5b5b60009450610df3565b3273ffffffffffffffffffffffffffffffffffffffff167f05d2f3e2f3e0a781082873c332729f77c49ee05d757ef3d1e5058fa0d883f36f600080604051808381526020018281526020019250505060405180910390a260008460200151118015610c82575073eeeeeeeeeeeeeeeeeeeeeeeeeeeeeeeeeeeeeeee73ffffffffffffffffffffffffffffffffffffffff168c73ffffffffffffffffffffffffffffffffffffffff16145b15610ccc573373ffffffffffffffffffffffffffffffffffffffff166108fc85602001519081150290604051600060405180830381858888f193505050501515610ccb57600080fd5b5b3273ffffffffffffffffffffffffffffffffffffffff167f05d2f3e2f3e0a781082873c332729f77c49ee05d757ef3d1e5058fa0d883f36f600080604051808381526020018281526020019250505060405180910390a23373ffffffffffffffffffffffffffffffffffffffff167fec0d3e799aa270a144d7e3be084ccfc657450e33ecea1b1a4154c95cedaae5c38d8c87602001518f038860000151604051808573ffffffffffffffffffffffffffffffffffffffff1673ffffffffffffffffffffffffffffffffffffffff1681526020018473ffffffffffffffffffffffffffffffffffffffff1673ffffffffffffffffffffffffffffffffffffffff16815260200183815260200182815260200194505050505060405180910390a2836000015194505b50505050979650505050505050565b60008060009054906101000a900473ffffffffffffffffffffffffffffffffffffffff1673ffffffffffffffffffffffffffffffffffffffff163373ffffffffffffffffffffffffffffffffffffffff16141515610eba573373ffffffffffffffffffffffffffffffffffffffff167f05d2f3e2f3e0a781082873c332729f77c49ee05d757ef3d1e5058fa0d883f36f63870000006000604051808381526020018281526020019250505060405180910390a26111ab565b8115610f9b5760018390806001815401808255809150509060018203906000526020600020016000909192909190916101000a81548173ffffffffffffffffffffffffffffffffffffffff021916908373ffffffffffffffffffffffffffffffffffffffff160217905550507f7fb71e76e724c32dea5a20b853f4e3a5878fde6e20ced9c2d40ec3257cb49416836001604051808373ffffffffffffffffffffffffffffffffffffffff1673ffffffffffffffffffffffffffffffffffffffff168152602001821515151581526020019250505060405180910390a1611153565b600090505b600180549050811015611152578273ffffffffffffffffffffffffffffffffffffffff16600182815481101515610fd357fe5b9060005260206000200160009054906101000a900473ffffffffffffffffffffffffffffffffffffffff1673ffffffffffffffffffffffffffffffffffffffff161415611145576000600180549050141561102d576111ab565b60018080546001900390816110429190612173565b81548110151561104e57fe5b9060005260206000200160009054906101000a900473ffffffffffffffffffffffffffffffffffffffff1660018281548110151561108857fe5b9060005260206000200160006101000a81548173ffffffffffffffffffffffffffffffffffffffff021916908373ffffffffffffffffffffffffffffffffffffffff1602179055507f7fb71e76e724c32dea5a20b853f4e3a5878fde6e20ced9c2d40ec3257cb49416836000604051808373ffffffffffffffffffffffffffffffffffffffff1673ffffffffffffffffffffffffffffffffffffffff168152602001821515151581526020019250505060405180910390a1611152565b8080600101915050610fa0565b5b3373ffffffffffffffffffffffffffffffffffffffff167f05d2f3e2f3e0a781082873c332729f77c49ee05d757ef3d1e5058fa0d883f36f600080604051808381526020018281526020019250505060405180910390a25b505050565b6000600180549050905090565b60008060006001848154811015156111d157fe5b9060005260206000200160009054906101000a900473ffffffffffffffffffffffffffffffffffffffff1673ffffffffffffffffffffffffffffffffffffffff1663400f7a1e87876040518363ffffffff167c0100000000000000000000000000000000000000000000000000000000028152600401808373ffffffffffffffffffffffffffffffffffffffff1673ffffffffffffffffffffffffffffffffffffffff1681526020018273ffffffffffffffffffffffffffffffffffffffff1673ffffffffffffffffffffffffffffffffffffffff16815260200192505050606060405180830381600087803b1580156112ca57600080fd5b505af11580156112de573d6000803e3d6000fd5b505050506040513d60608110156112f457600080fd5b8101908080519060200190929190805190602001909291908051906020019092919050505080935081945082955050505093509350939050565b600073eeeeeeeeeeeeeeeeeeeeeeeeeeeeeeeeeeeeeeee73ffffffffffffffffffffffffffffffffffffffff168273ffffffffffffffffffffffffffffffffffffffff161415611397573073ffffffffffffffffffffffffffffffffffffffff16319050611470565b8173ffffffffffffffffffffffffffffffffffffffff166370a08231306040518263ffffffff167c0100000000000000000000000000000000000000000000000000000000028152600401808273ffffffffffffffffffffffffffffffffffffffff1673ffffffffffffffffffffffffffffffffffffffff168152602001915050602060405180830381600087803b15801561143257600080fd5b505af1158015611446573d6000803e3d6000fd5b505050506040513d602081101561145c57600080fd5b810190808051906020019092919050505090505b919050565b600073eeeeeeeeeeeeeeeeeeeeeeeeeeeeeeeeeeeeeeee73ffffffffffffffffffffffffffffffffffffffff168373ffffffffffffffffffffffffffffffffffffffff16141580156114c75750600034115b15611530573273ffffffffffffffffffffffffffffffffffffffff167f05d2f3e2f3e0a781082873c332729f77c49ee05d757ef3d1e5058fa0d883f36f63850000006000604051808381526020018281526020019250505060405180910390a2600090506117aa565b73eeeeeeeeeeeeeeeeeeeeeeeeeeeeeeeeeeeeeeee73ffffffffffffffffffffffffffffffffffffffff168373ffffffffffffffffffffffffffffffffffffffff1614801561157f5750813414155b156115e7573273ffffffffffffffffffffffffffffffffffffffff167f05d2f3e2f3e0a781082873c332729f77c49ee05d757ef3d1e5058fa0d883f36f638500000134604051808381526020018281526020019250505060405180910390a2600090506117aa565b73eeeeeeeeeeeeeeeeeeeeeeeeeeeeeeeeeeeeeeee73ffffffffffffffffffffffffffffffffffffffff168373ffffffffffffffffffffffffffffffffffffffff161415156117a557818373ffffffffffffffffffffffffffffffffffffffff1663dd62ed3e33306040518363ffffffff167c0100000000000000000000000000000000000000000000000000000000028152600401808373ffffffffffffffffffffffffffffffffffffffff1673ffffffffffffffffffffffffffffffffffffffff1681526020018273ffffffffffffffffffffffffffffffffffffffff1673ffffffffffffffffffffffffffffffffffffffff16815260200192505050602060405180830381600087803b15801561170057600080fd5b505af1158015611714573d6000803e3d6000fd5b505050506040513d602081101561172a57600080fd5b810190808051906020019092919050505010156117a4573273ffffffffffffffffffffffffffffffffffffffff167f05d2f3e2f3e0a781082873c332729f77c49ee05d757ef3d1e5058fa0d883f36f638500000234604051808381526020018281526020019250505060405180910390a2600090506117aa565b5b600190505b92915050565b6117b861213b565b60008060006117c561213b565b6000806000806000809750600180549050965060009450600093505b868410156119b6576001848154811015156117f857fe5b9060005260206000200160009054906101000a900473ffffffffffffffffffffffffffffffffffffffff1673ffffffffffffffffffffffffffffffffffffffff1663400f7a1e8d8d6040518363ffffffff167c0100000000000000000000000000000000000000000000000000000000028152600401808373ffffffffffffffffffffffffffffffffffffffff1673ffffffffffffffffffffffffffffffffffffffff1681526020018273ffffffffffffffffffffffffffffffffffffffff1673ffffffffffffffffffffffffffffffffffffffff16815260200192505050606060405180830381600087803b1580156118f157600080fd5b505af1158015611905573d6000803e3d6000fd5b505050506040513d606081101561191b57600080fd5b810190808051906020019092919080519060200190929190805190602001909291905050509250925092504382101580156119565750600081115b801561196157508883115b156119a95782985080975060018481548110151561197b57fe5b9060005260206000200160009054906101000a900473ffffffffffffffffffffffffffffffffffffffff1694505b83806001019450506117e1565b888660000181815250508786602001818152505084866040019073ffffffffffffffffffffffffffffffffffffffff16908173ffffffffffffffffffffffffffffffffffffffff168152505085995050505050505050505092915050565b6000806000905073eeeeeeeeeeeeeeeeeeeeeeeeeeeeeeeeeeeeeeee73ffffffffffffffffffffffffffffffffffffffff168873ffffffffffffffffffffffffffffffffffffffff161415611a6b57869050611c5e565b8773ffffffffffffffffffffffffffffffffffffffff166323b872dd33308a6040518463ffffffff167c0100000000000000000000000000000000000000000000000000000000028152600401808473ffffffffffffffffffffffffffffffffffffffff1673ffffffffffffffffffffffffffffffffffffffff1681526020018373ffffffffffffffffffffffffffffffffffffffff1673ffffffffffffffffffffffffffffffffffffffff1681526020018281526020019350505050602060405180830381600087803b158015611b4257600080fd5b505af1158015611b56573d6000803e3d6000fd5b505050506040513d6020811015611b6c57600080fd5b8101908080519060200190929190505050508773ffffffffffffffffffffffffffffffffffffffff1663095ea7b385896040518363ffffffff167c0100000000000000000000000000000000000000000000000000000000028152600401808373ffffffffffffffffffffffffffffffffffffffff1673ffffffffffffffffffffffffffffffffffffffff16815260200182815260200192505050602060405180830381600087803b158015611c2157600080fd5b505af1158015611c35573d6000803e3d6000fd5b505050506040513d6020811015611c4b57600080fd5b8101908080519060200190929190505050505b8373ffffffffffffffffffffffffffffffffffffffff16630363b1e1828a8a8a8a896040518763ffffffff167c0100000000000000000000000000000000000000000000000000000000028152600401808673ffffffffffffffffffffffffffffffffffffffff1673ffffffffffffffffffffffffffffffffffffffff1681526020018581526020018473ffffffffffffffffffffffffffffffffffffffff1673ffffffffffffffffffffffffffffffffffffffff1681526020018373ffffffffffffffffffffffffffffffffffffffff1673ffffffffffffffffffffffffffffffffffffffff16815260200182151515158152602001955050505050506020604051808303818588803b158015611d7557600080fd5b505af1158015611d89573d6000803e3d6000fd5b50505050506040513d6020811015611da057600080fd5b81019080805190602001909291905050501515611fdd5773eeeeeeeeeeeeeeeeeeeeeeeeeeeeeeeeeeeeeeee73ffffffffffffffffffffffffffffffffffffffff168873ffffffffffffffffffffffffffffffffffffffff16141515611fd4578773ffffffffffffffffffffffffffffffffffffffff1663095ea7b38560006040518363ffffffff167c0100000000000000000000000000000000000000000000000000000000028152600401808373ffffffffffffffffffffffffffffffffffffffff1673ffffffffffffffffffffffffffffffffffffffff16815260200182815260200192505050602060405180830381600087803b158015611ea457600080fd5b505af1158015611eb8573d6000803e3d6000fd5b505050506040513d6020811015611ece57600080fd5b81019080805190602001909291905050501515611eea57600080fd5b8773ffffffffffffffffffffffffffffffffffffffff1663a9059cbb33896040518363ffffffff167c0100000000000000000000000000000000000000000000000000000000028152600401808373ffffffffffffffffffffffffffffffffffffffff1673ffffffffffffffffffffffffffffffffffffffff16815260200182815260200192505050602060405180830381600087803b158015611f8d57600080fd5b505af1158015611fa1573d6000803e3d6000fd5b505050506040513d6020811015611fb757600080fd5b81019080805190602001909291905050501515611fd357600080fd5b5b6000915061210c565b73eeeeeeeeeeeeeeeeeeeeeeeeeeeeeeeeeeeeeeee73ffffffffffffffffffffffffffffffffffffffff168873ffffffffffffffffffffffffffffffffffffffff16141515612107578773ffffffffffffffffffffffffffffffffffffffff1663095ea7b38560006040518363ffffffff167c0100000000000000000000000000000000000000000000000000000000028152600401808373ffffffffffffffffffffffffffffffffffffffff1673ffffffffffffffffffffffffffffffffffffffff16815260200182815260200192505050602060405180830381600087803b1580156120ca57600080fd5b505af11580156120de573d6000803e3d6000fd5b505050506040513d60208110156120f457600080fd5b8101908080519060200190929190505050505b600191505b509695505050505050565b60606040519081016040528060008152602001600081526020016000151581525090565b6060604051908101604052806000815260200160008152602001600073ffffffffffffffffffffffffffffffffffffffff1681525090565b81548183558181111561219a57818360005260206000209182019101612199919061219f565b5b505050565b6121c191905b808211156121bd5760008160009055506001016121a5565b5090565b905600a165627a7a72305820b27c39da27e80b2b31248c5df3cff81696b1b91f923ea63a51155857407e93a60029",
  "source": "pragma solidity ^0.4.8;\r\n\r\n// https://github.com/ethereum/EIPs/issues/20\r\ncontract ERC20 {\r\n    function totalSupply() constant returns (uint totalSupply);\r\n    function balanceOf(address _owner) constant returns (uint balance);\r\n    function transfer(address _to, uint _value) returns (bool success);\r\n    function transferFrom(address _from, address _to, uint _value) returns (bool success);\r\n    function approve(address _spender, uint _value) returns (bool success);\r\n    function allowance(address _owner, address _spender) constant returns (uint remaining);\r\n    event Transfer(address indexed _from, address indexed _to, uint _value);\r\n    event Approval(address indexed _owner, address indexed _spender, uint _value);\r\n}\r\n\r\n\r\n\r\n\r\ncontract KyberReserve {\r\n    address public reserveOwner;\r\n    address public kyberNetwork;\r\n    ERC20 constant public ETH_TOKEN_ADDRESS = ERC20(0x00eeeeeeeeeeeeeeeeeeeeeeeeeeeeeeeeeeeeeeee);\r\n    uint  constant PRECISION = (10**18);\r\n    bool public tradeEnabled;\r\n\r\n    struct ConversionRate {\r\n        uint rate;\r\n        uint expirationBlock;\r\n    }\r\n    \r\n    mapping(bytes32=>ConversionRate) pairConversionRate;\r\n    \r\n\r\n    function KyberReserve( address _kyberNetwork, address _reserveOwner ) {\r\n        kyberNetwork = _kyberNetwork;\r\n        reserveOwner = _reserveOwner;\r\n        tradeEnabled = true;\r\n    }\r\n    \r\n    \r\n    function isPairListed( ERC20 source, ERC20 dest, uint blockNumber ) internal constant returns(bool) {\r\n        ConversionRate memory rateInfo = pairConversionRate[sha3(source,dest)];\r\n        if( rateInfo.rate == 0 ) return false;\r\n        return rateInfo.expirationBlock >= blockNumber;\r\n    }\r\n    \r\n    function getConversionRate( ERC20 source, ERC20 dest, uint blockNumber ) internal constant returns(uint) {\r\n        ConversionRate memory rateInfo = pairConversionRate[sha3(source,dest)];\r\n        if( rateInfo.rate == 0 ) return 0;\r\n        if( rateInfo.expirationBlock < blockNumber ) return 0;\r\n        return rateInfo.rate;\r\n    }\r\n    \r\n    event ErrorReport( address indexed origin, uint error, uint errorInfo );\r\n    event DoTrade( address indexed origin, address source, uint sourceAmount, address destToken, uint destAmount, address destAddress );\r\n    \r\n    function doTrade( ERC20 sourceToken,\r\n                      uint sourceAmount,\r\n                      ERC20 destToken,\r\n                      address destAddress,\r\n                      bool validate ) internal returns(bool) {\r\n\r\n        // can skip validation if done at kyber network level        \r\n        if( validate ) {\r\n            if( ! isPairListed( sourceToken, destToken, block.number ) ) {\r\n                // pair is not listed\r\n                ErrorReport( tx.origin, 0x800000001, 0 );\r\n                return false;\r\n                \r\n            }\r\n            if( sourceToken == ETH_TOKEN_ADDRESS ) {\r\n                if( msg.value != sourceAmount ) {\r\n                    // msg.value != sourceAmmount\r\n                    ErrorReport( tx.origin, 0x800000002, msg.value );\r\n                    return false;\r\n                }\r\n            }\r\n            else if( msg.value > 0 ) {\r\n                // msg.value must be 0\r\n                ErrorReport( tx.origin, 0x800000003, msg.value );\r\n                return false;\r\n            }\r\n            else if( sourceToken.allowance(msg.sender, this ) < sourceAmount ) {\r\n                // allowance is not enough\r\n                ErrorReport( tx.origin, 0x800000004, sourceToken.allowance(msg.sender, this ) );\r\n                return false;\r\n            }\r\n        }\r\n        \r\n        uint conversionRate = getConversionRate( sourceToken, destToken, block.number );\r\n        // TODO - safe multiplication\r\n        uint destAmount = (conversionRate * sourceAmount) / PRECISION;\r\n\r\n        // sanity check            \r\n        if( destAmount == 0 ) {\r\n            // unexpected error: dest amount is 0\r\n            ErrorReport( tx.origin, 0x800000005, 0 );\r\n            return false;\r\n        }\r\n        \r\n        // check for sufficient balance\r\n        if( destToken == ETH_TOKEN_ADDRESS ) {\r\n            if( this.balance < destAmount ) {\r\n                // insufficient ether balance\r\n                ErrorReport( tx.origin, 0x800000006, destAmount );\r\n                return false;\r\n            }\r\n        }\r\n        else {\r\n            if( destToken.balanceOf(this) < destAmount ) {\r\n                // insufficient token balance\r\n                ErrorReport( tx.origin, 0x800000007, uint(destToken) );\r\n                return false;\r\n            }\r\n        }\r\n        \r\n        // collect source tokens\r\n        if( sourceToken != ETH_TOKEN_ADDRESS ) {\r\n            if( ! sourceToken.transferFrom(msg.sender,this,sourceAmount) ) {\r\n                // transfer from source token failed\r\n                ErrorReport( tx.origin, 0x800000008, uint(sourceToken) );\r\n                return false;\r\n            }\r\n        }\r\n        \r\n        // send dest tokens\r\n        if( destToken == ETH_TOKEN_ADDRESS ) {\r\n            if( ! destAddress.send(destAmount) ) {\r\n                // transfer ether to dest failed\r\n                ErrorReport( tx.origin, 0x800000009, uint(destAddress) );\r\n                return false;\r\n            }\r\n        }\r\n        else {\r\n            if( ! destToken.transfer(destAddress, destAmount) ) {\r\n                // transfer token to dest failed\r\n                ErrorReport( tx.origin, 0x80000000a, uint(destAddress) );\r\n                return false;\r\n            }\r\n        }\r\n        \r\n        DoTrade( tx.origin, sourceToken, sourceAmount, destToken, destAmount, destAddress );        \r\n        \r\n        return true;\r\n    }\r\n    \r\n    function trade( ERC20 sourceToken,\r\n                    uint sourceAmount,\r\n                    ERC20 destToken,\r\n                    address destAddress,\r\n                    bool validate ) payable returns(bool) {\r\n\r\n        if( ! tradeEnabled ) {\r\n            // trade is not enabled\r\n            ErrorReport( tx.origin, 0x810000000, 0 );\r\n            if( msg.value > 0 ) {\r\n                if( ! msg.sender.send(msg.value) ) throw;\r\n            }\r\n            return false;\r\n        }\r\n\r\n        if( msg.sender != kyberNetwork ) {\r\n            // sender must be kyber network\r\n            ErrorReport( tx.origin, 0x810000001, uint(msg.sender) );\r\n            if( msg.value > 0 ) {\r\n                if( ! msg.sender.send(msg.value) ) throw;\r\n            }\r\n            \r\n            return false;\r\n        }\r\n        \r\n        if( ! doTrade( sourceToken, sourceAmount, destToken, destAddress, validate ) ) {\r\n            // do trade failed\r\n            ErrorReport( tx.origin, 0x810000002, 0 );\r\n            if( msg.value > 0 ) {\r\n                if( ! msg.sender.send(msg.value) ) throw;\r\n            }\r\n            return false;\r\n        }\r\n        \r\n        ErrorReport( tx.origin, 0, 0 );\r\n        return true;\r\n    }\r\n    \r\n    event SetRate( ERC20 source, ERC20 dest, uint rate, uint expiryBlock );\r\n    function setRate( ERC20[] sources, ERC20[] dests, uint[] conversionRates, uint[] expiryBlocks, bool vaildate ) returns(bool) {\r\n        if( msg.sender != reserveOwner ) {\r\n            // sender must be reserve owner\r\n            ErrorReport( tx.origin, 0x820000000, uint(msg.sender) );\r\n            return false;\r\n        }\r\n        \r\n        if( vaildate ) {\r\n            if( ( sources.length != dests.length ) ||\r\n                ( sources.length != conversionRates.length ) ||\r\n                ( sources.length != expiryBlocks.length ) ) {\r\n                // arrays length are not identical\r\n                ErrorReport( tx.origin, 0x820000001, 0 );\r\n                return false;\r\n            }\r\n        }\r\n        \r\n        for( uint i = 0 ; i < sources.length ; i++ ) {\r\n            SetRate( sources[i], dests[i], conversionRates[i], expiryBlocks[i] );\r\n            pairConversionRate[sha3(sources[i],dests[i])] = ConversionRate( conversionRates[i], expiryBlocks[i] );               \r\n        }\r\n        \r\n        ErrorReport( tx.origin, 0, 0 );\r\n        return true;\r\n    }\r\n\r\n    event EnableTrade( bool enable );\r\n    function enableTrade( bool enable ) returns(bool){\r\n        if( msg.sender != reserveOwner ) {\r\n            // sender must be reserve owner\r\n            ErrorReport( tx.origin, 0x830000000, uint(msg.sender) );\r\n            return false;\r\n        }\r\n        \r\n        tradeEnabled = enable;\r\n        ErrorReport( tx.origin, 0, 0 );\r\n        EnableTrade( enable );\r\n        \r\n        return true;\r\n    }\r\n\r\n    event DepositToken( ERC20 token, uint amount );\r\n    function() payable {\r\n        DepositToken( ETH_TOKEN_ADDRESS, msg.value );        \r\n    }\r\n    function depositEther( ) payable returns(bool) {\r\n        /*\r\n        if( msg.sender != reserveOwner ) {\r\n            // sender must be reserve owner\r\n            ErrorReport( tx.origin, 0x840000000, uint(msg.sender) );\r\n            if( msg.value > 0 ) {\r\n                if( ! msg.sender.send(msg.value) ) throw;\r\n            }\r\n            return false;\r\n        }*/\r\n        \r\n        ErrorReport( tx.origin, 0, 0 );        \r\n        \r\n        DepositToken( ETH_TOKEN_ADDRESS, msg.value );\r\n        return true;\r\n    }\r\n    \r\n    function depositToken( ERC20 token, uint amount ) returns(bool) {\r\n        /*\r\n        if( msg.sender != reserveOwner ) {\r\n            // sender must be reserve owner\r\n            ErrorReport( tx.origin, 0x850000000, uint(msg.sender) );\r\n            return false;\r\n        }*/\r\n\r\n        if( token.allowance( msg.sender, this ) < amount ) {\r\n            // allowence is smaller then amount\r\n            ErrorReport( tx.origin, 0x850000001, token.allowance( msg.sender, this ) );\r\n            return false;\r\n        }\r\n        \r\n        if( ! token.transferFrom(msg.sender, this, amount ) ) {\r\n            // transfer from failed\r\n            ErrorReport( tx.origin, 0x850000002, uint(token) );\r\n            return false;\r\n        }\r\n        \r\n        DepositToken( token, amount );\r\n        return true;\r\n    }\r\n    \r\n    \r\n    event Withdraw( ERC20 token, uint amount, address destination );\r\n    function withdraw( ERC20 token, uint amount, address destination ) returns(bool) {\r\n        if( msg.sender != reserveOwner ) {\r\n            // sender must be reserve owner\r\n            ErrorReport( tx.origin, 0x860000000, uint(msg.sender) );\r\n            return false;\r\n        }\r\n        \r\n        if( token == ETH_TOKEN_ADDRESS ) {\r\n            if( ! destination.send(amount) ) throw;\r\n        }\r\n        else if( ! token.transfer(destination,amount) ) {\r\n            // transfer to reserve owner failed\r\n            ErrorReport( tx.origin, 0x860000001, uint(token) );\r\n            return false;\r\n        }\r\n        \r\n        ErrorReport( tx.origin, 0, 0 );\r\n        Withdraw( token, amount, destination );\r\n    }\r\n    \r\n    \r\n    ////////////////////////////////////////////////////////////////////////////\r\n    /// status functions ///////////////////////////////////////////////////////\r\n    ////////////////////////////////////////////////////////////////////////////\r\n    \r\n    // returns (rate, block expiration, balance of dest)    \r\n    function getPairInfo( ERC20 source, ERC20 dest ) constant returns(uint rate, uint expBlock, uint balance) {\r\n        ConversionRate memory rateInfo = pairConversionRate[sha3(source,dest)];\r\n        balance = 0;\r\n        if( dest == ETH_TOKEN_ADDRESS ) balance = this.balance;\r\n        else balance = dest.balanceOf(this);\r\n        \r\n        expBlock = rateInfo.expirationBlock;\r\n        rate = rateInfo.rate;\r\n    }\r\n    \r\n    function getBalance( ERC20 token ) constant returns(uint){\r\n        if( token == ETH_TOKEN_ADDRESS ) return this.balance;\r\n        else return token.balanceOf(this);\r\n    }\r\n}\r\n\r\n\r\n\r\n\r\n\r\n////////////////////////////////////////////////////////////////////////////////////////////////////////\r\n\r\ncontract KyberNetwork {\r\n    address admin;\r\n    ERC20 constant public ETH_TOKEN_ADDRESS = ERC20(0x00eeeeeeeeeeeeeeeeeeeeeeeeeeeeeeeeeeeeeeee);\r\n    uint  constant PRECISION = (10**18);\r\n    uint  constant EPSILON = (1000);\r\n    KyberReserve[] public reserves;\r\n    \r\n    mapping(address=>mapping(bytes32=>bool)) perReserveListedPairs;\r\n\r\n    event ErrorReport( address indexed origin, uint error, uint errorInfo );\r\n    \r\n    function KyberNetwork( address _admin ) {\r\n        admin = _admin;\r\n    }\r\n    \r\n    \r\n    struct KyberReservePairInfo {\r\n        uint rate;\r\n        uint reserveBalance;\r\n        KyberReserve reserve;    \r\n    }\r\n    \r\n    function getNumReserves() constant returns(uint){\r\n        return reserves.length;    \r\n    }\r\n    \r\n    function getRate( ERC20 source, ERC20 dest, uint reserveIndex ) constant returns(uint rate, uint expBlock, uint balance){\r\n        (rate,expBlock, balance) = reserves[reserveIndex].getPairInfo(source,dest);\r\n    }\r\n    \r\n    function findBestRate( ERC20 source, ERC20 dest ) internal constant returns(KyberReservePairInfo) {\r\n    \r\n        uint bestRate;\r\n        uint bestReserveBalance = 0;\r\n        uint numReserves = reserves.length;\r\n        \r\n        KyberReservePairInfo memory output;\r\n        KyberReserve bestReserve = KyberReserve(0);\r\n        \r\n        for( uint i = 0 ; i < numReserves ; i++ ) {\r\n            var (rate,expBlock,balance) = reserves[i].getPairInfo(source,dest); \r\n            /*uint[3] memory info = \r\n            uint rate = info[0];\r\n            uint expBlock = info[1];\r\n            uint balance = info[2];*/\r\n        \r\n            \r\n            if( (expBlock >= block.number) && (balance > 0) && (rate > bestRate ) ) {\r\n                bestRate = rate;\r\n                bestReserveBalance = balance;\r\n                bestReserve = reserves[i];\r\n            }\r\n        }\r\n        output.rate = bestRate;\r\n        output.reserveBalance = bestReserveBalance;\r\n        output.reserve = bestReserve;\r\n        \r\n        return output;\r\n    }\r\n    \r\n    function doSingleTrade( ERC20 source, uint amount,\r\n                            ERC20 dest, address destAddress,\r\n                            KyberReserve reserve,\r\n                            bool validate ) internal returns(bool) {\r\n                                \r\n        uint callValue = 0;\r\n        if( source == ETH_TOKEN_ADDRESS ) callValue = amount;\r\n        else {\r\n            // take source tokens to this contract\r\n            source.transferFrom(msg.sender, this, amount);\r\n            \r\n            // let reserve use network tokens\r\n            source.approve( reserve, amount);\r\n        }\r\n\r\n        if( ! reserve.trade.value(callValue)(source, amount, dest, destAddress, validate ) ) {\r\n            if( source != ETH_TOKEN_ADDRESS ) {\r\n                // reset tokens for reserve\r\n                if( ! source.approve( reserve, 0) ) throw;\r\n                \r\n                // send tokens back to sender\r\n                if( ! source.transfer(msg.sender, amount) ) throw;\r\n            }\r\n            \r\n            return false;\r\n        }\r\n        \r\n        if( source != ETH_TOKEN_ADDRESS ) {\r\n            source.approve( reserve, 0);\r\n        }\r\n                \r\n        return true;\r\n    }\r\n    \r\n    function validateTradeInput( ERC20 source, uint srcAmount ) constant internal returns(bool) {\r\n        if( source != ETH_TOKEN_ADDRESS && msg.value > 0 ) {\r\n            // shouldn't send ether for token exchange\r\n            ErrorReport( tx.origin, 0x85000000, 0 );\r\n            return false;\r\n        }\r\n        else if( source == ETH_TOKEN_ADDRESS && msg.value != srcAmount ) {\r\n            // amount of sent ether is wrong\r\n            ErrorReport( tx.origin, 0x85000001, msg.value );\r\n            return false;\r\n        }\r\n        else if( source != ETH_TOKEN_ADDRESS ) {\r\n            if( source.allowance(msg.sender,this) < srcAmount ) {\r\n                // insufficient allowane\r\n                ErrorReport( tx.origin, 0x85000002, msg.value );\r\n                return false;\r\n            }\r\n        }\r\n        \r\n        return true;\r\n        \r\n    }\r\n    \r\n    event Trade( address indexed sender, ERC20 source, ERC20 dest, uint actualSrcAmount, uint actualDestAmount );\r\n    \r\n    struct ReserveTokenInfo {\r\n        uint rate;\r\n        KyberReserve reserve;\r\n        uint reserveBalance;\r\n    }\r\n    \r\n    struct TradeInfo {\r\n        uint convertedDestAmount;\r\n        uint remainedSourceAmount;\r\n        \r\n        bool tradeFailed;\r\n    }\r\n    \r\n    function trade( ERC20 source, uint srcAmount,\r\n                    ERC20 dest, address destAddress, uint maxDestAmount,\r\n                    uint minConversionRate,\r\n                    bool throwOnFailure ) payable returns(uint) {\r\n\r\n        if( ! validateTradeInput( source, srcAmount ) ) {\r\n            // invalid input\r\n            ErrorReport( tx.origin, 0x86000000, 0 );\r\n            if( msg.value > 0 ) {\r\n                if( ! msg.sender.send(msg.value) ) throw;\r\n            }\r\n            if( throwOnFailure ) throw;\r\n            return 0;\r\n        }\r\n\r\n        TradeInfo memory tradeInfo = TradeInfo(0,srcAmount,false);\r\n        \r\n        while( (tradeInfo.convertedDestAmount + EPSILON < maxDestAmount) && (tradeInfo.remainedSourceAmount > EPSILON) ) {\r\n            KyberReservePairInfo memory reserveInfo = findBestRate(source,dest);\r\n\r\n            if( reserveInfo.rate == 0 || reserveInfo.rate < minConversionRate ) {\r\n                tradeInfo.tradeFailed = true;\r\n                // no more available funds\r\n                ErrorReport( tx.origin, 0x86000001, tradeInfo.remainedSourceAmount );\r\n                break;\r\n            }\r\n            \r\n            uint actualSrcAmount = tradeInfo.remainedSourceAmount;\r\n            // TODO - overflow check\r\n            uint actualDestAmount = (actualSrcAmount * reserveInfo.rate) / PRECISION;\r\n            if( actualDestAmount > reserveInfo.reserveBalance ) {\r\n                actualDestAmount = reserveInfo.reserveBalance;\r\n            }\r\n            if( actualDestAmount + tradeInfo.convertedDestAmount > maxDestAmount ) {\r\n                actualDestAmount = maxDestAmount - tradeInfo.convertedDestAmount;\r\n            }\r\n            \r\n            // TODO - check overflow\r\n            actualSrcAmount = (actualDestAmount * PRECISION)/reserveInfo.rate;\r\n\r\n            // do actual trade\r\n            if( ! doSingleTrade( source,actualSrcAmount, dest, destAddress, reserveInfo.reserve, true ) ) {\r\n                tradeInfo.tradeFailed = true;\r\n                // trade failed in reserve\r\n                ErrorReport( tx.origin, 0x86000002, tradeInfo.remainedSourceAmount );\r\n                break;\r\n            }\r\n\r\n            // todo - check overflow\r\n            tradeInfo.remainedSourceAmount -= actualSrcAmount;\r\n            tradeInfo.convertedDestAmount += actualDestAmount;\r\n        }\r\n        \r\n        if( tradeInfo.tradeFailed ) {\r\n            if( throwOnFailure ) throw;\r\n            if( msg.value > 0 ) {\r\n                if( ! msg.sender.send(msg.value) ) throw;\r\n            }\r\n            \r\n            return 0;\r\n        }\r\n        else {\r\n            ErrorReport( tx.origin, 0, 0 );\r\n            if( tradeInfo.remainedSourceAmount > 0 && source == ETH_TOKEN_ADDRESS ) {\r\n                if( ! msg.sender.send(tradeInfo.remainedSourceAmount) ) throw;\r\n            }\r\n            \r\n            \r\n            \r\n            ErrorReport( tx.origin, 0, 0 );\r\n            Trade( msg.sender, source, dest, srcAmount-tradeInfo.remainedSourceAmount, tradeInfo.convertedDestAmount );\r\n            return tradeInfo.convertedDestAmount;\r\n        }\r\n    }\r\n    \r\n    event AddReserve( KyberReserve reserve, bool add );\r\n    function addReserve( KyberReserve reserve, bool add ) {\r\n        if( msg.sender != admin ) {\r\n            // only admin can add to reserve\r\n            ErrorReport( msg.sender, 0x87000000, 0 );\r\n            return;\r\n        }\r\n        \r\n        if( add ) {\r\n            reserves.push(reserve);\r\n            AddReserve( reserve, true );\r\n        }\r\n        else {\r\n            // will have truble if more than 50k reserves...\r\n            for( uint i = 0 ; i < reserves.length ; i++ ) {\r\n                if( reserves[i] == reserve ) {\r\n                    if( reserves.length == 0 ) return;\r\n                    reserves[i] = reserves[--reserves.length];\r\n                    AddReserve( reserve, false );\r\n                    break;\r\n                }    \r\n            }\r\n        }\r\n        \r\n        ErrorReport( msg.sender, 0, 0 );\r\n    }\r\n    \r\n    event ListPairsForReserve( address reserve, ERC20 source, ERC20 dest, bool add );\r\n    function listPairForReserve(address reserve, ERC20 source, ERC20 dest, bool add ) {\r\n        if( msg.sender != admin ) {\r\n            // only admin can add to reserve\r\n            ErrorReport( msg.sender, 0x88000000, 0 );\r\n            return;\r\n        }\r\n        \r\n        (perReserveListedPairs[reserve])[sha3(source,dest)] = add;\r\n        ListPairsForReserve( reserve, source, dest, add );\r\n        ErrorReport( tx.origin, 0, 0 );        \r\n    }\r\n    \r\n    function upgrade( address newAddress ) {\r\n        // TODO\r\n        newAddress; // unused warning\r\n        throw;\r\n    }\r\n    \r\n    // should be called off chain with as much gas as needed\r\n    function getReserves( ) constant returns(KyberReserve[]) {\r\n        return reserves;\r\n    }\r\n\r\n    function getBalance( ERC20 token ) constant returns(uint){\r\n        if( token == ETH_TOKEN_ADDRESS ) return this.balance;\r\n        else return token.balanceOf(this);\r\n    }\r\n}",
  "sourcePath": "C:\\Users\\Emilio\\Documents\\GitHub\\Microstaking\\contracts\\vendor\\KyberNetwork_old.sol",
  "compiler": {
    "name": "solc",
    "version": "0.4.24+commit.e67f0147.Emscripten.clang"
  },
  "schemaVersion": "2.0.1",
  "updatedAt": "2018-08-06T15:40:57.927Z"
}