{
  "contractName": "MockTokenTrader",
  "abi": [
    {
      "constant": false,
      "inputs": [
        {
          "name": "_token",
          "type": "address"
        },
        {
          "name": "_destinationAddress",
          "type": "address"
        }
      ],
      "name": "tradeTokens",
      "outputs": [
        {
          "name": "noOfTokens",
          "type": "uint256"
        }
      ],
      "payable": true,
      "stateMutability": "payable",
      "type": "function"
    }
  ],
  "bytecode": "0x608060405234801561001057600080fd5b506102de806100206000396000f300608060405260043610610041576000357c0100000000000000000000000000000000000000000000000000000000900463ffffffff168063791c754d14610046575b600080fd5b61009a600480360381019080803573ffffffffffffffffffffffffffffffffffffffff169060200190929190803573ffffffffffffffffffffffffffffffffffffffff1690602001909291905050506100b0565b6040518082815260200191505060405180910390f35b60008273ffffffffffffffffffffffffffffffffffffffff1663095ea7b3306103e834026040518363ffffffff167c0100000000000000000000000000000000000000000000000000000000028152600401808373ffffffffffffffffffffffffffffffffffffffff1673ffffffffffffffffffffffffffffffffffffffff16815260200182815260200192505050602060405180830381600087803b15801561015957600080fd5b505af115801561016d573d6000803e3d6000fd5b505050506040513d602081101561018357600080fd5b8101908080519060200190929190505050508273ffffffffffffffffffffffffffffffffffffffff166323b872dd30336103e834026040518463ffffffff167c0100000000000000000000000000000000000000000000000000000000028152600401808473ffffffffffffffffffffffffffffffffffffffff1673ffffffffffffffffffffffffffffffffffffffff1681526020018373ffffffffffffffffffffffffffffffffffffffff1673ffffffffffffffffffffffffffffffffffffffff1681526020018281526020019350505050602060405180830381600087803b15801561027057600080fd5b505af1158015610284573d6000803e3d6000fd5b505050506040513d602081101561029a57600080fd5b810190808051906020019092919050505050929150505600a165627a7a72305820e144060d61f210d598bea63d92e7bb5e81c41dfd13529341294a4bfa9f0338960029",
  "source": "\npragma solidity ^0.4.18;\n\nimport \"../interfaces/ITokenTrader.sol\";\n\n\ncontract MockTokenTrader is ITokenTrader{\n  \n\n    function tradeTokens(ERC20 _token, address _destinationAddress) external payable returns(uint noOfTokens) {\n        \n        _token.approve(this, msg.value*(1000));\n        _token.transferFrom(this, msg.sender, msg.value*(1000));\n\n    }\n\t\n}",
  "sourcePath": "/home/emilio/code/Microstaking/contracts/Mocks/MockTokenTrader.sol",
  "compiler": {
    "name": "solc",
    "version": "0.4.24+commit.e67f0147.Emscripten.clang"
  },
  "schemaVersion": "2.0.1",
  "updatedAt": "2019-01-28T13:28:33.187Z"
}