{
  "contractName": "MockTokenTrader",
  "abi": [
    {
      "constant": false,
      "inputs": [
        {
          "name": "_token",
          "type": "address"
        },
        {
          "name": "_destinationAddress",
          "type": "address"
        }
      ],
      "name": "tradeTokens",
      "outputs": [
        {
          "name": "noOfTokens",
          "type": "uint256"
        }
      ],
      "payable": true,
      "stateMutability": "payable",
      "type": "function"
    }
  ],
  "bytecode": "0x608060405234801561001057600080fd5b506102dc806100206000396000f300608060405260043610610041576000357c0100000000000000000000000000000000000000000000000000000000900463ffffffff168063791c754d14610046575b600080fd5b61009a600480360381019080803573ffffffffffffffffffffffffffffffffffffffff169060200190929190803573ffffffffffffffffffffffffffffffffffffffff1690602001909291905050506100b0565b6040518082815260200191505060405180910390f35b60008273ffffffffffffffffffffffffffffffffffffffff1663095ea7b330600234026040518363ffffffff167c0100000000000000000000000000000000000000000000000000000000028152600401808373ffffffffffffffffffffffffffffffffffffffff1673ffffffffffffffffffffffffffffffffffffffff16815260200182815260200192505050602060405180830381600087803b15801561015857600080fd5b505af115801561016c573d6000803e3d6000fd5b505050506040513d602081101561018257600080fd5b8101908080519060200190929190505050508273ffffffffffffffffffffffffffffffffffffffff166323b872dd3033600234026040518463ffffffff167c0100000000000000000000000000000000000000000000000000000000028152600401808473ffffffffffffffffffffffffffffffffffffffff1673ffffffffffffffffffffffffffffffffffffffff1681526020018373ffffffffffffffffffffffffffffffffffffffff1673ffffffffffffffffffffffffffffffffffffffff1681526020018281526020019350505050602060405180830381600087803b15801561026e57600080fd5b505af1158015610282573d6000803e3d6000fd5b505050506040513d602081101561029857600080fd5b810190808051906020019092919050505050929150505600a165627a7a72305820080a7afade28abb4280ae87a7a528ca54f2749648e541e5c3870487a09be1e410029",
  "source": "\r\npragma solidity ^0.4.18;\r\n\r\nimport \"../interfaces/TokenTrader.sol\";\r\n\r\n\r\ncontract MockTokenTrader is TokenTrader{\r\n  \r\n\r\n    function tradeTokens(ERC20 _token, address _destinationAddress) external payable returns(uint noOfTokens) {\r\n        \r\n        _token.approve(this, msg.value*2);\r\n        _token.transferFrom(this, msg.sender, msg.value*2);\r\n\r\n    }\r\n\t\r\n}",
  "sourcePath": "C:\\Users\\Emilio\\Documents\\GitHub\\Microstaking\\contracts\\Mocks\\MockTokenTrader.sol",
  "compiler": {
    "name": "solc",
    "version": "0.4.24+commit.e67f0147.Emscripten.clang"
  },
  "schemaVersion": "2.0.1",
  "updatedAt": "2018-08-24T09:32:56.941Z"
}