{
  "contractName": "StakingContract",
  "abi": [
    {
      "constant": true,
      "inputs": [],
      "name": "kyberContract",
      "outputs": [
        {
          "name": "",
          "type": "address"
        }
      ],
      "payable": false,
      "stateMutability": "view",
      "type": "function"
    },
    {
      "constant": true,
      "inputs": [],
      "name": "totalTokenLockedAmount",
      "outputs": [
        {
          "name": "",
          "type": "uint256"
        }
      ],
      "payable": false,
      "stateMutability": "view",
      "type": "function"
    },
    {
      "constant": true,
      "inputs": [],
      "name": "currentRewardAmount",
      "outputs": [
        {
          "name": "",
          "type": "uint256"
        }
      ],
      "payable": false,
      "stateMutability": "view",
      "type": "function"
    },
    {
      "constant": true,
      "inputs": [],
      "name": "totalEthReceived",
      "outputs": [
        {
          "name": "",
          "type": "uint256"
        }
      ],
      "payable": false,
      "stateMutability": "view",
      "type": "function"
    },
    {
      "constant": true,
      "inputs": [],
      "name": "lastRewardDistributionDate",
      "outputs": [
        {
          "name": "",
          "type": "uint256"
        }
      ],
      "payable": false,
      "stateMutability": "view",
      "type": "function"
    },
    {
      "constant": true,
      "inputs": [
        {
          "name": "",
          "type": "uint256"
        }
      ],
      "name": "userStakesAddresses",
      "outputs": [
        {
          "name": "",
          "type": "address"
        }
      ],
      "payable": false,
      "stateMutability": "view",
      "type": "function"
    },
    {
      "constant": true,
      "inputs": [],
      "name": "token",
      "outputs": [
        {
          "name": "",
          "type": "address"
        }
      ],
      "payable": false,
      "stateMutability": "view",
      "type": "function"
    },
    {
      "inputs": [
        {
          "name": "_tokenAddress",
          "type": "address"
        },
        {
          "name": "_kyberContract",
          "type": "address"
        }
      ],
      "payable": false,
      "stateMutability": "nonpayable",
      "type": "constructor"
    },
    {
      "constant": true,
      "inputs": [],
      "name": "getStakesAddresses",
      "outputs": [
        {
          "name": "",
          "type": "address[]"
        }
      ],
      "payable": false,
      "stateMutability": "view",
      "type": "function"
    },
    {
      "constant": true,
      "inputs": [],
      "name": "getUserStakeData",
      "outputs": [
        {
          "name": "stake",
          "type": "uint96"
        },
        {
          "name": "total",
          "type": "uint96"
        },
        {
          "name": "unlockDate",
          "type": "uint64"
        }
      ],
      "payable": false,
      "stateMutability": "view",
      "type": "function"
    },
    {
      "constant": false,
      "inputs": [],
      "name": "withdrawStake",
      "outputs": [],
      "payable": false,
      "stateMutability": "nonpayable",
      "type": "function"
    },
    {
      "constant": false,
      "inputs": [],
      "name": "receive",
      "outputs": [],
      "payable": true,
      "stateMutability": "payable",
      "type": "function"
    },
    {
      "constant": true,
      "inputs": [],
      "name": "calculateGlobalStackSize",
      "outputs": [
        {
          "name": "size",
          "type": "uint256"
        }
      ],
      "payable": false,
      "stateMutability": "view",
      "type": "function"
    },
    {
      "constant": false,
      "inputs": [],
      "name": "calculateRewards",
      "outputs": [],
      "payable": false,
      "stateMutability": "nonpayable",
      "type": "function"
    },
    {
      "constant": false,
      "inputs": [],
      "name": "convert",
      "outputs": [],
      "payable": false,
      "stateMutability": "nonpayable",
      "type": "function"
    }
  ],
  "bytecode": "0x608060405260006002556000600355600060045534801561001f57600080fd5b506040516040806111c58339810180604052810190808051906020019092919080519060200190929190505050600073ffffffffffffffffffffffffffffffffffffffff168273ffffffffffffffffffffffffffffffffffffffff161415151561008857600080fd5b600073ffffffffffffffffffffffffffffffffffffffff168173ffffffffffffffffffffffffffffffffffffffff16141515156100c457600080fd5b81600660006101000a81548173ffffffffffffffffffffffffffffffffffffffff021916908373ffffffffffffffffffffffffffffffffffffffff16021790555080600760006101000a81548173ffffffffffffffffffffffffffffffffffffffff021916908373ffffffffffffffffffffffffffffffffffffffff160217905550505061106e806101576000396000f3006080604052600436106100d0576000357c0100000000000000000000000000000000000000000000000000000000900463ffffffff1680630634dc07146100d557806310f914d31461015a5780632aed1390146101c65780633e50de301461021d5780634800715c146102345780635a4fd6451461025f5780638f68e1281461028a57806391bbdcc7146102b5578063a3e76c0f146102cc578063a9a18dda146102d6578063bed9d86114610301578063c5d8796214610318578063ded036a414610343578063fc0c546a146103b0575b600080fd5b3480156100e157600080fd5b506100ea610407565b60405180846bffffffffffffffffffffffff166bffffffffffffffffffffffff168152602001836bffffffffffffffffffffffff166bffffffffffffffffffffffff1681526020018267ffffffffffffffff1667ffffffffffffffff168152602001935050505060405180910390f35b34801561016657600080fd5b5061016f6104ac565b6040518080602001828103825283818151815260200191508051906020019060200280838360005b838110156101b2578082015181840152602081019050610197565b505050509050019250505060405180910390f35b3480156101d257600080fd5b506101db61053a565b604051808273ffffffffffffffffffffffffffffffffffffffff1673ffffffffffffffffffffffffffffffffffffffff16815260200191505060405180910390f35b34801561022957600080fd5b50610232610560565b005b34801561024057600080fd5b5061024961070c565b6040518082815260200191505060405180910390f35b34801561026b57600080fd5b50610274610712565b6040518082815260200191505060405180910390f35b34801561029657600080fd5b5061029f610718565b6040518082815260200191505060405180910390f35b3480156102c157600080fd5b506102ca61081b565b005b6102d4610a5a565b005b3480156102e257600080fd5b506102eb610bc3565b6040518082815260200191505060405180910390f35b34801561030d57600080fd5b50610316610bc9565b005b34801561032457600080fd5b5061032d610f71565b6040518082815260200191505060405180910390f35b34801561034f57600080fd5b5061036e60048036038101908080359060200190929190505050610f77565b604051808273ffffffffffffffffffffffffffffffffffffffff1673ffffffffffffffffffffffffffffffffffffffff16815260200191505060405180910390f35b3480156103bc57600080fd5b506103c5610fb5565b604051808273ffffffffffffffffffffffffffffffffffffffff1673ffffffffffffffffffffffffffffffffffffffff16815260200191505060405180910390f35b6000806000806000803373ffffffffffffffffffffffffffffffffffffffff1673ffffffffffffffffffffffffffffffffffffffff16815260200190815260200160002090508060000160009054906101000a90046bffffffffffffffffffffffff16935080600001600c9054906101000a90046bffffffffffffffffffffffff1692508060000160189054906101000a900467ffffffffffffffff16915050909192565b6060600180548060200260200160405190810160405280929190818152602001828054801561053057602002820191906000526020600020905b8160009054906101000a900473ffffffffffffffffffffffffffffffffffffffff1673ffffffffffffffffffffffffffffffffffffffff16815260200190600101908083116104e6575b5050505050905090565b600760009054906101000a900473ffffffffffffffffffffffffffffffffffffffff1681565b600080600080600080610571610718565b955061059a606461058c600589610fdb90919063ffffffff16565b61100e90919063ffffffff16565b9450600093505b6001805490508460ff1610156106f55760008060018660ff168154811015156105c657fe5b9060005260206000200160009054906101000a900473ffffffffffffffffffffffffffffffffffffffff1673ffffffffffffffffffffffffffffffffffffffff1673ffffffffffffffffffffffffffffffffffffffff168152602001908152602001600020925061066c83600001600c9054906101000a90046bffffffffffffffffffffffff166bffffffffffffffffffffffff1660025461100e90919063ffffffff16565b91506106818286610fdb90919063ffffffff16565b90508085039450808360000160008282829054906101000a90046bffffffffffffffffffffffff160192506101000a8154816bffffffffffffffffffffffff02191690836bffffffffffffffffffffffff1602179055508060036000828254019250508190555083806001019450506105a1565b60008514151561070457600080fd5b505050505050565b60035481565b60045481565b6000600354600660009054906101000a900473ffffffffffffffffffffffffffffffffffffffff1673ffffffffffffffffffffffffffffffffffffffff166370a08231306040518263ffffffff167c0100000000000000000000000000000000000000000000000000000000028152600401808273ffffffffffffffffffffffffffffffffffffffff1673ffffffffffffffffffffffffffffffffffffffff168152602001915050602060405180830381600087803b1580156107da57600080fd5b505af11580156107ee573d6000803e3d6000fd5b505050506040513d602081101561080457600080fd5b810190808051906020019092919050505003905090565b6000806000803073ffffffffffffffffffffffffffffffffffffffff1631600254016002819055503073ffffffffffffffffffffffffffffffffffffffff163193507fffffffffffffffffffffffffffffffffffffffffffffffffffffffffffffffff925060019150600760009054906101000a900473ffffffffffffffffffffffffffffffffffffffff1673ffffffffffffffffffffffffffffffffffffffff1663cb3c28c78573eeeeeeeeeeeeeeeeeeeeeeeeeeeeeeeeeeeeeeee87600660009054906101000a900473ffffffffffffffffffffffffffffffffffffffff1630898960006040518963ffffffff167c0100000000000000000000000000000000000000000000000000000000028152600401808873ffffffffffffffffffffffffffffffffffffffff1673ffffffffffffffffffffffffffffffffffffffff1681526020018781526020018673ffffffffffffffffffffffffffffffffffffffff1673ffffffffffffffffffffffffffffffffffffffff1681526020018573ffffffffffffffffffffffffffffffffffffffff1673ffffffffffffffffffffffffffffffffffffffff1681526020018481526020018381526020018273ffffffffffffffffffffffffffffffffffffffff1681526020019750505050505050506020604051808303818588803b158015610a1657600080fd5b505af1158015610a2a573d6000803e3d6000fd5b50505050506040513d6020811015610a4157600080fd5b8101908080519060200190929190505050905050505050565b60008034111515610a6a57600080fd5b6000803373ffffffffffffffffffffffffffffffffffffffff1673ffffffffffffffffffffffffffffffffffffffff1681526020019081526020016000209050600081600001600c9054906101000a90046bffffffffffffffffffffffff166bffffffffffffffffffffffff161415610b445760013390806001815401808255809150509060018203906000526020600020016000909192909190916101000a81548173ffffffffffffffffffffffffffffffffffffffff021916908373ffffffffffffffffffffffffffffffffffffffff160217905550505b3481600001600c9054906101000a90046bffffffffffffffffffffffff160181600001600c6101000a8154816bffffffffffffffffffffffff02191690836bffffffffffffffffffffffff160217905550428160000160186101000a81548167ffffffffffffffff021916908367ffffffffffffffff16021790555050565b60025481565b6000806000803373ffffffffffffffffffffffffffffffffffffffff1673ffffffffffffffffffffffffffffffffffffffff168152602001908152602001600020915060008260000160009054906101000a90046bffffffffffffffffffffffff166bffffffffffffffffffffffff16111515610c4557600080fd5b600660009054906101000a900473ffffffffffffffffffffffffffffffffffffffff1673ffffffffffffffffffffffffffffffffffffffff1663095ea7b3308460000160009054906101000a90046bffffffffffffffffffffffff166040518363ffffffff167c0100000000000000000000000000000000000000000000000000000000028152600401808373ffffffffffffffffffffffffffffffffffffffff1673ffffffffffffffffffffffffffffffffffffffff168152602001826bffffffffffffffffffffffff16815260200192505050602060405180830381600087803b158015610d3457600080fd5b505af1158015610d48573d6000803e3d6000fd5b505050506040513d6020811015610d5e57600080fd5b8101908080519060200190929190505050508160000160009054906101000a90046bffffffffffffffffffffffff166bffffffffffffffffffffffff169050428260000160189054906101000a900467ffffffffffffffff1667ffffffffffffffff16101515610e0457610e01610df26064610de4601485610fdb90919063ffffffff16565b61100e90919063ffffffff16565b8261102990919063ffffffff16565b90505b600660009054906101000a900473ffffffffffffffffffffffffffffffffffffffff1673ffffffffffffffffffffffffffffffffffffffff166323b872dd3033846040518463ffffffff167c0100000000000000000000000000000000000000000000000000000000028152600401808473ffffffffffffffffffffffffffffffffffffffff1673ffffffffffffffffffffffffffffffffffffffff1681526020018373ffffffffffffffffffffffffffffffffffffffff1673ffffffffffffffffffffffffffffffffffffffff1681526020018281526020019350505050602060405180830381600087803b158015610efd57600080fd5b505af1158015610f11573d6000803e3d6000fd5b505050506040513d6020811015610f2757600080fd5b81019080805190602001909291905050505060008260000160006101000a8154816bffffffffffffffffffffffff02191690836bffffffffffffffffffffffff1602179055505050565b60055481565b600181815481101515610f8657fe5b906000526020600020016000915054906101000a900473ffffffffffffffffffffffffffffffffffffffff1681565b600660009054906101000a900473ffffffffffffffffffffffffffffffffffffffff1681565b60008082840290506000841480610ffc5750828482811515610ff957fe5b04145b151561100457fe5b8091505092915050565b600080828481151561101c57fe5b0490508091505092915050565b600082821115151561103757fe5b8183039050929150505600a165627a7a723058206d84bfd6f069e8e19f11fb392bfcb3ca6d3ea119002294e1c441a2435190f2680029",
  "source": "\r\npragma solidity ^0.4.18;\r\n\r\nimport \"./vendor/KyberNetwork.sol\";\r\nimport \"./base/math/SafeMath.sol\";\r\n\r\ncontract StakingContract {\r\n\r\nusing SafeMath for uint96;\r\nusing SafeMath for uint;\r\n \r\n \r\n struct UserStakeData{\r\n    \r\n    uint96 currentStakeAmount;\r\n    uint96 sentAmount;\r\n    uint64 stakeUnlockDate;\r\n }\r\n\r\n uint constant  REWARD_PERCENTAGE = 5;\r\n uint constant  WITHDRAWING_WHILE_ACTIVE_PENALTY = 20;\r\n \r\n mapping (address => UserStakeData) userStakes ;\r\n address[] public userStakesAddresses;\r\n\r\n uint public totalEthReceived = 0;\r\n \r\n uint public totalTokenLockedAmount = 0;\r\n \r\n uint public currentRewardAmount = 0;\r\n  \r\n uint public lastRewardDistributionDate;\r\n\r\n\r\n ERC20 public token ;\r\n  \r\n KyberNetworkProxy public kyberContract ;\r\n  \r\n \r\n   \r\n\r\nfunction StakingContract(address _tokenAddress, address _kyberContract) public {\r\n        // Check inputs\r\n        require(_tokenAddress != address(0));\r\n        require(_kyberContract != address(0));\r\n\r\n        token = ERC20(_tokenAddress);\r\n        kyberContract = KyberNetworkProxy(_kyberContract);\r\n    \r\n}\r\n\r\n function getStakesAddresses() public view returns (address[]) {\r\n     \r\n     return userStakesAddresses;\r\n }\r\n \r\n function getUserStakeData() public view returns (uint96 stake, uint96 total, uint64 unlockDate){\r\n \r\n    UserStakeData storage stakeData = userStakes[msg.sender];\r\n    \r\n    stake = stakeData.currentStakeAmount;\r\n    total = stakeData.sentAmount;\r\n    unlockDate = stakeData.stakeUnlockDate;\r\n     \r\n }\r\n \r\n function withdrawStake() public {\r\n     \r\n     UserStakeData storage stakeData = userStakes[msg.sender];\r\n     \r\n     require(stakeData.currentStakeAmount > 0);\r\n     \r\n     token.approve(this, stakeData.currentStakeAmount);\r\n     \r\n     uint amountToWitdraw = stakeData.currentStakeAmount;\r\n     \r\n     if(stakeData.stakeUnlockDate >= now)\r\n        amountToWitdraw  = amountToWitdraw.sub(amountToWitdraw.mul(WITHDRAWING_WHILE_ACTIVE_PENALTY).div(100));\r\n     token.transferFrom(this, msg.sender, amountToWitdraw);\r\n     \r\n     stakeData.currentStakeAmount = 0;\r\n     \r\n     \r\n }\r\n\r\n \r\n function receive() public payable{\r\n     \r\n     \r\n    require(msg.value > 0);\r\n    \r\n    UserStakeData storage data = userStakes[msg.sender];\r\n    \r\n    if(data.sentAmount == 0)\r\n        userStakesAddresses.push(msg.sender);\r\n\r\n    data.sentAmount =data.sentAmount + uint96(msg.value);\r\n    data.stakeUnlockDate = uint64(now);\r\n \r\n }\r\n \r\n function calculateGlobalStackSize() view public returns(uint size){\r\n     \r\n     size = token.balanceOf(this) - totalTokenLockedAmount;\r\n }\r\n \r\n \r\n function calculateRewards() public {\r\n     \r\n    var currentGlobalStakeSize = calculateGlobalStackSize();\r\n    \r\n    var currentRewardAmount = currentGlobalStakeSize.mul(REWARD_PERCENTAGE).div(100);\r\n    \r\n    for(var i =0; i<userStakesAddresses.length; i++){\r\n        \r\n        UserStakeData storage data = userStakes[userStakesAddresses[i]];\r\n        \r\n        var ethPaidPercentage = totalEthReceived.div(data.sentAmount);\r\n        \r\n        var amountToStake = currentRewardAmount.mul(ethPaidPercentage);\r\n        \r\n        currentRewardAmount -= amountToStake;\r\n        \r\n        data.currentStakeAmount += uint96(amountToStake);\r\n        totalTokenLockedAmount += amountToStake;\r\n        \r\n    }\r\n    \r\n    require(currentRewardAmount == 0);\r\n    \r\n     \r\n } \r\n \r\n\r\n function convert() public{\r\n\r\n        totalEthReceived=totalEthReceived+this.balance;\r\n\r\n        uint ethToConvert = this.balance;\r\n   \r\n        uint maxDestAmount = 2**256 - 1;\r\n\r\n        // Set minConversionRate to 1 \r\n        // A value of 1 will execute the trade according to market price in the time of the transaction confirmation\r\n        uint minConversionRate =   1;\r\n\r\n\r\n        // Convert the ETH to ERC20\r\n        uint convertedTokens = kyberContract.trade.value(ethToConvert)(\r\n            // Source. From Kyber docs, this value denotes ETH\r\n            ERC20(0x00eeeeeeeeeeeeeeeeeeeeeeeeeeeeeeeeeeeeeeee),\r\n            \r\n            // Source amount\r\n            ethToConvert,\r\n\r\n            // Destination. \r\n            token,\r\n            \r\n            // destAddress: this contract\r\n            this,\r\n            \r\n            // maxDestAmount\r\n            maxDestAmount,\r\n            \r\n            // minConversionRate \r\n            minConversionRate,\r\n            \r\n            // walletId\r\n            0\r\n        );     \r\n        \r\n\r\n }\r\n \r\n \r\n \r\n /*\r\n function AddTest(uint test1, uint test2, uint test3) public{\r\n     \r\n     \r\n     TestField storage data = addresses[msg.sender];\r\n\r\n     data.test1 = test1;\r\n     data.test2 = test2;\r\n     data.test3 = test3;\r\n     data.collateral = CollateralType.LendCollateral;\r\n     \r\n }\r\n */\r\n \r\n \r\n    \r\n    \r\n}",
  "sourcePath": "C:\\Users\\Emilio\\Documents\\GitHub\\Microstaking\\contracts\\StackingContract.sol",
  "compiler": {
    "name": "solc",
    "version": "0.4.24+commit.e67f0147.Emscripten.clang"
  },
  "schemaVersion": "2.0.1",
  "updatedAt": "2018-08-06T15:40:57.827Z"
}