{
  "contractName": "StakingContract",
  "abi": [
    {
      "constant": true,
      "inputs": [],
      "name": "totalTokenLockedAmount",
      "outputs": [
        {
          "name": "",
          "type": "uint256"
        }
      ],
      "payable": false,
      "stateMutability": "view",
      "type": "function"
    },
    {
      "constant": true,
      "inputs": [],
      "name": "currentRewardAmount",
      "outputs": [
        {
          "name": "",
          "type": "uint256"
        }
      ],
      "payable": false,
      "stateMutability": "view",
      "type": "function"
    },
    {
      "constant": true,
      "inputs": [],
      "name": "totalEthReceived",
      "outputs": [
        {
          "name": "",
          "type": "uint256"
        }
      ],
      "payable": false,
      "stateMutability": "view",
      "type": "function"
    },
    {
      "constant": true,
      "inputs": [],
      "name": "lastRewardDistributionDate",
      "outputs": [
        {
          "name": "",
          "type": "uint256"
        }
      ],
      "payable": false,
      "stateMutability": "view",
      "type": "function"
    },
    {
      "constant": true,
      "inputs": [],
      "name": "token",
      "outputs": [
        {
          "name": "",
          "type": "address"
        }
      ],
      "payable": false,
      "stateMutability": "view",
      "type": "function"
    },
    {
      "inputs": [
        {
          "name": "_tokenAddress",
          "type": "address"
        },
        {
          "name": "_tokenTraderAddress",
          "type": "address"
        }
      ],
      "payable": false,
      "stateMutability": "nonpayable",
      "type": "constructor"
    },
    {
      "constant": false,
      "inputs": [],
      "name": "claimRewards",
      "outputs": [],
      "payable": false,
      "stateMutability": "nonpayable",
      "type": "function"
    },
    {
      "constant": false,
      "inputs": [],
      "name": "withdrawStake",
      "outputs": [],
      "payable": false,
      "stateMutability": "nonpayable",
      "type": "function"
    },
    {
      "constant": false,
      "inputs": [],
      "name": "receive",
      "outputs": [],
      "payable": true,
      "stateMutability": "payable",
      "type": "function"
    },
    {
      "constant": true,
      "inputs": [],
      "name": "calculateGlobalStakeSize",
      "outputs": [
        {
          "name": "size",
          "type": "uint256"
        }
      ],
      "payable": false,
      "stateMutability": "view",
      "type": "function"
    },
    {
      "constant": false,
      "inputs": [],
      "name": "generateReward",
      "outputs": [],
      "payable": false,
      "stateMutability": "nonpayable",
      "type": "function"
    },
    {
      "constant": false,
      "inputs": [],
      "name": "convert",
      "outputs": [],
      "payable": false,
      "stateMutability": "nonpayable",
      "type": "function"
    },
    {
      "constant": true,
      "inputs": [],
      "name": "getUnclaimedRewards",
      "outputs": [
        {
          "name": "total",
          "type": "uint256"
        },
        {
          "name": "numOfUnpaidRewards",
          "type": "uint256"
        }
      ],
      "payable": false,
      "stateMutability": "view",
      "type": "function"
    },
    {
      "constant": true,
      "inputs": [],
      "name": "getCurrentRewardRound",
      "outputs": [
        {
          "name": "",
          "type": "uint32"
        }
      ],
      "payable": false,
      "stateMutability": "view",
      "type": "function"
    },
    {
      "constant": true,
      "inputs": [
        {
          "name": "index",
          "type": "uint32"
        }
      ],
      "name": "getTotalRewardsForRound",
      "outputs": [
        {
          "name": "rewardAmount",
          "type": "uint256"
        },
        {
          "name": "totalEthReceived",
          "type": "uint256"
        }
      ],
      "payable": false,
      "stateMutability": "view",
      "type": "function"
    },
    {
      "constant": true,
      "inputs": [],
      "name": "getUserStakeData",
      "outputs": [
        {
          "name": "stake",
          "type": "uint96"
        },
        {
          "name": "total",
          "type": "uint96"
        },
        {
          "name": "unlockDate",
          "type": "uint64"
        }
      ],
      "payable": false,
      "stateMutability": "view",
      "type": "function"
    }
  ],
  "bytecode": "0x60806040526000600260006101000a81548163ffffffff021916908363ffffffff16021790555060006003556000600455600060055534801561004157600080fd5b506040516040806113378339810180604052810190808051906020019092919080519060200190929190505050600073ffffffffffffffffffffffffffffffffffffffff168273ffffffffffffffffffffffffffffffffffffffff16141515156100aa57600080fd5b600073ffffffffffffffffffffffffffffffffffffffff168173ffffffffffffffffffffffffffffffffffffffff16141515156100e657600080fd5b81600760006101000a81548173ffffffffffffffffffffffffffffffffffffffff021916908373ffffffffffffffffffffffffffffffffffffffff16021790555080600860006101000a81548173ffffffffffffffffffffffffffffffffffffffff021916908373ffffffffffffffffffffffffffffffffffffffff16021790555050506111be806101796000396000f3006080604052600436106100db576000357c0100000000000000000000000000000000000000000000000000000000900463ffffffff16806301132b44146100e05780630634dc0714610117578063162302571461019c57806320ea2439146101ce578063372500ab146101f95780634800715c146102105780635a4fd6451461023b5780637b9cc5f21461026657806391bbdcc7146102b4578063a3e76c0f146102cb578063a9a18dda146102d5578063ace4a22714610300578063bed9d86114610317578063c5d879621461032e578063fc0c546a14610359575b600080fd5b3480156100ec57600080fd5b506100f56103b0565b604051808263ffffffff1663ffffffff16815260200191505060405180910390f35b34801561012357600080fd5b5061012c6103ca565b60405180846bffffffffffffffffffffffff166bffffffffffffffffffffffff168152602001836bffffffffffffffffffffffff166bffffffffffffffffffffffff1681526020018267ffffffffffffffff1667ffffffffffffffff168152602001935050505060405180910390f35b3480156101a857600080fd5b506101b161046f565b604051808381526020018281526020019250505060405180910390f35b3480156101da57600080fd5b506101e36105d8565b6040518082815260200191505060405180910390f35b34801561020557600080fd5b5061020e6106db565b005b34801561021c57600080fd5b5061022561088e565b6040518082815260200191505060405180910390f35b34801561024757600080fd5b50610250610894565b6040518082815260200191505060405180910390f35b34801561027257600080fd5b50610297600480360381019080803563ffffffff16906020019092919050505061089a565b604051808381526020018281526020019250505060405180910390f35b3480156102c057600080fd5b506102c96108fa565b005b6102d3610a85565b005b3480156102e157600080fd5b506102ea610c3a565b6040518082815260200191505060405180910390f35b34801561030c57600080fd5b50610315610c40565b005b34801561032357600080fd5b5061032c610d0d565b005b34801561033a57600080fd5b506103436110ff565b6040518082815260200191505060405180910390f35b34801561036557600080fd5b5061036e611105565b604051808273ffffffffffffffffffffffffffffffffffffffff1673ffffffffffffffffffffffffffffffffffffffff16815260200191505060405180910390f35b6000600260009054906101000a900463ffffffff16905090565b6000806000806000803373ffffffffffffffffffffffffffffffffffffffff1673ffffffffffffffffffffffffffffffffffffffff16815260200190815260200160002090508060000160009054906101000a90046bffffffffffffffffffffffff16935080600001600c9054906101000a90046bffffffffffffffffffffffff1692508060000160189054906101000a900467ffffffffffffffff16915050909192565b60008060008060008060008060003373ffffffffffffffffffffffffffffffffffffffff1673ffffffffffffffffffffffffffffffffffffffff16815260200190815260200160002094508460010160009054906101000a900463ffffffff1693505b600260009054906101000a900463ffffffff1663ffffffff168463ffffffff16101561059e578460020160008563ffffffff1663ffffffff16815260200190815260200160002060009054906101000a90046bffffffffffffffffffffffff169250600160008563ffffffff168152602001908152602001600020915061058a826000015461057c8460010154866bffffffffffffffffffffffff1661112b90919063ffffffff16565b61114690919063ffffffff16565b9050808701965083806001019450506104d2565b8460010160009054906101000a900463ffffffff16600260009054906101000a900463ffffffff160363ffffffff16955050505050509091565b6000600454600760009054906101000a900473ffffffffffffffffffffffffffffffffffffffff1673ffffffffffffffffffffffffffffffffffffffff166370a08231306040518263ffffffff167c0100000000000000000000000000000000000000000000000000000000028152600401808273ffffffffffffffffffffffffffffffffffffffff1673ffffffffffffffffffffffffffffffffffffffff168152602001915050602060405180830381600087803b15801561069a57600080fd5b505af11580156106ae573d6000803e3d6000fd5b505050506040513d60208110156106c457600080fd5b810190808051906020019092919050505003905090565b60008060008060008060003373ffffffffffffffffffffffffffffffffffffffff1673ffffffffffffffffffffffffffffffffffffffff16815260200190815260200160002094508460010160009054906101000a900463ffffffff1693505b600260009054906101000a900463ffffffff1663ffffffff168463ffffffff161015610852578460020160008563ffffffff1663ffffffff16815260200190815260200160002060009054906101000a90046bffffffffffffffffffffffff169250600160008563ffffffff16815260200190815260200160002091506107f382600001546107e58460010154866bffffffffffffffffffffffff1661112b90919063ffffffff16565b61114690919063ffffffff16565b9050808560000160008282829054906101000a90046bffffffffffffffffffffffff160192506101000a8154816bffffffffffffffffffffffff02191690836bffffffffffffffffffffffff160217905550838060010194505061073b565b600260009054906101000a900463ffffffff168560010160006101000a81548163ffffffff021916908363ffffffff1602179055505050505050565b60045481565b60055481565b6000806000600260009054906101000a900463ffffffff1663ffffffff168463ffffffff161015156108cb57600080fd5b600160008563ffffffff1681526020019081526020016000209050806000015492508060010154915050915091565b3073ffffffffffffffffffffffffffffffffffffffff163160035401600381905550600860009054906101000a900473ffffffffffffffffffffffffffffffffffffffff1673ffffffffffffffffffffffffffffffffffffffff1663791c754d3073ffffffffffffffffffffffffffffffffffffffff1631600760009054906101000a900473ffffffffffffffffffffffffffffffffffffffff16306040518463ffffffff167c0100000000000000000000000000000000000000000000000000000000028152600401808373ffffffffffffffffffffffffffffffffffffffff1673ffffffffffffffffffffffffffffffffffffffff1681526020018273ffffffffffffffffffffffffffffffffffffffff1673ffffffffffffffffffffffffffffffffffffffff168152602001925050506020604051808303818588803b158015610a4657600080fd5b505af1158015610a5a573d6000803e3d6000fd5b50505050506040513d6020811015610a7157600080fd5b810190808051906020019092919050505050565b60008034111515610a9557600080fd5b6000803373ffffffffffffffffffffffffffffffffffffffff1673ffffffffffffffffffffffffffffffffffffffff1681526020019081526020016000209050600081600001600c9054906101000a90046bffffffffffffffffffffffff166bffffffffffffffffffffffff161415610b3e57600260009054906101000a900463ffffffff168160010160006101000a81548163ffffffff021916908363ffffffff1602179055505b3481600001600c8282829054906101000a90046bffffffffffffffffffffffff160192506101000a8154816bffffffffffffffffffffffff02191690836bffffffffffffffffffffffff16021790555080600001600c9054906101000a90046bffffffffffffffffffffffff16816002016000600260009054906101000a900463ffffffff1663ffffffff1663ffffffff16815260200190815260200160002060006101000a8154816bffffffffffffffffffffffff02191690836bffffffffffffffffffffffff160217905550428160000160186101000a81548167ffffffffffffffff021916908367ffffffffffffffff16021790555050565b60035481565b6000806000610c4d6105d8565b9250610c766064610c6860058661114690919063ffffffff16565b61112b90919063ffffffff16565b915060016000600260009054906101000a900463ffffffff1663ffffffff16815260200190815260200160002090508181600001819055506003548160010181905550428160020181905550816004600082825401925050819055506002600081819054906101000a900463ffffffff1660010191906101000a81548163ffffffff021916908363ffffffff160217905550505050565b6000806000803373ffffffffffffffffffffffffffffffffffffffff1673ffffffffffffffffffffffffffffffffffffffff168152602001908152602001600020915060008260000160009054906101000a90046bffffffffffffffffffffffff166bffffffffffffffffffffffff16111515610d8957600080fd5b8160000160009054906101000a90046bffffffffffffffffffffffff166bffffffffffffffffffffffff169050428260000160189054906101000a900467ffffffffffffffff1667ffffffffffffffff16101515610e1d57610e1a610e0b6064610dfd60148561114690919063ffffffff16565b61112b90919063ffffffff16565b8261117990919063ffffffff16565b90505b610e5c8260000160009054906101000a90046bffffffffffffffffffffffff166bffffffffffffffffffffffff1660045461117990919063ffffffff16565b5060008260000160006101000a8154816bffffffffffffffffffffffff02191690836bffffffffffffffffffffffff160217905550600082600001600c6101000a8154816bffffffffffffffffffffffff02191690836bffffffffffffffffffffffff160217905550600760009054906101000a900473ffffffffffffffffffffffffffffffffffffffff1673ffffffffffffffffffffffffffffffffffffffff1663095ea7b330836040518363ffffffff167c0100000000000000000000000000000000000000000000000000000000028152600401808373ffffffffffffffffffffffffffffffffffffffff1673ffffffffffffffffffffffffffffffffffffffff16815260200182815260200192505050602060405180830381600087803b158015610f8a57600080fd5b505af1158015610f9e573d6000803e3d6000fd5b505050506040513d6020811015610fb457600080fd5b810190808051906020019092919050505050600760009054906101000a900473ffffffffffffffffffffffffffffffffffffffff1673ffffffffffffffffffffffffffffffffffffffff166323b872dd3033846040518463ffffffff167c0100000000000000000000000000000000000000000000000000000000028152600401808473ffffffffffffffffffffffffffffffffffffffff1673ffffffffffffffffffffffffffffffffffffffff1681526020018373ffffffffffffffffffffffffffffffffffffffff1673ffffffffffffffffffffffffffffffffffffffff1681526020018281526020019350505050602060405180830381600087803b1580156110bf57600080fd5b505af11580156110d3573d6000803e3d6000fd5b505050506040513d60208110156110e957600080fd5b8101908080519060200190929190505050505050565b60065481565b600760009054906101000a900473ffffffffffffffffffffffffffffffffffffffff1681565b600080828481151561113957fe5b0490508091505092915050565b60008082840290506000841480611167575082848281151561116457fe5b04145b151561116f57fe5b8091505092915050565b600082821115151561118757fe5b8183039050929150505600a165627a7a7230582054084aca584ff65f8fb6716203d49600da262bff0cb28b7b16dc8e31f5da4d510029",
  "source": "\r\npragma solidity ^0.4.18;\r\n\r\nimport \"./vendor/KyberNetwork.sol\";\r\nimport \"./base/math/SafeMath.sol\";\r\nimport \"./interfaces/tokentrader.sol\";\r\n\r\ncontract StakingContract {\r\n\r\n  using SafeMath for uint96; \r\n  using SafeMath for uint;\r\n\r\n  uint constant  REWARD_PERCENTAGE = 5;\r\n  uint constant  WITHDRAWING_WHILE_ACTIVE_PENALTY = 20;\r\n \r\n  struct UserStakeData{\r\n    \r\n    uint96 currentStakeAmount;\r\n    uint96 totalSentAmount;\r\n    uint64 stakeUnlockDate;\r\n    uint32 lastRewardRoundWithdrawn;\r\n    mapping(uint32 => uint96) amountsHistory;\r\n  }\r\n \r\n  struct RewardData{\r\n     \r\n    uint totalReward;\r\n    uint totalEthReceived;\r\n    uint rewardDate;\r\n  }\r\n \r\n  mapping (address => UserStakeData) userStakes;\r\n\r\n  mapping (uint => RewardData) rewards;\r\n\r\n  uint32 rewardRoundNumber = 0;\r\n \r\n  uint public totalEthReceived = 0;\r\n \r\n  uint public totalTokenLockedAmount = 0;\r\n \r\n  uint public currentRewardAmount = 0;\r\n  \r\n  uint public lastRewardDistributionDate;\r\n\r\n  ERC20 public token ;\r\n \r\n  TokenTrader tokenTrader;\r\n  \r\n\r\n  constructor(address _tokenAddress, address _tokenTraderAddress) public {\r\n\r\n        // Check inputs\r\n    require(_tokenAddress != address(0));\r\n    require(_tokenTraderAddress != address(0));\r\n\r\n    token = ERC20(_tokenAddress);\r\n    tokenTrader = TokenTrader(_tokenTraderAddress);\r\n     \r\n  }\r\n\r\n\r\nfunction claimRewards() public{\r\n    \r\n     UserStakeData storage data = userStakes[msg.sender];\r\n\r\n     for(uint32 i=data.lastRewardRoundWithdrawn; i < rewardRoundNumber; i++ ){\r\n         \r\n         uint96 totalPaidForRound = data.amountsHistory[i];\r\n         \r\n         RewardData dataForRound = rewards[i];\r\n         \r\n         uint reward = totalPaidForRound.div(dataForRound.totalEthReceived).mul(dataForRound.totalReward);\r\n         \r\n         data.currentStakeAmount += uint96(reward);\r\n     }\r\n     \r\n     data.lastRewardRoundWithdrawn = rewardRoundNumber;\r\n     \r\n }\r\n \r\n function withdrawStake() public {\r\n     \r\n     \r\n\r\n    UserStakeData storage stakeData = userStakes[msg.sender];\r\n     \r\n    require(stakeData.currentStakeAmount > 0);\r\n     \r\n     \r\n    uint amountToWitdraw = stakeData.currentStakeAmount;\r\n     \r\n    if(stakeData.stakeUnlockDate >= now)\r\n        amountToWitdraw  = amountToWitdraw.sub(amountToWitdraw.mul(WITHDRAWING_WHILE_ACTIVE_PENALTY).div(100));\r\n\r\n    totalTokenLockedAmount.sub(stakeData.currentStakeAmount);\r\n \r\n    \r\n    stakeData.currentStakeAmount = 0;\r\n    stakeData.totalSentAmount = 0;\r\n\r\n    token.approve(this, amountToWitdraw);\r\n    token.transferFrom(this, msg.sender, amountToWitdraw);\r\n     \r\n }\r\n\r\n \r\n function receive() public payable{\r\n     \r\n     \r\n    require(msg.value > 0);\r\n    \r\n    UserStakeData storage data = userStakes[msg.sender];\r\n\r\n\r\n    if(data.totalSentAmount == 0)\r\n        data.lastRewardRoundWithdrawn= rewardRoundNumber;\r\n        \r\n    data.totalSentAmount += uint96(msg.value);\r\n    data.amountsHistory[rewardRoundNumber] =  data.totalSentAmount;\r\n\r\n    data.stakeUnlockDate = uint64(now);\r\n \r\n    \r\n }\r\n \r\n function calculateGlobalStakeSize() view public returns(uint size){\r\n     \r\n     size = token.balanceOf(this) - totalTokenLockedAmount;\r\n }\r\n \r\n \r\n function generateReward() public {\r\n     \r\n    var currentGlobalStakeSize = calculateGlobalStakeSize();\r\n    \r\n    var rewardAmount = currentGlobalStakeSize.mul(REWARD_PERCENTAGE).div(100);\r\n    \r\n    RewardData storage rewardData = rewards[rewardRoundNumber];\r\n    \r\n    rewardData.totalReward = rewardAmount;\r\n    rewardData.totalEthReceived = totalEthReceived;\r\n    rewardData.rewardDate = now;\r\n    \r\n    totalTokenLockedAmount += rewardAmount;\r\n    \r\n    ++rewardRoundNumber;\r\n } \r\n \r\n\r\n function convert() public{\r\n\r\n    totalEthReceived=totalEthReceived+this.balance;\r\n\r\n   \r\n    tokenTrader.tradeTokens.value(this.balance)(token, this);\r\n    \r\n }\r\n \r\n \r\n function getUnclaimedRewards() public view returns(uint total, uint numOfUnpaidRewards){\r\n     \r\n         \r\n     UserStakeData storage data = userStakes[msg.sender];\r\n     \r\n     \r\n\r\n     for(uint32 i=data.lastRewardRoundWithdrawn; i < rewardRoundNumber; i++ ){\r\n         \r\n         uint96 totalPaidForRound = data.amountsHistory[i];\r\n         \r\n         RewardData dataForRound = rewards[i];\r\n         \r\n         uint reward = totalPaidForRound.div(dataForRound.totalEthReceived).mul(dataForRound.totalReward);\r\n         \r\n         total+=reward;\r\n     }\r\n     \r\n     numOfUnpaidRewards = rewardRoundNumber-data.lastRewardRoundWithdrawn;\r\n }\r\n \r\n \r\n function getCurrentRewardRound() public view returns(uint32){\r\n     \r\n     return rewardRoundNumber;\r\n }\r\n\r\n  \r\n   \r\nfunction getTotalRewardsForRound(uint32 index) public view returns (uint rewardAmount, uint totalEthReceived){\r\n    \r\n    require(index < rewardRoundNumber);\r\n    \r\n    RewardData storage data = rewards[index];\r\n    \r\n    rewardAmount = data.totalReward;\r\n    totalEthReceived = data.totalEthReceived;\r\n}\r\n\r\n function getUserStakeData() public view returns (uint96 stake, uint96 total, uint64 unlockDate){\r\n \r\n    UserStakeData storage stakeData = userStakes[msg.sender];\r\n    \r\n    stake = stakeData.currentStakeAmount;\r\n    total = stakeData.totalSentAmount;\r\n    unlockDate = stakeData.stakeUnlockDate;\r\n     \r\n }\r\n \r\n \r\n /*\r\n function AddTest(uint test1, uint test2, uint test3) public{\r\n     \r\n     \r\n     TestField storage data = addresses[msg.sender];\r\n\r\n     data.test1 = test1;\r\n     data.test2 = test2;\r\n     data.test3 = test3;\r\n     data.collateral = CollateralType.LendCollateral;\r\n     \r\n }\r\n */\r\n \r\n \r\n    \r\n    \r\n}",
  "sourcePath": "C:\\Users\\Emilio\\Documents\\GitHub\\Microstaking\\contracts\\StackingContract.sol",
  "compiler": {
    "name": "solc",
    "version": "0.4.24+commit.e67f0147.Emscripten.clang"
  },
  "schemaVersion": "2.0.1",
  "updatedAt": "2018-08-08T13:26:28.243Z"
}