{
  "contractName": "StakingContract",
  "abi": [
    {
      "constant": true,
      "inputs": [],
      "name": "totalTokenLockedAmount",
      "outputs": [
        {
          "name": "",
          "type": "uint256"
        }
      ],
      "payable": false,
      "stateMutability": "view",
      "type": "function"
    },
    {
      "constant": true,
      "inputs": [],
      "name": "currentRewardAmount",
      "outputs": [
        {
          "name": "",
          "type": "uint256"
        }
      ],
      "payable": false,
      "stateMutability": "view",
      "type": "function"
    },
    {
      "constant": true,
      "inputs": [],
      "name": "totalEthReceived",
      "outputs": [
        {
          "name": "",
          "type": "uint256"
        }
      ],
      "payable": false,
      "stateMutability": "view",
      "type": "function"
    },
    {
      "constant": true,
      "inputs": [],
      "name": "lastRewardDistributionDate",
      "outputs": [
        {
          "name": "",
          "type": "uint256"
        }
      ],
      "payable": false,
      "stateMutability": "view",
      "type": "function"
    },
    {
      "constant": true,
      "inputs": [],
      "name": "token",
      "outputs": [
        {
          "name": "",
          "type": "address"
        }
      ],
      "payable": false,
      "stateMutability": "view",
      "type": "function"
    },
    {
      "inputs": [
        {
          "name": "_tokenAddress",
          "type": "address"
        },
        {
          "name": "_tokenTraderAddress",
          "type": "address"
        }
      ],
      "payable": false,
      "stateMutability": "nonpayable",
      "type": "constructor"
    },
    {
      "constant": false,
      "inputs": [],
      "name": "claimRewards",
      "outputs": [],
      "payable": false,
      "stateMutability": "nonpayable",
      "type": "function"
    },
    {
      "constant": false,
      "inputs": [],
      "name": "withdrawStake",
      "outputs": [],
      "payable": false,
      "stateMutability": "nonpayable",
      "type": "function"
    },
    {
      "constant": false,
      "inputs": [],
      "name": "receive",
      "outputs": [],
      "payable": true,
      "stateMutability": "payable",
      "type": "function"
    },
    {
      "constant": true,
      "inputs": [],
      "name": "calculateGlobalStakeSize",
      "outputs": [
        {
          "name": "size",
          "type": "uint256"
        }
      ],
      "payable": false,
      "stateMutability": "view",
      "type": "function"
    },
    {
      "constant": false,
      "inputs": [],
      "name": "generateReward",
      "outputs": [],
      "payable": false,
      "stateMutability": "nonpayable",
      "type": "function"
    },
    {
      "constant": false,
      "inputs": [],
      "name": "convert",
      "outputs": [],
      "payable": false,
      "stateMutability": "nonpayable",
      "type": "function"
    },
    {
      "constant": true,
      "inputs": [],
      "name": "getUnclaimedRewards",
      "outputs": [
        {
          "name": "total",
          "type": "uint256"
        },
        {
          "name": "numOfUnpaidRewards",
          "type": "uint256"
        }
      ],
      "payable": false,
      "stateMutability": "view",
      "type": "function"
    },
    {
      "constant": true,
      "inputs": [],
      "name": "getCurrentRewardRound",
      "outputs": [
        {
          "name": "",
          "type": "uint32"
        }
      ],
      "payable": false,
      "stateMutability": "view",
      "type": "function"
    },
    {
      "constant": true,
      "inputs": [
        {
          "name": "index",
          "type": "uint32"
        }
      ],
      "name": "getTotalRewardsForRound",
      "outputs": [
        {
          "name": "rewardAmount",
          "type": "uint256"
        },
        {
          "name": "ethReceived",
          "type": "uint256"
        }
      ],
      "payable": false,
      "stateMutability": "view",
      "type": "function"
    },
    {
      "constant": true,
      "inputs": [],
      "name": "getUserStakeData",
      "outputs": [
        {
          "name": "stake",
          "type": "uint96"
        },
        {
          "name": "total",
          "type": "uint96"
        },
        {
          "name": "activeUntilDate",
          "type": "uint64"
        }
      ],
      "payable": false,
      "stateMutability": "view",
      "type": "function"
    }
  ],
  "bytecode": "0x60806040526000600260006101000a81548163ffffffff021916908363ffffffff16021790555060006003556000600455600060055534801561004157600080fd5b506040516040806115c28339810180604052810190808051906020019092919080519060200190929190505050600073ffffffffffffffffffffffffffffffffffffffff168273ffffffffffffffffffffffffffffffffffffffff16141515156100aa57600080fd5b600073ffffffffffffffffffffffffffffffffffffffff168173ffffffffffffffffffffffffffffffffffffffff16141515156100e657600080fd5b81600760006101000a81548173ffffffffffffffffffffffffffffffffffffffff021916908373ffffffffffffffffffffffffffffffffffffffff16021790555080600860006101000a81548173ffffffffffffffffffffffffffffffffffffffff021916908373ffffffffffffffffffffffffffffffffffffffff1602179055505050611449806101796000396000f3006080604052600436106100db576000357c0100000000000000000000000000000000000000000000000000000000900463ffffffff16806301132b44146100e05780630634dc0714610117578063162302571461019c57806320ea2439146101ce578063372500ab146101f95780634800715c146102105780635a4fd6451461023b5780637b9cc5f21461026657806391bbdcc7146102b4578063a3e76c0f146102cb578063a9a18dda146102d5578063ace4a22714610300578063bed9d86114610317578063c5d879621461032e578063fc0c546a14610359575b600080fd5b3480156100ec57600080fd5b506100f56103b0565b604051808263ffffffff1663ffffffff16815260200191505060405180910390f35b34801561012357600080fd5b5061012c6103ca565b60405180846bffffffffffffffffffffffff166bffffffffffffffffffffffff168152602001836bffffffffffffffffffffffff166bffffffffffffffffffffffff1681526020018267ffffffffffffffff1667ffffffffffffffff168152602001935050505060405180910390f35b3480156101a857600080fd5b506101b161046f565b604051808381526020018281526020019250505060405180910390f35b3480156101da57600080fd5b506101e36105eb565b6040518082815260200191505060405180910390f35b34801561020557600080fd5b5061020e6106ee565b005b34801561021c57600080fd5b506102256109e4565b6040518082815260200191505060405180910390f35b34801561024757600080fd5b506102506109ea565b6040518082815260200191505060405180910390f35b34801561027257600080fd5b50610297600480360381019080803563ffffffff1690602001909291905050506109f0565b604051808381526020018281526020019250505060405180910390f35b3480156102c057600080fd5b506102c9610a50565b005b6102d3610beb565b005b3480156102e157600080fd5b506102ea610df1565b6040518082815260200191505060405180910390f35b34801561030c57600080fd5b50610315610df7565b005b34801561032357600080fd5b5061032c610ec4565b005b34801561033a57600080fd5b5061034361136c565b6040518082815260200191505060405180910390f35b34801561036557600080fd5b5061036e611372565b604051808273ffffffffffffffffffffffffffffffffffffffff1673ffffffffffffffffffffffffffffffffffffffff16815260200191505060405180910390f35b6000600260009054906101000a900463ffffffff16905090565b6000806000806000803373ffffffffffffffffffffffffffffffffffffffff1673ffffffffffffffffffffffffffffffffffffffff16815260200190815260200160002090508060000160009054906101000a90046bffffffffffffffffffffffff16935080600001600c9054906101000a90046bffffffffffffffffffffffff1692508060000160189054906101000a900467ffffffffffffffff16915050909192565b60008060008060008060008060003373ffffffffffffffffffffffffffffffffffffffff1673ffffffffffffffffffffffffffffffffffffffff16815260200190815260200160002094508460010160009054906101000a900463ffffffff1693505b600260009054906101000a900463ffffffff1663ffffffff168463ffffffff1610156105b1578460020160008563ffffffff1663ffffffff1681526020019081526020016000209250600160008563ffffffff168152602001908152602001600020915061058d826000015461057f84600101548660000160009054906101000a90046bffffffffffffffffffffffff166bffffffffffffffffffffffff1661139890919063ffffffff16565b6113b390919063ffffffff16565b90506105a281886113e690919063ffffffff16565b965083806001019450506104d2565b8460010160009054906101000a900463ffffffff16600260009054906101000a900463ffffffff160363ffffffff16955050505050509091565b6000600454600760009054906101000a900473ffffffffffffffffffffffffffffffffffffffff1673ffffffffffffffffffffffffffffffffffffffff166370a08231306040518263ffffffff167c0100000000000000000000000000000000000000000000000000000000028152600401808273ffffffffffffffffffffffffffffffffffffffff1673ffffffffffffffffffffffffffffffffffffffff168152602001915050602060405180830381600087803b1580156106ad57600080fd5b505af11580156106c1573d6000803e3d6000fd5b505050506040513d60208110156106d757600080fd5b810190808051906020019092919050505003905090565b60008060008060008060008060003373ffffffffffffffffffffffffffffffffffffffff1673ffffffffffffffffffffffffffffffffffffffff16815260200190815260200160002096508660010160009054906101000a900463ffffffff1693505b600260009054906101000a900463ffffffff1663ffffffff168463ffffffff1610156109a6578660020160008563ffffffff1663ffffffff1681526020019081526020016000209250600160008563ffffffff168152602001908152602001600020915060008360000160009054906101000a90046bffffffffffffffffffffffff166bffffffffffffffffffffffff1611156108de5761083f826000015461083184600101548660000160009054906101000a90046bffffffffffffffffffffffff166bffffffffffffffffffffffff1661139890919063ffffffff16565b6113b390919063ffffffff16565b6bffffffffffffffffffffffff169050808760000160008282829054906101000a90046bffffffffffffffffffffffff160192506101000a8154816bffffffffffffffffffffffff02191690836bffffffffffffffffffffffff1602179055508260000160009054906101000a90046bffffffffffffffffffffffff16945082600001600c9054906101000a900467ffffffffffffffff169550610999565b610919826000015461090b8460010154886bffffffffffffffffffffffff1661139890919063ffffffff16565b6113b390919063ffffffff16565b905081600201548667ffffffffffffffff1610151561098757808760000160008282829054906101000a90046bffffffffffffffffffffffff160192506101000a8154816bffffffffffffffffffffffff02191690836bffffffffffffffffffffffff160217905550610998565b806004600082825403925050819055505b5b8380600101945050610751565b600260009054906101000a900463ffffffff168760010160006101000a81548163ffffffff021916908363ffffffff16021790555050505050505050565b60045481565b60055481565b6000806000600260009054906101000a900463ffffffff1663ffffffff168463ffffffff16101515610a2157600080fd5b600160008563ffffffff1681526020019081526020016000209050806000015492508060010154915050915091565b600860009054906101000a900473ffffffffffffffffffffffffffffffffffffffff1673ffffffffffffffffffffffffffffffffffffffff1663791c754d3073ffffffffffffffffffffffffffffffffffffffff1631600760009054906101000a900473ffffffffffffffffffffffffffffffffffffffff16306040518463ffffffff167c0100000000000000000000000000000000000000000000000000000000028152600401808373ffffffffffffffffffffffffffffffffffffffff1673ffffffffffffffffffffffffffffffffffffffff1681526020018273ffffffffffffffffffffffffffffffffffffffff1673ffffffffffffffffffffffffffffffffffffffff168152602001925050506020604051808303818588803b158015610b7a57600080fd5b505af1158015610b8e573d6000803e3d6000fd5b50505050506040513d6020811015610ba557600080fd5b810190808051906020019092919050505050610be33073ffffffffffffffffffffffffffffffffffffffff16316003546113e690919063ffffffff16565b600381905550565b600080600034111515610bfd57600080fd5b6000803373ffffffffffffffffffffffffffffffffffffffff1673ffffffffffffffffffffffffffffffffffffffff1681526020019081526020016000209150600082600001600c9054906101000a90046bffffffffffffffffffffffff166bffffffffffffffffffffffff161415610ca657600260009054906101000a900463ffffffff168260010160006101000a81548163ffffffff021916908363ffffffff1602179055505b3482600001600c8282829054906101000a90046bffffffffffffffffffffffff160192506101000a8154816bffffffffffffffffffffffff02191690836bffffffffffffffffffffffff1602179055506276a70042018260000160186101000a81548167ffffffffffffffff021916908367ffffffffffffffff160217905550816002016000600260009054906101000a900463ffffffff1663ffffffff1663ffffffff168152602001908152602001600020905081600001600c9054906101000a90046bffffffffffffffffffffffff168160000160006101000a8154816bffffffffffffffffffffffff02191690836bffffffffffffffffffffffff1602179055508160000160189054906101000a900467ffffffffffffffff1681600001600c6101000a81548167ffffffffffffffff021916908367ffffffffffffffff1602179055505050565b60035481565b6000806000610e046105eb565b9250610e2d6064610e1f6005866113b390919063ffffffff16565b61139890919063ffffffff16565b915060016000600260009054906101000a900463ffffffff1663ffffffff16815260200190815260200160002090508181600001819055506003548160010181905550428160020181905550816004600082825401925050819055506002600081819054906101000a900463ffffffff1660010191906101000a81548163ffffffff021916908363ffffffff160217905550505050565b6000806000803373ffffffffffffffffffffffffffffffffffffffff1673ffffffffffffffffffffffffffffffffffffffff168152602001908152602001600020915060008260000160009054906101000a90046bffffffffffffffffffffffff166bffffffffffffffffffffffff16111515610f4057600080fd5b600260009054906101000a900463ffffffff1663ffffffff168260010160009054906101000a900463ffffffff1663ffffffff16141515610f8057600080fd5b8160000160009054906101000a90046bffffffffffffffffffffffff166bffffffffffffffffffffffff169050428260000160189054906101000a900467ffffffffffffffff1667ffffffffffffffff16111515611014576110116110026064610ff46014856113b390919063ffffffff16565b61139890919063ffffffff16565b8261140490919063ffffffff16565b90505b6110538260000160009054906101000a90046bffffffffffffffffffffffff166bffffffffffffffffffffffff1660045461140490919063ffffffff16565b60048190555061109882600001600c9054906101000a90046bffffffffffffffffffffffff166bffffffffffffffffffffffff1660035461140490919063ffffffff16565b60038190555060008260000160006101000a8154816bffffffffffffffffffffffff02191690836bffffffffffffffffffffffff160217905550600082600001600c6101000a8154816bffffffffffffffffffffffff02191690836bffffffffffffffffffffffff16021790555060008260000160186101000a81548167ffffffffffffffff021916908367ffffffffffffffff160217905550600760009054906101000a900473ffffffffffffffffffffffffffffffffffffffff1673ffffffffffffffffffffffffffffffffffffffff1663095ea7b330836040518363ffffffff167c0100000000000000000000000000000000000000000000000000000000028152600401808373ffffffffffffffffffffffffffffffffffffffff1673ffffffffffffffffffffffffffffffffffffffff16815260200182815260200192505050602060405180830381600087803b1580156111f757600080fd5b505af115801561120b573d6000803e3d6000fd5b505050506040513d602081101561122157600080fd5b810190808051906020019092919050505050600760009054906101000a900473ffffffffffffffffffffffffffffffffffffffff1673ffffffffffffffffffffffffffffffffffffffff166323b872dd3033846040518463ffffffff167c0100000000000000000000000000000000000000000000000000000000028152600401808473ffffffffffffffffffffffffffffffffffffffff1673ffffffffffffffffffffffffffffffffffffffff1681526020018373ffffffffffffffffffffffffffffffffffffffff1673ffffffffffffffffffffffffffffffffffffffff1681526020018281526020019350505050602060405180830381600087803b15801561132c57600080fd5b505af1158015611340573d6000803e3d6000fd5b505050506040513d602081101561135657600080fd5b8101908080519060200190929190505050505050565b60065481565b600760009054906101000a900473ffffffffffffffffffffffffffffffffffffffff1681565b60008082848115156113a657fe5b0490508091505092915050565b600080828402905060008414806113d457508284828115156113d157fe5b04145b15156113dc57fe5b8091505092915050565b60008082840190508381101515156113fa57fe5b8091505092915050565b600082821115151561141257fe5b8183039050929150505600a165627a7a723058209234042391bb67c0129a6ceade3e6ed9d5c3a2372f39a7fae88092f174736b620029",
  "source": "\r\npragma solidity ^0.4.18;\r\n\r\nimport \"./vendor/KyberNetwork.sol\";\r\nimport \"./base/math/SafeMath.sol\";\r\nimport \"./interfaces/tokentrader.sol\";\r\nimport \"./StakingLibrary.sol\";\r\n\r\n\r\ncontract StakingContract {\r\n\r\n  using SafeMath for uint96; \r\n  using SafeMath for uint;\r\n\r\n  uint constant  REWARD_PERCENTAGE = 5;\r\n  uint constant  REWARD_ROUND_DURATION = 6;\r\n  \r\n  uint constant  WITHDRAWING_WHILE_ACTIVE_PENALTY = 20;\r\n \r\n  mapping (address => StakingLibrary.UserStakeData) userStakes;\r\n  mapping (uint => StakingLibrary.RewardData) rewards;\r\n\r\n  uint32 rewardRoundNumber = 0;\r\n \r\n  uint public totalEthReceived = 0;\r\n \r\n  uint public totalTokenLockedAmount = 0;\r\n \r\n  uint public currentRewardAmount = 0;\r\n\r\n  \r\n  uint public lastRewardDistributionDate;\r\n\r\n  ERC20 public token;\r\n \r\n  TokenTrader tokenTrader;\r\n  \r\n\r\n  constructor(address _tokenAddress, address _tokenTraderAddress) public {\r\n\r\n        // Check inputs\r\n    require(_tokenAddress != address(0));\r\n    require(_tokenTraderAddress != address(0));\r\n\r\n    token = ERC20(_tokenAddress);\r\n    tokenTrader = TokenTrader(_tokenTraderAddress);\r\n     \r\n  }\r\n\r\n\r\nfunction claimRewards() public{\r\n    \r\n     StakingLibrary.UserStakeData storage userData = userStakes[msg.sender];\r\n     \r\n     uint64 lastActiveDate;\r\n     uint96 lastAmount;\r\n\r\n     for(uint32 i=userData.lastRewardRoundClaimed; i < rewardRoundNumber; i++ ){\r\n         \r\n         StakingLibrary.UserHistoryData storage historyEntry = userData.history[i];\r\n         StakingLibrary.RewardData storage currentRewardRoundData= rewards[i];\r\n         \r\n         \r\n         if(historyEntry.amount > 0){\r\n           \r\n            uint reward = uint96(historyEntry.amount.div(currentRewardRoundData.totalEthReceived).mul(currentRewardRoundData.totalReward));\r\n         \r\n            userData.currentStakeAmount += uint96(reward);\r\n            \r\n            lastAmount = historyEntry.amount;\r\n            lastActiveDate = historyEntry.activeDate;\r\n             \r\n         }\r\n         else{\r\n            \r\n            //if amount = 0, user didn't send any fee during the reward round. in that case we need to check if the account was active or not. If still active,\r\n            //we calculate the reward based on the previous round amount, otherwise we send the reward back to the global StakeLibrary\r\n\r\n            reward = lastAmount.div(currentRewardRoundData.totalEthReceived).mul(currentRewardRoundData.totalReward);\r\n            \r\n            if(lastActiveDate >= currentRewardRoundData.rewardDate)\r\n                userData.currentStakeAmount += uint96(reward);\r\n            else //send back the reward to the global stake\r\n                totalTokenLockedAmount-=reward;\r\n\r\n         }\r\n     }\r\n     \r\n     userData.lastRewardRoundClaimed = rewardRoundNumber;\r\n     \r\n }\r\n \r\n function withdrawStake() public {\r\n\r\n    StakingLibrary.UserStakeData storage userData = userStakes[msg.sender];\r\n     \r\n    require(userData.currentStakeAmount > 0);\r\n\r\n    require(userData.lastRewardRoundClaimed == rewardRoundNumber);\r\n    \r\n     \r\n     \r\n    uint amountToWitdraw = userData.currentStakeAmount;\r\n     \r\n    if(userData.activeUntilDate <= now)\r\n        amountToWitdraw  = amountToWitdraw.sub(amountToWitdraw.mul(WITHDRAWING_WHILE_ACTIVE_PENALTY).div(100));\r\n\r\n    totalTokenLockedAmount=totalTokenLockedAmount.sub(userData.currentStakeAmount);\r\n    totalEthReceived=totalEthReceived.sub(userData.totalSentAmount);\r\n \r\n    \r\n    userData.currentStakeAmount = 0;\r\n    userData.totalSentAmount = 0;\r\n    userData.activeUntilDate = 0;\r\n\r\n    token.approve(this, amountToWitdraw);\r\n    token.transferFrom(this, msg.sender, amountToWitdraw);\r\n     \r\n }\r\n\r\n \r\n  function receive() external payable{\r\n \r\n    require(msg.value > 0);\r\n    \r\n    StakingLibrary.UserStakeData storage userData = userStakes[msg.sender];\r\n\r\n    if(userData.totalSentAmount == 0)\r\n        userData.lastRewardRoundClaimed = rewardRoundNumber;\r\n        \r\n    userData.totalSentAmount += uint96(msg.value);\r\n    userData.activeUntilDate = uint64(now + 90 days);\r\n\r\n    StakingLibrary.UserHistoryData storage historyEntry = userData.history[rewardRoundNumber];\r\n    \r\n    historyEntry.amount = userData.totalSentAmount;\r\n    historyEntry.activeDate = userData.activeUntilDate;\r\n\r\n\r\n    \r\n }\r\n \r\n  function calculateGlobalStakeSize() public view returns(uint size){\r\n     \r\n    size = token.balanceOf(this) - totalTokenLockedAmount;\r\n  }\r\n \r\n\r\n  function generateReward() public {\r\n     \r\n    uint currentGlobalStakeSize = calculateGlobalStakeSize();\r\n    \r\n    uint rewardAmount = currentGlobalStakeSize.mul(REWARD_PERCENTAGE).div(100);\r\n    \r\n    StakingLibrary.RewardData storage rewardData = rewards[rewardRoundNumber];\r\n    \r\n    rewardData.totalReward = rewardAmount;\r\n    rewardData.totalEthReceived = totalEthReceived;\r\n    rewardData.rewardDate = now;\r\n    \r\n    totalTokenLockedAmount += rewardAmount;\r\n    \r\n    ++rewardRoundNumber;\r\n  } \r\n \r\n\r\n  function convert() public{\r\n\r\n\r\n    tokenTrader.tradeTokens.value(address(this).balance)(token, this);\r\n\r\n    totalEthReceived = totalEthReceived.add(address(this).balance);\r\n    \r\n  }\r\n \r\n \r\n  function getUnclaimedRewards() public view returns(uint total, uint numOfUnpaidRewards){\r\n     \r\n         \r\n    StakingLibrary.UserStakeData storage data = userStakes[msg.sender];\r\n     \r\n    for(uint32 i = data.lastRewardRoundClaimed; i < rewardRoundNumber; i++ ){\r\n         \r\n         \r\n      StakingLibrary.UserHistoryData storage historyEntry = data.history[i];\r\n         \r\n      StakingLibrary.RewardData storage dataForRound = rewards[i];\r\n         \r\n      uint reward = historyEntry.amount.div(dataForRound.totalEthReceived).mul(dataForRound.totalReward);\r\n\r\n      total = total.add(reward);\r\n\r\n    }\r\n     \r\n    numOfUnpaidRewards = rewardRoundNumber-data.lastRewardRoundClaimed;\r\n  }\r\n \r\n \r\n function getCurrentRewardRound() public view returns(uint32){\r\n     \r\n     return rewardRoundNumber;\r\n }\r\n\r\n  \r\n   \r\nfunction getTotalRewardsForRound(uint32 index) public view returns (uint rewardAmount, uint ethReceived){\r\n    \r\n    require(index < rewardRoundNumber);\r\n    \r\n    StakingLibrary.RewardData storage data = rewards[index];\r\n    \r\n    rewardAmount = data.totalReward;\r\n    ethReceived = data.totalEthReceived;\r\n}\r\n\r\n function getUserStakeData() public view returns (uint96 stake, uint96 total, uint64 activeUntilDate){\r\n \r\n    StakingLibrary.UserStakeData storage stakeData = userStakes[msg.sender];\r\n    \r\n    stake = stakeData.currentStakeAmount;\r\n    total = stakeData.totalSentAmount;\r\n    activeUntilDate = stakeData.activeUntilDate;\r\n     \r\n }\r\n\r\n    \r\n    \r\n}",
  "sourcePath": "C:\\Users\\Emilio\\Documents\\GitHub\\Microstaking\\contracts\\StakingContract.sol",
  "compiler": {
    "name": "solc",
    "version": "0.4.24+commit.e67f0147.Emscripten.clang"
  },
  "schemaVersion": "2.0.1",
  "updatedAt": "2018-08-10T17:06:38.836Z"
}