{
  "contractName": "StakingContract",
  "abi": [
    {
      "constant": true,
      "inputs": [],
      "name": "totalTokenLockedAmount",
      "outputs": [
        {
          "name": "",
          "type": "uint256"
        }
      ],
      "payable": false,
      "stateMutability": "view",
      "type": "function"
    },
    {
      "constant": true,
      "inputs": [],
      "name": "currentRewardAmount",
      "outputs": [
        {
          "name": "",
          "type": "uint256"
        }
      ],
      "payable": false,
      "stateMutability": "view",
      "type": "function"
    },
    {
      "constant": true,
      "inputs": [],
      "name": "owner",
      "outputs": [
        {
          "name": "",
          "type": "address"
        }
      ],
      "payable": false,
      "stateMutability": "view",
      "type": "function"
    },
    {
      "constant": true,
      "inputs": [],
      "name": "totalEthReceived",
      "outputs": [
        {
          "name": "",
          "type": "uint256"
        }
      ],
      "payable": false,
      "stateMutability": "view",
      "type": "function"
    },
    {
      "constant": true,
      "inputs": [],
      "name": "nextRewardDate",
      "outputs": [
        {
          "name": "",
          "type": "uint256"
        }
      ],
      "payable": false,
      "stateMutability": "view",
      "type": "function"
    },
    {
      "constant": true,
      "inputs": [],
      "name": "lastRewardDistributionDate",
      "outputs": [
        {
          "name": "",
          "type": "uint256"
        }
      ],
      "payable": false,
      "stateMutability": "view",
      "type": "function"
    },
    {
      "constant": false,
      "inputs": [
        {
          "name": "newOwner",
          "type": "address"
        }
      ],
      "name": "transferOwnership",
      "outputs": [],
      "payable": false,
      "stateMutability": "nonpayable",
      "type": "function"
    },
    {
      "constant": true,
      "inputs": [],
      "name": "token",
      "outputs": [
        {
          "name": "",
          "type": "address"
        }
      ],
      "payable": false,
      "stateMutability": "view",
      "type": "function"
    },
    {
      "inputs": [
        {
          "name": "_tokenAddress",
          "type": "address"
        },
        {
          "name": "_tokenTraderAddress",
          "type": "address"
        },
        {
          "name": "_rewardCalculator",
          "type": "address"
        }
      ],
      "payable": false,
      "stateMutability": "nonpayable",
      "type": "constructor"
    },
    {
      "anonymous": false,
      "inputs": [
        {
          "indexed": true,
          "name": "previousOwner",
          "type": "address"
        },
        {
          "indexed": true,
          "name": "newOwner",
          "type": "address"
        }
      ],
      "name": "OwnershipTransferred",
      "type": "event"
    },
    {
      "constant": false,
      "inputs": [
        {
          "name": "_tokenTrader",
          "type": "address"
        }
      ],
      "name": "setTokenTrader",
      "outputs": [],
      "payable": false,
      "stateMutability": "nonpayable",
      "type": "function"
    },
    {
      "constant": false,
      "inputs": [
        {
          "name": "_rewardCalculator",
          "type": "address"
        }
      ],
      "name": "setRewardCalculator",
      "outputs": [],
      "payable": false,
      "stateMutability": "nonpayable",
      "type": "function"
    },
    {
      "constant": false,
      "inputs": [],
      "name": "claimRewards",
      "outputs": [
        {
          "name": "",
          "type": "uint256"
        }
      ],
      "payable": false,
      "stateMutability": "nonpayable",
      "type": "function"
    },
    {
      "constant": false,
      "inputs": [],
      "name": "withdrawStake",
      "outputs": [],
      "payable": false,
      "stateMutability": "nonpayable",
      "type": "function"
    },
    {
      "constant": false,
      "inputs": [
        {
          "name": "_sender",
          "type": "address"
        },
        {
          "name": "_applicationID",
          "type": "uint16"
        }
      ],
      "name": "receive",
      "outputs": [],
      "payable": true,
      "stateMutability": "payable",
      "type": "function"
    },
    {
      "constant": true,
      "inputs": [],
      "name": "calculateGlobalStakeSize",
      "outputs": [
        {
          "name": "size",
          "type": "uint256"
        }
      ],
      "payable": false,
      "stateMutability": "view",
      "type": "function"
    },
    {
      "constant": false,
      "inputs": [],
      "name": "generateReward",
      "outputs": [],
      "payable": false,
      "stateMutability": "nonpayable",
      "type": "function"
    },
    {
      "constant": false,
      "inputs": [],
      "name": "convert",
      "outputs": [],
      "payable": false,
      "stateMutability": "nonpayable",
      "type": "function"
    },
    {
      "constant": true,
      "inputs": [],
      "name": "getUnclaimedRewards",
      "outputs": [
        {
          "name": "total",
          "type": "uint256"
        },
        {
          "name": "numOfUnpaidRewards",
          "type": "uint256"
        }
      ],
      "payable": false,
      "stateMutability": "view",
      "type": "function"
    },
    {
      "constant": true,
      "inputs": [],
      "name": "getCurrentRewardRound",
      "outputs": [
        {
          "name": "",
          "type": "uint32"
        }
      ],
      "payable": false,
      "stateMutability": "view",
      "type": "function"
    },
    {
      "constant": true,
      "inputs": [
        {
          "name": "rewardIndex",
          "type": "uint256"
        }
      ],
      "name": "getRewardRoundDate",
      "outputs": [
        {
          "name": "",
          "type": "uint64"
        }
      ],
      "payable": false,
      "stateMutability": "view",
      "type": "function"
    },
    {
      "constant": true,
      "inputs": [
        {
          "name": "index",
          "type": "uint32"
        }
      ],
      "name": "getTotalRewardsForRound",
      "outputs": [
        {
          "name": "rewardAmount",
          "type": "uint256"
        },
        {
          "name": "ethReceived",
          "type": "uint256"
        }
      ],
      "payable": false,
      "stateMutability": "view",
      "type": "function"
    },
    {
      "constant": true,
      "inputs": [
        {
          "name": "_user",
          "type": "address"
        }
      ],
      "name": "getUserStakeData",
      "outputs": [
        {
          "name": "amount",
          "type": "uint96"
        },
        {
          "name": "lastRewardRoundClaimed",
          "type": "uint96"
        },
        {
          "name": "lastHistoryEntryOnClaimed",
          "type": "uint256"
        },
        {
          "name": "numOfHistoryEntries",
          "type": "uint256"
        }
      ],
      "payable": false,
      "stateMutability": "view",
      "type": "function"
    },
    {
      "constant": true,
      "inputs": [
        {
          "name": "_user",
          "type": "address"
        },
        {
          "name": "index",
          "type": "uint256"
        }
      ],
      "name": "getUserHistoryData",
      "outputs": [
        {
          "name": "amount",
          "type": "uint96"
        },
        {
          "name": "date",
          "type": "uint64"
        },
        {
          "name": "applicationID",
          "type": "uint16"
        }
      ],
      "payable": false,
      "stateMutability": "view",
      "type": "function"
    },
    {
      "constant": false,
      "inputs": [
        {
          "name": "duration",
          "type": "uint256"
        }
      ],
      "name": "setRewardRoundDuration",
      "outputs": [],
      "payable": false,
      "stateMutability": "nonpayable",
      "type": "function"
    },
    {
      "constant": false,
      "inputs": [
        {
          "name": "percentage",
          "type": "uint256"
        }
      ],
      "name": "setRewardPercentage",
      "outputs": [],
      "payable": false,
      "stateMutability": "nonpayable",
      "type": "function"
    }
  ],
  "bytecode": "0x6080604052610e1060015560056002556014600355601e6004556000600760006101000a81548163ffffffff021916908363ffffffff160217905550600060085560006009556000600a5534801561005657600080fd5b50604051606080611d6d833981018060405281019080805190602001909291908051906020019092919080519060200190929190505050336000806101000a81548173ffffffffffffffffffffffffffffffffffffffff021916908373ffffffffffffffffffffffffffffffffffffffff160217905550600073ffffffffffffffffffffffffffffffffffffffff168373ffffffffffffffffffffffffffffffffffffffff161415151561010957600080fd5b600073ffffffffffffffffffffffffffffffffffffffff168273ffffffffffffffffffffffffffffffffffffffff161415151561014557600080fd5b82600d60006101000a81548173ffffffffffffffffffffffffffffffffffffffff021916908373ffffffffffffffffffffffffffffffffffffffff16021790555081600e60006101000a81548173ffffffffffffffffffffffffffffffffffffffff021916908373ffffffffffffffffffffffffffffffffffffffff16021790555080600f60006101000a81548173ffffffffffffffffffffffffffffffffffffffff021916908373ffffffffffffffffffffffffffffffffffffffff16021790555061021f61022d640100000000026401000000009004565b600c81905550505050610239565b60006001544201905090565b611b25806102486000396000f30060806040526004361061013e576000357c0100000000000000000000000000000000000000000000000000000000900463ffffffff16806301132b4414610143578063096536741461017a578063150da11e146101a7578063162302571461024e57806320ea2439146102805780632bd4b2d0146102ab578063372500ab146102ee5780634800715c146103195780635a4fd645146103445780635b91e4261461036f57806366fef7c4146103b25780637b9cc5f2146104075780638da5cb5b1461045557806391bbdcc7146104ac578063a9a18dda146104c3578063ace4a227146104ee578063bed9d86114610505578063c35566941461051c578063c5d8796214610547578063cdff5c4214610572578063e9ce34a5146105b6578063f2fde38b1461065a578063fb9721bf1461069d578063fc0c546a146106ca575b600080fd5b34801561014f57600080fd5b50610158610721565b604051808263ffffffff1663ffffffff16815260200191505060405180910390f35b34801561018657600080fd5b506101a56004803603810190808035906020019092919050505061073b565b005b3480156101b357600080fd5b506101f2600480360381019080803573ffffffffffffffffffffffffffffffffffffffff169060200190929190803590602001909291905050506107b0565b60405180846bffffffffffffffffffffffff166bffffffffffffffffffffffff1681526020018367ffffffffffffffff1667ffffffffffffffff1681526020018261ffff1661ffff168152602001935050505060405180910390f35b34801561025a57600080fd5b5061026361089c565b604051808381526020018281526020019250505060405180910390f35b34801561028c57600080fd5b50610295610a3e565b6040518082815260200191505060405180910390f35b3480156102b757600080fd5b506102ec600480360381019080803573ffffffffffffffffffffffffffffffffffffffff169060200190929190505050610b41565b005b3480156102fa57600080fd5b50610303610be0565b6040518082815260200191505060405180910390f35b34801561032557600080fd5b5061032e610de7565b6040518082815260200191505060405180910390f35b34801561035057600080fd5b50610359610ded565b6040518082815260200191505060405180910390f35b34801561037b57600080fd5b506103b0600480360381019080803573ffffffffffffffffffffffffffffffffffffffff169060200190929190505050610df3565b005b3480156103be57600080fd5b506103dd60048036038101908080359060200190929190505050610e92565b604051808267ffffffffffffffff1667ffffffffffffffff16815260200191505060405180910390f35b34801561041357600080fd5b50610438600480360381019080803563ffffffff169060200190929190505050610ef1565b604051808381526020018281526020019250505060405180910390f35b34801561046157600080fd5b5061046a610f51565b604051808273ffffffffffffffffffffffffffffffffffffffff1673ffffffffffffffffffffffffffffffffffffffff16815260200191505060405180910390f35b3480156104b857600080fd5b506104c1610f76565b005b3480156104cf57600080fd5b506104d8611100565b6040518082815260200191505060405180910390f35b3480156104fa57600080fd5b50610503611106565b005b34801561051157600080fd5b5061051a61123e565b005b34801561052857600080fd5b506105316116de565b6040518082815260200191505060405180910390f35b34801561055357600080fd5b5061055c6116e4565b6040518082815260200191505060405180910390f35b6105b4600480360381019080803573ffffffffffffffffffffffffffffffffffffffff169060200190929190803561ffff1690602001909291905050506116ea565b005b3480156105c257600080fd5b506105f7600480360381019080803573ffffffffffffffffffffffffffffffffffffffff1690602001909291905050506117ed565b60405180856bffffffffffffffffffffffff166bffffffffffffffffffffffff168152602001846bffffffffffffffffffffffff166bffffffffffffffffffffffff16815260200183815260200182815260200194505050505060405180910390f35b34801561066657600080fd5b5061069b600480360381019080803573ffffffffffffffffffffffffffffffffffffffff169060200190929190505050611888565b005b3480156106a957600080fd5b506106c8600480360381019080803590602001909291905050506119dd565b005b3480156106d657600080fd5b506106df611a42565b604051808273ffffffffffffffffffffffffffffffffffffffff1673ffffffffffffffffffffffffffffffffffffffff16815260200191505060405180910390f35b6000600760009054906101000a900463ffffffff16905090565b6000809054906101000a900473ffffffffffffffffffffffffffffffffffffffff1673ffffffffffffffffffffffffffffffffffffffff163373ffffffffffffffffffffffffffffffffffffffff1614151561079657600080fd5b606481111515156107a657600080fd5b8060028190555050565b600080600080600560008773ffffffffffffffffffffffffffffffffffffffff1673ffffffffffffffffffffffffffffffffffffffff168152602001908152602001600020905080600301548510151561080957600080fd5b80600201600086815260200190815260200160002060000160009054906101000a90046bffffffffffffffffffffffff169350806002016000868152602001908152602001600020600001600c9054906101000a900467ffffffffffffffff16925080600201600086815260200190815260200160002060000160149054906101000a900461ffff169150509250925092565b6000806000600560003373ffffffffffffffffffffffffffffffffffffffff1673ffffffffffffffffffffffffffffffffffffffff1681526020019081526020016000209050600f60009054906101000a900473ffffffffffffffffffffffffffffffffffffffff1673ffffffffffffffffffffffffffffffffffffffff1663d82e3962336040518263ffffffff167c0100000000000000000000000000000000000000000000000000000000028152600401808273ffffffffffffffffffffffffffffffffffffffff1673ffffffffffffffffffffffffffffffffffffffff168152602001915050602060405180830381600087803b15801561099f57600080fd5b505af11580156109b3573d6000803e3d6000fd5b505050506040513d60208110156109c957600080fd5b81019080805190602001909291905050508160000160009054906101000a90046bffffffffffffffffffffffff16016bffffffffffffffffffffffff16925080600001600c9054906101000a900463ffffffff16600760009054906101000a900463ffffffff160363ffffffff169150509091565b6000600954600d60009054906101000a900473ffffffffffffffffffffffffffffffffffffffff1673ffffffffffffffffffffffffffffffffffffffff166370a08231306040518263ffffffff167c0100000000000000000000000000000000000000000000000000000000028152600401808273ffffffffffffffffffffffffffffffffffffffff1673ffffffffffffffffffffffffffffffffffffffff168152602001915050602060405180830381600087803b158015610b0057600080fd5b505af1158015610b14573d6000803e3d6000fd5b505050506040513d6020811015610b2a57600080fd5b810190808051906020019092919050505003905090565b6000809054906101000a900473ffffffffffffffffffffffffffffffffffffffff1673ffffffffffffffffffffffffffffffffffffffff163373ffffffffffffffffffffffffffffffffffffffff16141515610b9c57600080fd5b80600f60006101000a81548173ffffffffffffffffffffffffffffffffffffffff021916908373ffffffffffffffffffffffffffffffffffffffff16021790555050565b6000806000600560003373ffffffffffffffffffffffffffffffffffffffff1673ffffffffffffffffffffffffffffffffffffffff1681526020019081526020016000209150600f60009054906101000a900473ffffffffffffffffffffffffffffffffffffffff1673ffffffffffffffffffffffffffffffffffffffff1663d82e3962336040518263ffffffff167c0100000000000000000000000000000000000000000000000000000000028152600401808273ffffffffffffffffffffffffffffffffffffffff1673ffffffffffffffffffffffffffffffffffffffff168152602001915050602060405180830381600087803b158015610ce357600080fd5b505af1158015610cf7573d6000803e3d6000fd5b505050506040513d6020811015610d0d57600080fd5b81019080805190602001909291905050509050808260000160008282829054906101000a90046bffffffffffffffffffffffff160192506101000a8154816bffffffffffffffffffffffff02191690836bffffffffffffffffffffffff16021790555060018260030154038260010181905550600760009054906101000a900463ffffffff1682600001600c6101000a81548163ffffffff021916908363ffffffff1602179055508160000160009054906101000a90046bffffffffffffffffffffffff166bffffffffffffffffffffffff169250505090565b60095481565b600a5481565b6000809054906101000a900473ffffffffffffffffffffffffffffffffffffffff1673ffffffffffffffffffffffffffffffffffffffff163373ffffffffffffffffffffffffffffffffffffffff16141515610e4e57600080fd5b80600e60006101000a81548173ffffffffffffffffffffffffffffffffffffffff021916908373ffffffffffffffffffffffffffffffffffffffff16021790555050565b600080600760009054906101000a900463ffffffff1663ffffffff1683101515610ebb57600080fd5b6006600084815260200190815260200160002090508060020160009054906101000a900467ffffffffffffffff16915050919050565b6000806000600760009054906101000a900463ffffffff1663ffffffff168463ffffffff16101515610f2257600080fd5b600660008563ffffffff1681526020019081526020016000209050806000015492508060010154915050915091565b6000809054906101000a900473ffffffffffffffffffffffffffffffffffffffff1681565b60003073ffffffffffffffffffffffffffffffffffffffff16319050600e60009054906101000a900473ffffffffffffffffffffffffffffffffffffffff1673ffffffffffffffffffffffffffffffffffffffff1663791c754d82600d60009054906101000a900473ffffffffffffffffffffffffffffffffffffffff16306040518463ffffffff167c0100000000000000000000000000000000000000000000000000000000028152600401808373ffffffffffffffffffffffffffffffffffffffff1673ffffffffffffffffffffffffffffffffffffffff1681526020018273ffffffffffffffffffffffffffffffffffffffff1673ffffffffffffffffffffffffffffffffffffffff168152602001925050506020604051808303818588803b1580156110a557600080fd5b505af11580156110b9573d6000803e3d6000fd5b50505050506040513d60208110156110d057600080fd5b8101908080519060200190929190505050506110f781600854611a6890919063ffffffff16565b60088190555050565b60085481565b6000806000600c54421015151561111c57600080fd5b60003073ffffffffffffffffffffffffffffffffffffffff1631111561114557611144610f76565b5b61114d610a3e565b9250611177606461116960025486611a8690919063ffffffff16565b611ab990919063ffffffff16565b915060066000600760009054906101000a900463ffffffff1663ffffffff16815260200190815260200160002090508181600001819055506008548160010181905550428160020160006101000a81548167ffffffffffffffff021916908367ffffffffffffffff160217905550816009600082825401925050819055506007600081819054906101000a900463ffffffff1660010191906101000a81548163ffffffff021916908363ffffffff160217905550611233611ad4565b600c81905550505050565b600080600560003373ffffffffffffffffffffffffffffffffffffffff1673ffffffffffffffffffffffffffffffffffffffff168152602001908152602001600020915060008260000160009054906101000a90046bffffffffffffffffffffffff166bffffffffffffffffffffffff161115156112bb57600080fd5b600760009054906101000a900463ffffffff1663ffffffff1682600001600c9054906101000a900463ffffffff1663ffffffff161415156112fb57600080fd5b600f60009054906101000a900473ffffffffffffffffffffffffffffffffffffffff1673ffffffffffffffffffffffffffffffffffffffff16632ee95349336040518263ffffffff167c0100000000000000000000000000000000000000000000000000000000028152600401808273ffffffffffffffffffffffffffffffffffffffff1673ffffffffffffffffffffffffffffffffffffffff168152602001915050602060405180830381600087803b1580156113b857600080fd5b505af11580156113cc573d6000803e3d6000fd5b505050506040513d60208110156113e257600080fd5b810190808051906020019092919050505015156113fe57600080fd5b8160000160009054906101000a90046bffffffffffffffffffffffff166bffffffffffffffffffffffff16905061146a8260000160009054906101000a90046bffffffffffffffffffffffff166bffffffffffffffffffffffff16600954611ae090919063ffffffff16565b60098190555060008260000160006101000a8154816bffffffffffffffffffffffff02191690836bffffffffffffffffffffffff160217905550600d60009054906101000a900473ffffffffffffffffffffffffffffffffffffffff1673ffffffffffffffffffffffffffffffffffffffff1663095ea7b330836040518363ffffffff167c0100000000000000000000000000000000000000000000000000000000028152600401808373ffffffffffffffffffffffffffffffffffffffff1673ffffffffffffffffffffffffffffffffffffffff16815260200182815260200192505050602060405180830381600087803b15801561156957600080fd5b505af115801561157d573d6000803e3d6000fd5b505050506040513d602081101561159357600080fd5b810190808051906020019092919050505050600d60009054906101000a900473ffffffffffffffffffffffffffffffffffffffff1673ffffffffffffffffffffffffffffffffffffffff166323b872dd3033846040518463ffffffff167c0100000000000000000000000000000000000000000000000000000000028152600401808473ffffffffffffffffffffffffffffffffffffffff1673ffffffffffffffffffffffffffffffffffffffff1681526020018373ffffffffffffffffffffffffffffffffffffffff1673ffffffffffffffffffffffffffffffffffffffff1681526020018281526020019350505050602060405180830381600087803b15801561169e57600080fd5b505af11580156116b2573d6000803e3d6000fd5b505050506040513d60208110156116c857600080fd5b8101908080519060200190929190505050505050565b600c5481565b600b5481565b6000806000341115156116fc57600080fd5b600560008573ffffffffffffffffffffffffffffffffffffffff1673ffffffffffffffffffffffffffffffffffffffff1681526020019081526020016000209150816002016000836003015481526020019081526020016000209050348160000160006101000a8154816bffffffffffffffffffffffff02191690836bffffffffffffffffffffffff1602179055504281600001600c6101000a81548167ffffffffffffffff021916908367ffffffffffffffff160217905550828160000160146101000a81548161ffff021916908361ffff16021790555081600301600081546001019190508190555050505050565b6000806000806000600560008773ffffffffffffffffffffffffffffffffffffffff1673ffffffffffffffffffffffffffffffffffffffff16815260200190815260200160002090508060000160009054906101000a90046bffffffffffffffffffffffff16945080600001600c9054906101000a900463ffffffff1663ffffffff1693508060010154925080600301549150509193509193565b6000809054906101000a900473ffffffffffffffffffffffffffffffffffffffff1673ffffffffffffffffffffffffffffffffffffffff163373ffffffffffffffffffffffffffffffffffffffff161415156118e357600080fd5b600073ffffffffffffffffffffffffffffffffffffffff168173ffffffffffffffffffffffffffffffffffffffff161415151561191f57600080fd5b8073ffffffffffffffffffffffffffffffffffffffff166000809054906101000a900473ffffffffffffffffffffffffffffffffffffffff1673ffffffffffffffffffffffffffffffffffffffff167f8be0079c531659141344cd1fd0a4f28419497f9722a3daafe3b4186f6b6457e060405160405180910390a3806000806101000a81548173ffffffffffffffffffffffffffffffffffffffff021916908373ffffffffffffffffffffffffffffffffffffffff16021790555050565b6000809054906101000a900473ffffffffffffffffffffffffffffffffffffffff1673ffffffffffffffffffffffffffffffffffffffff163373ffffffffffffffffffffffffffffffffffffffff16141515611a3857600080fd5b8060018190555050565b600d60009054906101000a900473ffffffffffffffffffffffffffffffffffffffff1681565b6000808284019050838110151515611a7c57fe5b8091505092915050565b60008082840290506000841480611aa75750828482811515611aa457fe5b04145b1515611aaf57fe5b8091505092915050565b6000808284811515611ac757fe5b0490508091505092915050565b60006001544201905090565b6000828211151515611aee57fe5b8183039050929150505600a165627a7a72305820b9144c27267f78beb801adca707891bc663c588a9e6e1bbffb245faf4d30010d0029",
  "source": "\npragma solidity ^0.4.24;\n\nimport \"./vendor/KyberNetwork.sol\";\nimport \"./base/math/SafeMath.sol\";\nimport \"./base/ownership/Ownable.sol\";\nimport \"./interfaces/IStakingContract.sol\";\nimport \"./interfaces/ITokenTrader.sol\";\nimport \"./interfaces/IRewardCalculator.sol\";\nimport \"./StakingLibrary.sol\";\n\n\ncontract StakingContract is Ownable, IStakingContract {\n\n  using SafeMath for uint96; \n  using SafeMath for uint;\n\n\n  /*********TEST PARAMETERS*********/\n  uint REWARD_ROUND_DURATION = 1 hours; //Reward generation interval in days\n  /**********************************/\n  \n  /********PRODUCTION PARAMETERS*****/\n  //uint REWARD_ROUND_DURATION = 120 days; //Reward generation interval in days\n  /**********************************/\n  \n  uint REWARD_PERCENTAGE = 5;\n  \n  uint WITHDRAWING_WHILE_ACTIVE_PENALTY = 20;\n  uint WITHDRAWAL_TIMEFRAME = 30;\n \n  mapping (address => StakingLibrary.UserStakeData) userStakes;\n  mapping (uint => StakingLibrary.RewardData) rewards;\n\n  uint32 rewardRoundNumber = 0;\n \n  uint public totalEthReceived = 0;\n \n  uint public totalTokenLockedAmount = 0;\n \n  uint public currentRewardAmount = 0;\n\n  \n  uint public lastRewardDistributionDate;\n  uint public nextRewardDate;\n\n  ERC20 public token;\n \n  ITokenTrader tokenTrader;\n  IRewardCalculator rewardCalculator;\n  \n\n  constructor(address _tokenAddress, address _tokenTraderAddress, address _rewardCalculator) public {\n\n        // Check inputs\n    require(_tokenAddress != address(0));\n    require(_tokenTraderAddress != address(0));\n\n    token = ERC20(_tokenAddress);\n    tokenTrader = ITokenTrader(_tokenTraderAddress);\n    rewardCalculator = IRewardCalculator(_rewardCalculator);\n    nextRewardDate = calculateNextRewardDate();\n     \n  }\n  \n function setTokenTrader(address _tokenTrader) public onlyOwner {\n     \n     tokenTrader = ITokenTrader(_tokenTrader);\n }\n\n function setRewardCalculator(address _rewardCalculator) public onlyOwner {\n     \n     rewardCalculator = IRewardCalculator(_rewardCalculator);\n }\n\n\nfunction claimRewards() public returns(uint){\n    \n     StakingLibrary.UserStakeData storage userData = userStakes[msg.sender];\n\n     uint96 pendingReward = rewardCalculator.calculateReward(msg.sender);\n     \n     \n     userData.currentStakeAmount += pendingReward;\n     userData.lastHistoryEntryOnClaimed = userData.numOfHistoryEntries-1;\n \n     userData.lastRewardRoundClaimed = rewardRoundNumber;\n\n    return userData.currentStakeAmount;   \n }\n \n function withdrawStake() public {\n\n    StakingLibrary.UserStakeData storage userData = userStakes[msg.sender];\n     \n    require(userData.currentStakeAmount > 0);\n\n    require(userData.lastRewardRoundClaimed == rewardRoundNumber);\n    \n    require(rewardCalculator.canUserWithdraw(msg.sender));\n\n    uint amountToWitdraw = userData.currentStakeAmount;\n\n    totalTokenLockedAmount=totalTokenLockedAmount.sub(userData.currentStakeAmount);\n\n    userData.currentStakeAmount = 0;\n    \n    token.approve(this, amountToWitdraw);\n\n    token.transferFrom(this, msg.sender, amountToWitdraw);\n\n     \n }\n\n \n  function receive(address _sender, uint16 _applicationID) external payable {\n \n    require(msg.value > 0);\n    \n     StakingLibrary.UserStakeData storage userData = userStakes[_sender];\n  \n    StakingLibrary.UserHistoryData storage historyEntry = userData.history[userData.numOfHistoryEntries];\n    \n    historyEntry.amount = uint96(msg.value);\n    historyEntry.date = uint64(block.timestamp);\n    historyEntry.applicationID = _applicationID;\n\n    ++userData.numOfHistoryEntries;\n  \n  }\n \n  function calculateGlobalStakeSize() public view returns(uint size){\n     \n    size = token.balanceOf(this) - totalTokenLockedAmount;\n  \n  }\n \n\n  function generateReward() public {\n    \n    require(now >= nextRewardDate);\n    \n    if(address(this).balance > 0) //convert has to be called before generateReward\n      convert();\n\n    uint currentGlobalStakeSize = calculateGlobalStakeSize();\n    \n    uint rewardAmount = currentGlobalStakeSize.mul(REWARD_PERCENTAGE).div(100);\n    \n    StakingLibrary.RewardData storage rewardData = rewards[rewardRoundNumber];\n    \n    rewardData.totalReward = rewardAmount;\n    rewardData.totalEthReceived = totalEthReceived;\n    rewardData.rewardDate = uint64(block.timestamp);\n    \n    totalTokenLockedAmount += rewardAmount;\n    \n    ++rewardRoundNumber;\n    \n    \n    \n    nextRewardDate = calculateNextRewardDate();\n    \n  } \n \n\n  function convert() public{\n\n\n    uint currentBalance = address(this).balance;\n\n  \n    tokenTrader.tradeTokens.value(currentBalance)(token, this);\n\n    totalEthReceived = totalEthReceived.add(currentBalance);\n   \n  }\n \n \n  function getUnclaimedRewards() public view returns(uint total, uint numOfUnpaidRewards){\n     \n         \n    StakingLibrary.UserStakeData storage data = userStakes[msg.sender];\n     \n  \n    total = data.currentStakeAmount + rewardCalculator.calculateReward(msg.sender);\n     \n    numOfUnpaidRewards = rewardRoundNumber-data.lastRewardRoundClaimed;\n  }\n \n \n function getCurrentRewardRound() public view returns(uint32){\n     \n     return rewardRoundNumber;\n }\n\n function getRewardRoundDate(uint rewardIndex) public view returns(uint64) {\n  \n    require(rewardIndex < rewardRoundNumber);\n\n     StakingLibrary.RewardData storage data = rewards[rewardIndex];\n          \n    return data.rewardDate;\n }\n\n  \n   \nfunction getTotalRewardsForRound(uint32 index) public view returns (uint rewardAmount, uint ethReceived){\n    \n    require(index < rewardRoundNumber);\n    \n    StakingLibrary.RewardData storage data = rewards[index];\n    \n    rewardAmount = data.totalReward;\n    ethReceived = data.totalEthReceived;\n}\n\n function getUserStakeData(address _user) public view returns (uint96 amount, uint96 lastRewardRoundClaimed, uint lastHistoryEntryOnClaimed, uint numOfHistoryEntries){\n \n    StakingLibrary.UserStakeData storage stakeData = userStakes[_user];\n    \n    amount = stakeData.currentStakeAmount;\n    lastRewardRoundClaimed = stakeData.lastRewardRoundClaimed;\n    lastHistoryEntryOnClaimed = stakeData.lastHistoryEntryOnClaimed;\n    numOfHistoryEntries = stakeData.numOfHistoryEntries;\n\n }\n \n\n function getUserHistoryData(address _user, uint index) public view returns (uint96 amount,uint64 date,uint16 applicationID) {\n     \n       StakingLibrary.UserStakeData storage stakeData = userStakes[_user];\n\n       require(index < stakeData.numOfHistoryEntries );\n       \n  \n       amount = stakeData.history[index].amount;\n       date = stakeData.history[index].date;\n       applicationID = stakeData.history[index].applicationID;\n }\n\n\n  function calculateNextRewardDate() internal view returns(uint){\n      \n\n      return block.timestamp+REWARD_ROUND_DURATION;\n  }\n\n\n  //contract management functions\n\n  function setRewardRoundDuration(uint duration) onlyOwner public {\n\n      REWARD_ROUND_DURATION = duration;\n  }\n\n  function setRewardPercentage(uint percentage) onlyOwner public {\n\n      require(percentage <= 100);\n\n      REWARD_PERCENTAGE = percentage;\n  }\n\n}",
  "sourcePath": "/home/emilio/code/Microstaking/contracts/StakingContract.sol",
  "compiler": {
    "name": "solc",
    "version": "0.4.24+commit.e67f0147.Emscripten.clang"
  },
  "schemaVersion": "2.0.1",
  "updatedAt": "2019-01-28T13:28:33.197Z"
}