{
  "contractName": "StakingContract",
  "abi": [
    {
      "constant": true,
      "inputs": [],
      "name": "totalTokenLockedAmount",
      "outputs": [
        {
          "name": "",
          "type": "uint256"
        }
      ],
      "payable": false,
      "stateMutability": "view",
      "type": "function"
    },
    {
      "constant": true,
      "inputs": [],
      "name": "currentRewardAmount",
      "outputs": [
        {
          "name": "",
          "type": "uint256"
        }
      ],
      "payable": false,
      "stateMutability": "view",
      "type": "function"
    },
    {
      "constant": true,
      "inputs": [],
      "name": "owner",
      "outputs": [
        {
          "name": "",
          "type": "address"
        }
      ],
      "payable": false,
      "stateMutability": "view",
      "type": "function"
    },
    {
      "constant": true,
      "inputs": [],
      "name": "totalEthReceived",
      "outputs": [
        {
          "name": "",
          "type": "uint256"
        }
      ],
      "payable": false,
      "stateMutability": "view",
      "type": "function"
    },
    {
      "constant": true,
      "inputs": [],
      "name": "nextRewardDate",
      "outputs": [
        {
          "name": "",
          "type": "uint256"
        }
      ],
      "payable": false,
      "stateMutability": "view",
      "type": "function"
    },
    {
      "constant": true,
      "inputs": [],
      "name": "lastRewardDistributionDate",
      "outputs": [
        {
          "name": "",
          "type": "uint256"
        }
      ],
      "payable": false,
      "stateMutability": "view",
      "type": "function"
    },
    {
      "constant": false,
      "inputs": [
        {
          "name": "newOwner",
          "type": "address"
        }
      ],
      "name": "transferOwnership",
      "outputs": [],
      "payable": false,
      "stateMutability": "nonpayable",
      "type": "function"
    },
    {
      "constant": true,
      "inputs": [],
      "name": "token",
      "outputs": [
        {
          "name": "",
          "type": "address"
        }
      ],
      "payable": false,
      "stateMutability": "view",
      "type": "function"
    },
    {
      "inputs": [
        {
          "name": "_tokenAddress",
          "type": "address"
        },
        {
          "name": "_tokenTraderAddress",
          "type": "address"
        }
      ],
      "payable": false,
      "stateMutability": "nonpayable",
      "type": "constructor"
    },
    {
      "anonymous": false,
      "inputs": [
        {
          "indexed": true,
          "name": "previousOwner",
          "type": "address"
        },
        {
          "indexed": true,
          "name": "newOwner",
          "type": "address"
        }
      ],
      "name": "OwnershipTransferred",
      "type": "event"
    },
    {
      "constant": false,
      "inputs": [],
      "name": "claimRewards",
      "outputs": [],
      "payable": false,
      "stateMutability": "nonpayable",
      "type": "function"
    },
    {
      "constant": false,
      "inputs": [],
      "name": "withdrawStake",
      "outputs": [],
      "payable": false,
      "stateMutability": "nonpayable",
      "type": "function"
    },
    {
      "constant": false,
      "inputs": [],
      "name": "receive",
      "outputs": [],
      "payable": true,
      "stateMutability": "payable",
      "type": "function"
    },
    {
      "constant": true,
      "inputs": [],
      "name": "calculateGlobalStakeSize",
      "outputs": [
        {
          "name": "size",
          "type": "uint256"
        }
      ],
      "payable": false,
      "stateMutability": "view",
      "type": "function"
    },
    {
      "constant": false,
      "inputs": [],
      "name": "generateReward",
      "outputs": [],
      "payable": false,
      "stateMutability": "nonpayable",
      "type": "function"
    },
    {
      "constant": false,
      "inputs": [],
      "name": "convert",
      "outputs": [],
      "payable": false,
      "stateMutability": "nonpayable",
      "type": "function"
    },
    {
      "constant": true,
      "inputs": [],
      "name": "getUnclaimedRewards",
      "outputs": [
        {
          "name": "total",
          "type": "uint256"
        },
        {
          "name": "numOfUnpaidRewards",
          "type": "uint256"
        }
      ],
      "payable": false,
      "stateMutability": "view",
      "type": "function"
    },
    {
      "constant": true,
      "inputs": [],
      "name": "getCurrentRewardRound",
      "outputs": [
        {
          "name": "",
          "type": "uint32"
        }
      ],
      "payable": false,
      "stateMutability": "view",
      "type": "function"
    },
    {
      "constant": true,
      "inputs": [
        {
          "name": "index",
          "type": "uint32"
        }
      ],
      "name": "getTotalRewardsForRound",
      "outputs": [
        {
          "name": "rewardAmount",
          "type": "uint256"
        },
        {
          "name": "ethReceived",
          "type": "uint256"
        }
      ],
      "payable": false,
      "stateMutability": "view",
      "type": "function"
    },
    {
      "constant": true,
      "inputs": [],
      "name": "getUserStakeData",
      "outputs": [
        {
          "name": "stake",
          "type": "uint96"
        },
        {
          "name": "total",
          "type": "uint96"
        },
        {
          "name": "activeUntilDate",
          "type": "uint64"
        }
      ],
      "payable": false,
      "stateMutability": "view",
      "type": "function"
    },
    {
      "constant": false,
      "inputs": [
        {
          "name": "duration",
          "type": "uint256"
        }
      ],
      "name": "setRewardRoundDuration",
      "outputs": [],
      "payable": false,
      "stateMutability": "nonpayable",
      "type": "function"
    },
    {
      "constant": false,
      "inputs": [
        {
          "name": "percentage",
          "type": "uint256"
        }
      ],
      "name": "setRewardPercentage",
      "outputs": [],
      "payable": false,
      "stateMutability": "nonpayable",
      "type": "function"
    }
  ],
  "bytecode": "0x6080604052600560015560786002556014600355601e6004556000600760006101000a81548163ffffffff021916908363ffffffff160217905550600060085560006009556000600a5534801561005557600080fd5b50604051604080611a668339810180604052810190808051906020019092919080519060200190929190505050336000806101000a81548173ffffffffffffffffffffffffffffffffffffffff021916908373ffffffffffffffffffffffffffffffffffffffff160217905550600073ffffffffffffffffffffffffffffffffffffffff168273ffffffffffffffffffffffffffffffffffffffff16141515156100fe57600080fd5b600073ffffffffffffffffffffffffffffffffffffffff168173ffffffffffffffffffffffffffffffffffffffff161415151561013a57600080fd5b81600d60006101000a81548173ffffffffffffffffffffffffffffffffffffffff021916908373ffffffffffffffffffffffffffffffffffffffff16021790555080600e60006101000a81548173ffffffffffffffffffffffffffffffffffffffff021916908373ffffffffffffffffffffffffffffffffffffffff1602179055505050611899806101cd6000396000f300608060405260043610610112576000357c0100000000000000000000000000000000000000000000000000000000900463ffffffff16806301132b44146101175780630634dc071461014e57806309653674146101d3578063162302571461020057806320ea243914610232578063372500ab1461025d5780634800715c146102745780635a4fd6451461029f5780637b9cc5f2146102ca5780638da5cb5b1461031857806391bbdcc71461036f578063a3e76c0f14610386578063a9a18dda14610390578063ace4a227146103bb578063bed9d861146103d2578063c3556694146103e9578063c5d8796214610414578063f2fde38b1461043f578063fb9721bf14610482578063fc0c546a146104af575b600080fd5b34801561012357600080fd5b5061012c610506565b604051808263ffffffff1663ffffffff16815260200191505060405180910390f35b34801561015a57600080fd5b50610163610520565b60405180846bffffffffffffffffffffffff166bffffffffffffffffffffffff168152602001836bffffffffffffffffffffffff166bffffffffffffffffffffffff1681526020018267ffffffffffffffff1667ffffffffffffffff168152602001935050505060405180910390f35b3480156101df57600080fd5b506101fe600480360381019080803590602001909291905050506105c6565b005b34801561020c57600080fd5b5061021561063b565b604051808381526020018281526020019250505060405180910390f35b34801561023e57600080fd5b506102476107b8565b6040518082815260200191505060405180910390f35b34801561026957600080fd5b506102726108bb565b005b34801561028057600080fd5b50610289610bb2565b6040518082815260200191505060405180910390f35b3480156102ab57600080fd5b506102b4610bb8565b6040518082815260200191505060405180910390f35b3480156102d657600080fd5b506102fb600480360381019080803563ffffffff169060200190929190505050610bbe565b604051808381526020018281526020019250505060405180910390f35b34801561032457600080fd5b5061032d610c1e565b604051808273ffffffffffffffffffffffffffffffffffffffff1673ffffffffffffffffffffffffffffffffffffffff16815260200191505060405180910390f35b34801561037b57600080fd5b50610384610c43565b005b61038e610dcd565b005b34801561039c57600080fd5b506103a5610fd4565b6040518082815260200191505060405180910390f35b3480156103c757600080fd5b506103d0610fda565b005b3480156103de57600080fd5b506103e76110f0565b005b3480156103f557600080fd5b506103fe6115d3565b6040518082815260200191505060405180910390f35b34801561042057600080fd5b506104296115d9565b6040518082815260200191505060405180910390f35b34801561044b57600080fd5b50610480600480360381019080803573ffffffffffffffffffffffffffffffffffffffff1690602001909291905050506115df565b005b34801561048e57600080fd5b506104ad60048036038101908080359060200190929190505050611734565b005b3480156104bb57600080fd5b506104c4611799565b604051808273ffffffffffffffffffffffffffffffffffffffff1673ffffffffffffffffffffffffffffffffffffffff16815260200191505060405180910390f35b6000600760009054906101000a900463ffffffff16905090565b600080600080600560003373ffffffffffffffffffffffffffffffffffffffff1673ffffffffffffffffffffffffffffffffffffffff16815260200190815260200160002090508060000160009054906101000a90046bffffffffffffffffffffffff16935080600001600c9054906101000a90046bffffffffffffffffffffffff1692508060000160189054906101000a900467ffffffffffffffff16915050909192565b6000809054906101000a900473ffffffffffffffffffffffffffffffffffffffff1673ffffffffffffffffffffffffffffffffffffffff163373ffffffffffffffffffffffffffffffffffffffff1614151561062157600080fd5b6064811115151561063157600080fd5b8060018190555050565b6000806000806000806000600560003373ffffffffffffffffffffffffffffffffffffffff1673ffffffffffffffffffffffffffffffffffffffff16815260200190815260200160002094508460010160009054906101000a900463ffffffff1693505b600760009054906101000a900463ffffffff1663ffffffff168463ffffffff16101561077e578460020160008563ffffffff1663ffffffff1681526020019081526020016000209250600660008563ffffffff168152602001908152602001600020915061075a826000015461074c84600101548660000160009054906101000a90046bffffffffffffffffffffffff166bffffffffffffffffffffffff166117bf90919063ffffffff16565b6117da90919063ffffffff16565b905061076f818861180d90919063ffffffff16565b9650838060010194505061069f565b8460010160009054906101000a900463ffffffff16600760009054906101000a900463ffffffff160363ffffffff16955050505050509091565b6000600954600d60009054906101000a900473ffffffffffffffffffffffffffffffffffffffff1673ffffffffffffffffffffffffffffffffffffffff166370a08231306040518263ffffffff167c0100000000000000000000000000000000000000000000000000000000028152600401808273ffffffffffffffffffffffffffffffffffffffff1673ffffffffffffffffffffffffffffffffffffffff168152602001915050602060405180830381600087803b15801561087a57600080fd5b505af115801561088e573d6000803e3d6000fd5b505050506040513d60208110156108a457600080fd5b810190808051906020019092919050505003905090565b6000806000806000806000600560003373ffffffffffffffffffffffffffffffffffffffff1673ffffffffffffffffffffffffffffffffffffffff16815260200190815260200160002096508660010160009054906101000a900463ffffffff1693505b600760009054906101000a900463ffffffff1663ffffffff168463ffffffff161015610b74578660020160008563ffffffff1663ffffffff1681526020019081526020016000209250600660008563ffffffff168152602001908152602001600020915060008360000160009054906101000a90046bffffffffffffffffffffffff166bffffffffffffffffffffffff161115610aac57610a0d82600001546109ff84600101548660000160009054906101000a90046bffffffffffffffffffffffff166bffffffffffffffffffffffff166117bf90919063ffffffff16565b6117da90919063ffffffff16565b6bffffffffffffffffffffffff169050808760000160008282829054906101000a90046bffffffffffffffffffffffff160192506101000a8154816bffffffffffffffffffffffff02191690836bffffffffffffffffffffffff1602179055508260000160009054906101000a90046bffffffffffffffffffffffff16945082600001600c9054906101000a900467ffffffffffffffff169550610b67565b610ae78260000154610ad98460010154886bffffffffffffffffffffffff166117bf90919063ffffffff16565b6117da90919063ffffffff16565b905081600201548667ffffffffffffffff16101515610b5557808760000160008282829054906101000a90046bffffffffffffffffffffffff160192506101000a8154816bffffffffffffffffffffffff02191690836bffffffffffffffffffffffff160217905550610b66565b806009600082825403925050819055505b5b838060010194505061091f565b600760009054906101000a900463ffffffff168760010160006101000a81548163ffffffff021916908363ffffffff16021790555050505050505050565b60095481565b600a5481565b6000806000600760009054906101000a900463ffffffff1663ffffffff168463ffffffff16101515610bef57600080fd5b600660008563ffffffff1681526020019081526020016000209050806000015492508060010154915050915091565b6000809054906101000a900473ffffffffffffffffffffffffffffffffffffffff1681565b60003073ffffffffffffffffffffffffffffffffffffffff16319050600e60009054906101000a900473ffffffffffffffffffffffffffffffffffffffff1673ffffffffffffffffffffffffffffffffffffffff1663791c754d82600d60009054906101000a900473ffffffffffffffffffffffffffffffffffffffff16306040518463ffffffff167c0100000000000000000000000000000000000000000000000000000000028152600401808373ffffffffffffffffffffffffffffffffffffffff1673ffffffffffffffffffffffffffffffffffffffff1681526020018273ffffffffffffffffffffffffffffffffffffffff1673ffffffffffffffffffffffffffffffffffffffff168152602001925050506020604051808303818588803b158015610d7257600080fd5b505af1158015610d86573d6000803e3d6000fd5b50505050506040513d6020811015610d9d57600080fd5b810190808051906020019092919050505050610dc48160085461180d90919063ffffffff16565b60088190555050565b600080600034111515610ddf57600080fd5b600560003373ffffffffffffffffffffffffffffffffffffffff1673ffffffffffffffffffffffffffffffffffffffff1681526020019081526020016000209150600082600001600c9054906101000a90046bffffffffffffffffffffffff166bffffffffffffffffffffffff161415610e8957600760009054906101000a900463ffffffff168260010160006101000a81548163ffffffff021916908363ffffffff1602179055505b3482600001600c8282829054906101000a90046bffffffffffffffffffffffff160192506101000a8154816bffffffffffffffffffffffff02191690836bffffffffffffffffffffffff1602179055506276a70042018260000160186101000a81548167ffffffffffffffff021916908367ffffffffffffffff160217905550816002016000600760009054906101000a900463ffffffff1663ffffffff1663ffffffff168152602001908152602001600020905081600001600c9054906101000a90046bffffffffffffffffffffffff168160000160006101000a8154816bffffffffffffffffffffffff02191690836bffffffffffffffffffffffff1602179055508160000160189054906101000a900467ffffffffffffffff1681600001600c6101000a81548167ffffffffffffffff021916908367ffffffffffffffff1602179055505050565b60085481565b6000806000600c544210151515610ff057600080fd5b60003073ffffffffffffffffffffffffffffffffffffffff1631111561101957611018610c43565b5b6110216107b8565b925061104b606461103d600154866117da90919063ffffffff16565b6117bf90919063ffffffff16565b915060066000600760009054906101000a900463ffffffff1663ffffffff16815260200190815260200160002090508181600001819055506008548160010181905550428160020181905550816009600082825401925050819055506007600081819054906101000a900463ffffffff1660010191906101000a81548163ffffffff021916908363ffffffff1602179055506110e561182b565b600c81905550505050565b600080600560003373ffffffffffffffffffffffffffffffffffffffff1673ffffffffffffffffffffffffffffffffffffffff168152602001908152602001600020915060008260000160009054906101000a90046bffffffffffffffffffffffff166bffffffffffffffffffffffff1611151561116d57600080fd5b600760009054906101000a900463ffffffff1663ffffffff168260010160009054906101000a900463ffffffff1663ffffffff161415156111ad57600080fd5b6111d88260000160189054906101000a900467ffffffffffffffff1667ffffffffffffffff16611841565b42111515156111e657600080fd5b8160000160009054906101000a90046bffffffffffffffffffffffff166bffffffffffffffffffffffff1690508160000160189054906101000a900467ffffffffffffffff1667ffffffffffffffff164211151561127b57611278611269606461125b600354856117da90919063ffffffff16565b6117bf90919063ffffffff16565b8261185490919063ffffffff16565b90505b6112ba8260000160009054906101000a90046bffffffffffffffffffffffff166bffffffffffffffffffffffff1660095461185490919063ffffffff16565b6009819055506112ff82600001600c9054906101000a90046bffffffffffffffffffffffff166bffffffffffffffffffffffff1660085461185490919063ffffffff16565b60088190555060008260000160006101000a8154816bffffffffffffffffffffffff02191690836bffffffffffffffffffffffff160217905550600082600001600c6101000a8154816bffffffffffffffffffffffff02191690836bffffffffffffffffffffffff16021790555060008260000160186101000a81548167ffffffffffffffff021916908367ffffffffffffffff160217905550600d60009054906101000a900473ffffffffffffffffffffffffffffffffffffffff1673ffffffffffffffffffffffffffffffffffffffff1663095ea7b330836040518363ffffffff167c0100000000000000000000000000000000000000000000000000000000028152600401808373ffffffffffffffffffffffffffffffffffffffff1673ffffffffffffffffffffffffffffffffffffffff16815260200182815260200192505050602060405180830381600087803b15801561145e57600080fd5b505af1158015611472573d6000803e3d6000fd5b505050506040513d602081101561148857600080fd5b810190808051906020019092919050505050600d60009054906101000a900473ffffffffffffffffffffffffffffffffffffffff1673ffffffffffffffffffffffffffffffffffffffff166323b872dd3033846040518463ffffffff167c0100000000000000000000000000000000000000000000000000000000028152600401808473ffffffffffffffffffffffffffffffffffffffff1673ffffffffffffffffffffffffffffffffffffffff1681526020018373ffffffffffffffffffffffffffffffffffffffff1673ffffffffffffffffffffffffffffffffffffffff1681526020018281526020019350505050602060405180830381600087803b15801561159357600080fd5b505af11580156115a7573d6000803e3d6000fd5b505050506040513d60208110156115bd57600080fd5b8101908080519060200190929190505050505050565b600c5481565b600b5481565b6000809054906101000a900473ffffffffffffffffffffffffffffffffffffffff1673ffffffffffffffffffffffffffffffffffffffff163373ffffffffffffffffffffffffffffffffffffffff1614151561163a57600080fd5b600073ffffffffffffffffffffffffffffffffffffffff168173ffffffffffffffffffffffffffffffffffffffff161415151561167657600080fd5b8073ffffffffffffffffffffffffffffffffffffffff166000809054906101000a900473ffffffffffffffffffffffffffffffffffffffff1673ffffffffffffffffffffffffffffffffffffffff167f8be0079c531659141344cd1fd0a4f28419497f9722a3daafe3b4186f6b6457e060405160405180910390a3806000806101000a81548173ffffffffffffffffffffffffffffffffffffffff021916908373ffffffffffffffffffffffffffffffffffffffff16021790555050565b6000809054906101000a900473ffffffffffffffffffffffffffffffffffffffff1673ffffffffffffffffffffffffffffffffffffffff163373ffffffffffffffffffffffffffffffffffffffff1614151561178f57600080fd5b8060028190555050565b600d60009054906101000a900473ffffffffffffffffffffffffffffffffffffffff1681565b60008082848115156117cd57fe5b0490508091505092915050565b600080828402905060008414806117fb57508284828115156117f857fe5b04145b151561180357fe5b8091505092915050565b600080828401905083811015151561182157fe5b8091505092915050565b6000804290506002546201518002810191505090565b6000600254620151800282019050919050565b600082821115151561186257fe5b8183039050929150505600a165627a7a723058209849b0274b408f0180bd3a00f0ef12c7622664e8890b1caaa040e59130d2b2bb0029",
  "source": "\r\npragma solidity ^0.4.18;\r\n\r\nimport \"./vendor/KyberNetwork.sol\";\r\nimport \"./base/math/SafeMath.sol\";\r\nimport \"./base/ownership/Ownable.sol\";\r\nimport \"./interfaces/tokentrader.sol\";\r\nimport \"./StakingLibrary.sol\";\r\n\r\n\r\ncontract StakingContract is Ownable {\r\n\r\n  using SafeMath for uint96; \r\n  using SafeMath for uint;\r\n\r\n  uint REWARD_PERCENTAGE = 5;\r\n  uint REWARD_ROUND_DURATION = 120; //Reward generation interval in days\r\n  uint WITHDRAWING_WHILE_ACTIVE_PENALTY = 20;\r\n  uint WITHDRAWAL_TIMEFRAME = 30;\r\n \r\n  mapping (address => StakingLibrary.UserStakeData) userStakes;\r\n  mapping (uint => StakingLibrary.RewardData) rewards;\r\n\r\n  uint32 rewardRoundNumber = 0;\r\n \r\n  uint public totalEthReceived = 0;\r\n \r\n  uint public totalTokenLockedAmount = 0;\r\n \r\n  uint public currentRewardAmount = 0;\r\n\r\n  \r\n  uint public lastRewardDistributionDate;\r\n  uint public nextRewardDate;\r\n\r\n  ERC20 public token;\r\n \r\n  TokenTrader tokenTrader;\r\n  \r\n\r\n  constructor(address _tokenAddress, address _tokenTraderAddress) public {\r\n\r\n        // Check inputs\r\n    require(_tokenAddress != address(0));\r\n    require(_tokenTraderAddress != address(0));\r\n\r\n    token = ERC20(_tokenAddress);\r\n    tokenTrader = TokenTrader(_tokenTraderAddress);\r\n     \r\n  }\r\n\r\n\r\nfunction claimRewards() public{\r\n    \r\n     StakingLibrary.UserStakeData storage userData = userStakes[msg.sender];\r\n     \r\n     uint64 lastActiveDate;\r\n     uint96 lastAmount;\r\n\r\n     for(uint32 i=userData.lastRewardRoundClaimed; i < rewardRoundNumber; i++ ){\r\n         \r\n         StakingLibrary.UserHistoryData storage historyEntry = userData.history[i];\r\n         StakingLibrary.RewardData storage currentRewardRoundData= rewards[i];\r\n         \r\n         \r\n         if(historyEntry.amount > 0){\r\n           \r\n            uint reward = uint96(historyEntry.amount.div(currentRewardRoundData.totalEthReceived).mul(currentRewardRoundData.totalReward));\r\n         \r\n            userData.currentStakeAmount += uint96(reward);\r\n            \r\n            lastAmount = historyEntry.amount;\r\n            lastActiveDate = historyEntry.activeDate;\r\n             \r\n         }\r\n         else{\r\n            \r\n            //if amount = 0, user didn't send any fee during the reward round. in that case we need to check if the account was active or not. If still active,\r\n            //we calculate the reward based on the previous round amount, otherwise we send the reward back to the global StakeLibrary\r\n\r\n            reward = lastAmount.div(currentRewardRoundData.totalEthReceived).mul(currentRewardRoundData.totalReward);\r\n            \r\n            if(lastActiveDate >= currentRewardRoundData.rewardDate)\r\n                userData.currentStakeAmount += uint96(reward);\r\n            else //send back the reward to the global stake\r\n                totalTokenLockedAmount-=reward;\r\n\r\n         }\r\n     }\r\n     \r\n     userData.lastRewardRoundClaimed = rewardRoundNumber;\r\n     \r\n }\r\n \r\n function withdrawStake() public {\r\n\r\n    StakingLibrary.UserStakeData storage userData = userStakes[msg.sender];\r\n     \r\n    require(userData.currentStakeAmount > 0);\r\n\r\n    require(userData.lastRewardRoundClaimed == rewardRoundNumber);\r\n\r\n    require(now <= calculateWithdrawalTimeframeEndDate(userData.activeUntilDate));\r\n\r\n    \r\n    uint amountToWitdraw = userData.currentStakeAmount;\r\n     \r\n    if(now <= userData.activeUntilDate)\r\n        amountToWitdraw  = amountToWitdraw.sub(amountToWitdraw.mul(WITHDRAWING_WHILE_ACTIVE_PENALTY).div(100));\r\n\r\n\r\n    totalTokenLockedAmount=totalTokenLockedAmount.sub(userData.currentStakeAmount);\r\n    totalEthReceived=totalEthReceived.sub(userData.totalSentAmount);\r\n \r\n    \r\n    userData.currentStakeAmount = 0;\r\n    userData.totalSentAmount = 0;\r\n    userData.activeUntilDate = 0;\r\n\r\n    token.approve(this, amountToWitdraw);\r\n    token.transferFrom(this, msg.sender, amountToWitdraw);\r\n     \r\n }\r\n\r\n \r\n  function receive() external payable{\r\n \r\n    require(msg.value > 0);\r\n    \r\n    StakingLibrary.UserStakeData storage userData = userStakes[msg.sender];\r\n\r\n    if(userData.totalSentAmount == 0)\r\n        userData.lastRewardRoundClaimed = rewardRoundNumber;\r\n        \r\n    userData.totalSentAmount += uint96(msg.value);\r\n    userData.activeUntilDate = uint64(now + 90 days);\r\n\r\n    StakingLibrary.UserHistoryData storage historyEntry = userData.history[rewardRoundNumber];\r\n    \r\n    historyEntry.amount = userData.totalSentAmount;\r\n    historyEntry.activeDate = userData.activeUntilDate;\r\n   \r\n }\r\n \r\n  function calculateGlobalStakeSize() public view returns(uint size){\r\n     \r\n    size = token.balanceOf(this) - totalTokenLockedAmount;\r\n  \r\n  }\r\n \r\n\r\n  function generateReward() public {\r\n    \r\n    require(now >= nextRewardDate);\r\n    \r\n    if(address(this).balance > 0) //convert has to be called before generateReward\r\n      convert();\r\n\r\n    uint currentGlobalStakeSize = calculateGlobalStakeSize();\r\n    \r\n    uint rewardAmount = currentGlobalStakeSize.mul(REWARD_PERCENTAGE).div(100);\r\n    \r\n    StakingLibrary.RewardData storage rewardData = rewards[rewardRoundNumber];\r\n    \r\n    rewardData.totalReward = rewardAmount;\r\n    rewardData.totalEthReceived = totalEthReceived;\r\n    rewardData.rewardDate = now;\r\n    \r\n    totalTokenLockedAmount += rewardAmount;\r\n    \r\n    ++rewardRoundNumber;\r\n    nextRewardDate = calculateNextRewardDate();\r\n    \r\n  } \r\n \r\n\r\n  function convert() public{\r\n\r\n\r\n    uint currentBalance = address(this).balance;\r\n\r\n    tokenTrader.tradeTokens.value(currentBalance)(token, this);\r\n\r\n    totalEthReceived = totalEthReceived.add(currentBalance);\r\n    \r\n  }\r\n \r\n \r\n  function getUnclaimedRewards() public view returns(uint total, uint numOfUnpaidRewards){\r\n     \r\n         \r\n    StakingLibrary.UserStakeData storage data = userStakes[msg.sender];\r\n     \r\n    for(uint32 i = data.lastRewardRoundClaimed; i < rewardRoundNumber; i++ ){\r\n         \r\n         \r\n      StakingLibrary.UserHistoryData storage historyEntry = data.history[i];\r\n         \r\n      StakingLibrary.RewardData storage dataForRound = rewards[i];\r\n         \r\n      uint reward = historyEntry.amount.div(dataForRound.totalEthReceived).mul(dataForRound.totalReward);\r\n\r\n      total = total.add(reward);\r\n\r\n    }\r\n     \r\n    numOfUnpaidRewards = rewardRoundNumber-data.lastRewardRoundClaimed;\r\n  }\r\n \r\n \r\n function getCurrentRewardRound() public view returns(uint32){\r\n     \r\n     return rewardRoundNumber;\r\n }\r\n\r\n  \r\n   \r\nfunction getTotalRewardsForRound(uint32 index) public view returns (uint rewardAmount, uint ethReceived){\r\n    \r\n    require(index < rewardRoundNumber);\r\n    \r\n    StakingLibrary.RewardData storage data = rewards[index];\r\n    \r\n    rewardAmount = data.totalReward;\r\n    ethReceived = data.totalEthReceived;\r\n}\r\n\r\n function getUserStakeData() public view returns (uint96 stake, uint96 total, uint64 activeUntilDate){\r\n \r\n    StakingLibrary.UserStakeData storage stakeData = userStakes[msg.sender];\r\n    \r\n    stake = stakeData.currentStakeAmount;\r\n    total = stakeData.totalSentAmount;\r\n    activeUntilDate = stakeData.activeUntilDate;\r\n     \r\n }\r\n\r\n\r\n  function calculateWithdrawalTimeframeEndDate(uint activeUntilDate) internal view  returns(uint){\r\n      return activeUntilDate +(60*60*24*REWARD_ROUND_DURATION);\r\n  }\r\n\r\n  function calculateNextRewardDate() internal view returns(uint){\r\n      \r\n      uint currentDate = now;\r\n\r\n      return currentDate+(60*60*24*REWARD_ROUND_DURATION);\r\n  }\r\n\r\n\r\n  //contract management functions\r\n\r\n  function setRewardRoundDuration(uint duration) onlyOwner public {\r\n\r\n      REWARD_ROUND_DURATION = duration;\r\n  }\r\n\r\n  function setRewardPercentage(uint percentage) onlyOwner public {\r\n\r\n      require(percentage <= 100);\r\n\r\n      REWARD_PERCENTAGE = percentage;\r\n  }\r\n\r\n}",
  "sourcePath": "C:\\Users\\Emilio\\Documents\\GitHub\\Microstaking\\contracts\\StakingContract.sol",
  "compiler": {
    "name": "solc",
    "version": "0.4.24+commit.e67f0147.Emscripten.clang"
  },
  "schemaVersion": "2.0.1",
  "updatedAt": "2018-08-23T14:24:30.626Z"
}